{"contracts/Plinko.sol":{"Plinko":{"abi":[{"inputs":[{"internalType":"contract IERC20","name":"_token","type":"address"}],"stateMutability":"nonpayable","type":"constructor"},{"inputs":[{"internalType":"uint256","name":"wager","type":"uint256"},{"internalType":"uint256","name":"maxWager","type":"uint256"}],"name":"WagerAboveLimit","type":"error"},{"anonymous":false,"inputs":[{"indexed":true,"internalType":"address","name":"playerAddress","type":"address"},{"indexed":false,"internalType":"uint256","name":"ballNumber","type":"uint256"},{"indexed":false,"internalType":"uint256","name":"landingPosition","type":"uint256"},{"indexed":false,"internalType":"uint256","name":"multiplier","type":"uint256"}],"name":"Ball_Landed_Event","type":"event"},{"anonymous":false,"inputs":[{"indexed":true,"internalType":"address","name":"previousOwner","type":"address"},{"indexed":true,"internalType":"address","name":"newOwner","type":"address"}],"name":"OwnershipTransferred","type":"event"},{"anonymous":false,"inputs":[{"indexed":true,"internalType":"address","name":"playerAddress","type":"address"},{"indexed":false,"internalType":"uint256","name":"wager","type":"uint256"},{"indexed":false,"internalType":"uint256","name":"payout","type":"uint256"}],"name":"Plinko_Payout_Event","type":"event"},{"anonymous":false,"inputs":[{"indexed":true,"internalType":"address","name":"playerAddress","type":"address"},{"indexed":false,"internalType":"uint256","name":"wager","type":"uint256"},{"indexed":false,"internalType":"uint256","name":"totalWager","type":"uint256"},{"indexed":false,"internalType":"uint8","name":"numRows","type":"uint8"},{"indexed":false,"internalType":"uint8","name":"risk","type":"uint8"}],"name":"Plinko_Play_Event","type":"event"},{"inputs":[],"name":"bankroll","outputs":[{"internalType":"contract IBankroll","name":"","type":"address"}],"stateMutability":"view","type":"function"},{"inputs":[],"name":"getBankroll","outputs":[{"internalType":"address","name":"","type":"address"}],"stateMutability":"view","type":"function"},{"inputs":[{"internalType":"uint8","name":"risk","type":"uint8"},{"internalType":"uint8","name":"numRows","type":"uint8"}],"name":"getMultipliers","outputs":[{"internalType":"uint256[]","name":"multipliers","type":"uint256[]"}],"stateMutability":"view","type":"function"},{"inputs":[],"name":"owner","outputs":[{"internalType":"address","name":"","type":"address"}],"stateMutability":"view","type":"function"},{"inputs":[{"internalType":"uint256","name":"wager","type":"uint256"},{"internalType":"uint8","name":"risk","type":"uint8"},{"internalType":"uint8","name":"numRows","type":"uint8"},{"internalType":"uint256","name":"multipleBets","type":"uint256"}],"name":"play","outputs":[],"stateMutability":"payable","type":"function"},{"inputs":[{"internalType":"uint8","name":"","type":"uint8"},{"internalType":"uint8","name":"","type":"uint8"},{"internalType":"uint256","name":"","type":"uint256"}],"name":"plinkoMultipliers","outputs":[{"internalType":"uint256","name":"","type":"uint256"}],"stateMutability":"view","type":"function"},{"inputs":[],"name":"renounceOwnership","outputs":[],"stateMutability":"nonpayable","type":"function"},{"inputs":[{"internalType":"address","name":"_bankroll","type":"address"}],"name":"setBankroll","outputs":[],"stateMutability":"nonpayable","type":"function"},{"inputs":[{"internalType":"uint8","name":"risk","type":"uint8"},{"internalType":"uint8","name":"numRows","type":"uint8"},{"internalType":"uint256[]","name":"multipliers","type":"uint256[]"}],"name":"setMultipliers","outputs":[],"stateMutability":"nonpayable","type":"function"},{"inputs":[],"name":"token","outputs":[{"internalType":"contract IERC20","name":"","type":"address"}],"stateMutability":"view","type":"function"},{"inputs":[{"internalType":"address","name":"newOwner","type":"address"}],"name":"transferOwnership","outputs":[],"stateMutability":"nonpayable","type":"function"},{"stateMutability":"payable","type":"receive"}],"evm":{"bytecode":{"linkReferences":{},"object":"60806040523480156200001157600080fd5b50604051620022a0380380620022a08339818101604052810190620000379190620001f3565b60016000819055506200005f62000053620000a760201b60201c565b620000af60201b60201c565b80600260006101000a81548173ffffffffffffffffffffffffffffffffffffffff021916908373ffffffffffffffffffffffffffffffffffffffff1602179055505062000225565b600033905090565b6000600160009054906101000a900473ffffffffffffffffffffffffffffffffffffffff16905081600160006101000a81548173ffffffffffffffffffffffffffffffffffffffff021916908373ffffffffffffffffffffffffffffffffffffffff1602179055508173ffffffffffffffffffffffffffffffffffffffff168173ffffffffffffffffffffffffffffffffffffffff167f8be0079c531659141344cd1fd0a4f28419497f9722a3daafe3b4186f6b6457e060405160405180910390a35050565b600080fd5b600073ffffffffffffffffffffffffffffffffffffffff82169050919050565b6000620001a7826200017a565b9050919050565b6000620001bb826200019a565b9050919050565b620001cd81620001ae565b8114620001d957600080fd5b50565b600081519050620001ed81620001c2565b92915050565b6000602082840312156200020c576200020b62000175565b5b60006200021c84828501620001dc565b91505092915050565b61206b80620002356000396000f3fe6080604052600436106100a05760003560e01c80638da5cb5b116100645780638da5cb5b1461017f578063bde8a93e146101aa578063ead64807146101d3578063f1119faa146101ef578063f2fde38b1461022c578063fc0c546a14610255576100a7565b80630c657eb0146100ac5780630d1fce42146100d75780631dd875561461010257806353bd90ca1461013f578063715018a614610168576100a7565b366100a757005b600080fd5b3480156100b857600080fd5b506100c1610280565b6040516100ce91906112fc565b60405180910390f35b3480156100e357600080fd5b506100ec6102a6565b6040516100f99190611338565b60405180910390f35b34801561010e57600080fd5b50610129600480360381019061012491906113a0565b6102d0565b60405161013691906114a8565b60405180910390f35b34801561014b57600080fd5b506101666004803603810190610161919061164f565b610359565b005b34801561017457600080fd5b5061017d6103ab565b005b34801561018b57600080fd5b506101946103bf565b6040516101a19190611338565b60405180910390f35b3480156101b657600080fd5b506101d160048036038101906101cc91906116ea565b6103e9565b005b6101ed60048036038101906101e89190611717565b610435565b005b3480156101fb57600080fd5b506102166004803603810190610211919061177e565b61073a565b60405161022391906117e0565b60405180910390f35b34801561023857600080fd5b50610253600480360381019061024e91906116ea565b610778565b005b34801561026157600080fd5b5061026a6107fb565b604051610277919061181c565b60405180910390f35b600360009054906101000a900473ffffffffffffffffffffffffffffffffffffffff1681565b6000600360009054906101000a900473ffffffffffffffffffffffffffffffffffffffff16905090565b6060600460008460ff1660ff16815260200190815260200160002060008360ff1660ff16815260200190815260200160002080548060200260200160405190810160405280929190818152602001828054801561034c57602002820191906000526020600020905b815481526020019060010190808311610338575b5050505050905092915050565b610361610821565b80600460008560ff1660ff16815260200190815260200160002060008460ff1660ff16815260200190815260200160002090805190602001906103a5929190611213565b50505050565b6103b3610821565b6103bd600061089f565b565b6000600160009054906101000a900473ffffffffffffffffffffffffffffffffffffffff16905090565b6103f1610821565b80600360006101000a81548173ffffffffffffffffffffffffffffffffffffffff021916908373ffffffffffffffffffffffffffffffffffffffff16021790555050565b61043d610965565b6000339050600082866104509190611866565b905061047e81600260009054906101000a900473ffffffffffffffffffffffffffffffffffffffff166109b4565b6104ef82600360009054906101000a900473ffffffffffffffffffffffffffffffffffffffff1683600260009054906101000a900473ffffffffffffffffffffffffffffffffffffffff1673ffffffffffffffffffffffffffffffffffffffff16610b5a909392919063ffffffff16565b6040518060a001604052808373ffffffffffffffffffffffffffffffffffffffff1681526020018781526020018481526020018560ff1681526020018660ff16815250600560008473ffffffffffffffffffffffffffffffffffffffff1673ffffffffffffffffffffffffffffffffffffffff16815260200190815260200160002060008201518160000160006101000a81548173ffffffffffffffffffffffffffffffffffffffff021916908373ffffffffffffffffffffffffffffffffffffffff160217905550602082015181600101556040820151816002015560608201518160030160006101000a81548160ff021916908360ff16021790555060808201518160030160016101000a81548160ff021916908360ff1602179055509050506000600560008473ffffffffffffffffffffffffffffffffffffffff1673ffffffffffffffffffffffffffffffffffffffff1681526020019081526020016000206040518060a00160405290816000820160009054906101000a900473ffffffffffffffffffffffffffffffffffffffff1673ffffffffffffffffffffffffffffffffffffffff1673ffffffffffffffffffffffffffffffffffffffff16815260200160018201548152602001600282015481526020016003820160009054906101000a900460ff1660ff1660ff1681526020016003820160019054906101000a900460ff1660ff1660ff16815250509050600061070d610be3565b9050600061071b8383610c31565b90506107278382610e4f565b5050505050610734610f6c565b50505050565b6004602052826000526040600020602052816000526040600020818154811061076257600080fd5b9060005260206000200160009250925050505481565b610780610821565b600073ffffffffffffffffffffffffffffffffffffffff168173ffffffffffffffffffffffffffffffffffffffff16036107ef576040517f08c379a00000000000000000000000000000000000000000000000000000000081526004016107e69061192b565b60405180910390fd5b6107f88161089f565b50565b600260009054906101000a900473ffffffffffffffffffffffffffffffffffffffff1681565b610829610f76565b73ffffffffffffffffffffffffffffffffffffffff166108476103bf565b73ffffffffffffffffffffffffffffffffffffffff161461089d576040517f08c379a000000000000000000000000000000000000000000000000000000000815260040161089490611997565b60405180910390fd5b565b6000600160009054906101000a900473ffffffffffffffffffffffffffffffffffffffff16905081600160006101000a81548173ffffffffffffffffffffffffffffffffffffffff021916908373ffffffffffffffffffffffffffffffffffffffff1602179055508173ffffffffffffffffffffffffffffffffffffffff168173ffffffffffffffffffffffffffffffffffffffff167f8be0079c531659141344cd1fd0a4f28419497f9722a3daafe3b4186f6b6457e060405160405180910390a35050565b6002600054036109aa576040517f08c379a00000000000000000000000000000000000000000000000000000000081526004016109a190611a03565b60405180910390fd5b6002600081905550565b60008073ffffffffffffffffffffffffffffffffffffffff168273ffffffffffffffffffffffffffffffffffffffff1603610a2a57600360009054906101000a900473ffffffffffffffffffffffffffffffffffffffff1673ffffffffffffffffffffffffffffffffffffffff16319050610aeb565b600260009054906101000a900473ffffffffffffffffffffffffffffffffffffffff1673ffffffffffffffffffffffffffffffffffffffff166370a08231600360009054906101000a900473ffffffffffffffffffffffffffffffffffffffff166040518263ffffffff1660e01b8152600401610aa79190611338565b602060405180830381865afa158015610ac4573d6000803e3d6000fd5b505050506040513d601f19601f82011682018060405250810190610ae89190611a38565b90505b60006305f5e1006210c8e083610b019190611866565b610b0b9190611a94565b905080841115610b545783816040517fd53662aa000000000000000000000000000000000000000000000000000000008152600401610b4b929190611ac5565b60405180910390fd5b50505050565b610bdd846323b872dd60e01b858585604051602401610b7b93929190611aee565b604051602081830303815290604052907bffffffffffffffffffffffffffffffffffffffffffffffffffffffff19166020820180517bffffffffffffffffffffffffffffffffffffffffffffffffffffffff8381831617835250505050610f7e565b50505050565b6000806301bc367390508042600143610bfc9190611b25565b404340604051602001610c129493929190611ba5565b6040516020818303038152906040528051906020012060001c91505090565b6000826000015173ffffffffffffffffffffffffffffffffffffffff167fda45fbcc0675876b69425067e2270e043b4e659c96b814a29dd19fba183a4d0f846020015185604001518660200151610c889190611866565b86606001518760800151604051610ca29493929190611c02565b60405180910390a260008060005b8560400151811015610e43576000915060005b866060015160ff168160ff161015610d085760006001871614610cef578280610ceb90611c47565b9350505b6001869050508080610d0090611c8f565b915050610cc3565b50856000015173ffffffffffffffffffffffffffffffffffffffff167fceda1a8e77c06cd2a7ed4645fb240c21c5ca4d5d88c2466dc5c3095a033e4d088284600460008b6080015160ff1660ff16815260200190815260200160002060008b6060015160ff1660ff1681526020019081526020016000208681548110610d9157610d90611cb8565b5b9060005260206000200154604051610dab93929190611ce7565b60405180910390a2600a60046000886080015160ff1660ff1681526020019081526020016000206000886060015160ff1660ff1681526020019081526020016000208381548110610dff57610dfe611cb8565b5b90600052602060002001548760200151610e199190611866565b610e239190611a94565b83610e2e9190611d1e565b92508080610e3b90611c47565b915050610cb0565b50819250505092915050565b6000811115610f1057600360009054906101000a900473ffffffffffffffffffffffffffffffffffffffff1673ffffffffffffffffffffffffffffffffffffffff16633d189bf1600260009054906101000a900473ffffffffffffffffffffffffffffffffffffffff168460000151846040518463ffffffff1660e01b8152600401610edd93929190611aee565b600060405180830381600087803b158015610ef757600080fd5b505af1158015610f0b573d6000803e3d6000fd5b505050505b816000015173ffffffffffffffffffffffffffffffffffffffff167f30a7bc34a1ccf47a3014e216e1434062f3c0dd1af0a83a8a79b19b4b740f4c4c836020015183604051610f60929190611ac5565b60405180910390a25050565b6001600081905550565b600033905090565b6000610fe0826040518060400160405280602081526020017f5361666545524332303a206c6f772d6c6576656c2063616c6c206661696c65648152508573ffffffffffffffffffffffffffffffffffffffff166110469092919063ffffffff16565b90506000815114806110025750808060200190518101906110019190611d8a565b5b611041576040517f08c379a000000000000000000000000000000000000000000000000000000000815260040161103890611e29565b60405180910390fd5b505050565b6060611055848460008561105e565b90509392505050565b6060824710156110a3576040517f08c379a000000000000000000000000000000000000000000000000000000000815260040161109a90611ebb565b60405180910390fd5b6000808673ffffffffffffffffffffffffffffffffffffffff1685876040516110cc9190611f4c565b60006040518083038185875af1925050503d8060008114611109576040519150601f19603f3d011682016040523d82523d6000602084013e61110e565b606091505b509150915061111f8783838761112b565b92505050949350505050565b6060831561118d57600083510361118557611145856111a0565b611184576040517f08c379a000000000000000000000000000000000000000000000000000000000815260040161117b90611faf565b60405180910390fd5b5b829050611198565b61119783836111c3565b5b949350505050565b6000808273ffffffffffffffffffffffffffffffffffffffff163b119050919050565b6000825111156111d65781518083602001fd5b806040517f08c379a000000000000000000000000000000000000000000000000000000000815260040161120a9190612013565b60405180910390fd5b82805482825590600052602060002090810192821561124f579160200282015b8281111561124e578251825591602001919060010190611233565b5b50905061125c9190611260565b5090565b5b80821115611279576000816000905550600101611261565b5090565b600073ffffffffffffffffffffffffffffffffffffffff82169050919050565b6000819050919050565b60006112c26112bd6112b88461127d565b61129d565b61127d565b9050919050565b60006112d4826112a7565b9050919050565b60006112e6826112c9565b9050919050565b6112f6816112db565b82525050565b600060208201905061131160008301846112ed565b92915050565b60006113228261127d565b9050919050565b61133281611317565b82525050565b600060208201905061134d6000830184611329565b92915050565b6000604051905090565b600080fd5b600080fd5b600060ff82169050919050565b61137d81611367565b811461138857600080fd5b50565b60008135905061139a81611374565b92915050565b600080604083850312156113b7576113b661135d565b5b60006113c58582860161138b565b92505060206113d68582860161138b565b9150509250929050565b600081519050919050565b600082825260208201905092915050565b6000819050602082019050919050565b6000819050919050565b61141f8161140c565b82525050565b60006114318383611416565b60208301905092915050565b6000602082019050919050565b6000611455826113e0565b61145f81856113eb565b935061146a836113fc565b8060005b8381101561149b5781516114828882611425565b975061148d8361143d565b92505060018101905061146e565b5085935050505092915050565b600060208201905081810360008301526114c2818461144a565b905092915050565b600080fd5b6000601f19601f8301169050919050565b7f4e487b7100000000000000000000000000000000000000000000000000000000600052604160045260246000fd5b611518826114cf565b810181811067ffffffffffffffff82111715611537576115366114e0565b5b80604052505050565b600061154a611353565b9050611556828261150f565b919050565b600067ffffffffffffffff821115611576576115756114e0565b5b602082029050602081019050919050565b600080fd5b6115958161140c565b81146115a057600080fd5b50565b6000813590506115b28161158c565b92915050565b60006115cb6115c68461155b565b611540565b905080838252602082019050602084028301858111156115ee576115ed611587565b5b835b81811015611617578061160388826115a3565b8452602084019350506020810190506115f0565b5050509392505050565b600082601f830112611636576116356114ca565b5b81356116468482602086016115b8565b91505092915050565b6000806000606084860312156116685761166761135d565b5b60006116768682870161138b565b93505060206116878682870161138b565b925050604084013567ffffffffffffffff8111156116a8576116a7611362565b5b6116b486828701611621565b9150509250925092565b6116c781611317565b81146116d257600080fd5b50565b6000813590506116e4816116be565b92915050565b600060208284031215611700576116ff61135d565b5b600061170e848285016116d5565b91505092915050565b600080600080608085870312156117315761173061135d565b5b600061173f878288016115a3565b94505060206117508782880161138b565b93505060406117618782880161138b565b9250506060611772878288016115a3565b91505092959194509250565b6000806000606084860312156117975761179661135d565b5b60006117a58682870161138b565b93505060206117b68682870161138b565b92505060406117c7868287016115a3565b9150509250925092565b6117da8161140c565b82525050565b60006020820190506117f560008301846117d1565b92915050565b6000611806826112c9565b9050919050565b611816816117fb565b82525050565b6000602082019050611831600083018461180d565b92915050565b7f4e487b7100000000000000000000000000000000000000000000000000000000600052601160045260246000fd5b60006118718261140c565b915061187c8361140c565b925082820261188a8161140c565b915082820484148315176118a1576118a0611837565b5b5092915050565b600082825260208201905092915050565b7f4f776e61626c653a206e6577206f776e657220697320746865207a65726f206160008201527f6464726573730000000000000000000000000000000000000000000000000000602082015250565b60006119156026836118a8565b9150611920826118b9565b604082019050919050565b6000602082019050818103600083015261194481611908565b9050919050565b7f4f776e61626c653a2063616c6c6572206973206e6f7420746865206f776e6572600082015250565b60006119816020836118a8565b915061198c8261194b565b602082019050919050565b600060208201905081810360008301526119b081611974565b9050919050565b7f5265656e7472616e637947756172643a207265656e7472616e742063616c6c00600082015250565b60006119ed601f836118a8565b91506119f8826119b7565b602082019050919050565b60006020820190508181036000830152611a1c816119e0565b9050919050565b600081519050611a328161158c565b92915050565b600060208284031215611a4e57611a4d61135d565b5b6000611a5c84828501611a23565b91505092915050565b7f4e487b7100000000000000000000000000000000000000000000000000000000600052601260045260246000fd5b6000611a9f8261140c565b9150611aaa8361140c565b925082611aba57611ab9611a65565b5b828204905092915050565b6000604082019050611ada60008301856117d1565b611ae760208301846117d1565b9392505050565b6000606082019050611b036000830186611329565b611b106020830185611329565b611b1d60408301846117d1565b949350505050565b6000611b308261140c565b9150611b3b8361140c565b9250828203905081811115611b5357611b52611837565b5b92915050565b6000819050919050565b611b74611b6f8261140c565b611b59565b82525050565b6000819050919050565b6000819050919050565b611b9f611b9a82611b7a565b611b84565b82525050565b6000611bb18287611b63565b602082019150611bc18286611b63565b602082019150611bd18285611b8e565b602082019150611be18284611b8e565b60208201915081905095945050505050565b611bfc81611367565b82525050565b6000608082019050611c1760008301876117d1565b611c2460208301866117d1565b611c316040830185611bf3565b611c3e6060830184611bf3565b95945050505050565b6000611c528261140c565b91507fffffffffffffffffffffffffffffffffffffffffffffffffffffffffffffffff8203611c8457611c83611837565b5b600182019050919050565b6000611c9a82611367565b915060ff8203611cad57611cac611837565b5b600182019050919050565b7f4e487b7100000000000000000000000000000000000000000000000000000000600052603260045260246000fd5b6000606082019050611cfc60008301866117d1565b611d0960208301856117d1565b611d1660408301846117d1565b949350505050565b6000611d298261140c565b9150611d348361140c565b9250828201905080821115611d4c57611d4b611837565b5b92915050565b60008115159050919050565b611d6781611d52565b8114611d7257600080fd5b50565b600081519050611d8481611d5e565b92915050565b600060208284031215611da057611d9f61135d565b5b6000611dae84828501611d75565b91505092915050565b7f5361666545524332303a204552433230206f7065726174696f6e20646964206e60008201527f6f74207375636365656400000000000000000000000000000000000000000000602082015250565b6000611e13602a836118a8565b9150611e1e82611db7565b604082019050919050565b60006020820190508181036000830152611e4281611e06565b9050919050565b7f416464726573733a20696e73756666696369656e742062616c616e636520666f60008201527f722063616c6c0000000000000000000000000000000000000000000000000000602082015250565b6000611ea56026836118a8565b9150611eb082611e49565b604082019050919050565b60006020820190508181036000830152611ed481611e98565b9050919050565b600081519050919050565b600081905092915050565b60005b83811015611f0f578082015181840152602081019050611ef4565b60008484015250505050565b6000611f2682611edb565b611f308185611ee6565b9350611f40818560208601611ef1565b80840191505092915050565b6000611f588284611f1b565b915081905092915050565b7f416464726573733a2063616c6c20746f206e6f6e2d636f6e7472616374000000600082015250565b6000611f99601d836118a8565b9150611fa482611f63565b602082019050919050565b60006020820190508181036000830152611fc881611f8c565b9050919050565b600081519050919050565b6000611fe582611fcf565b611fef81856118a8565b9350611fff818560208601611ef1565b612008816114cf565b840191505092915050565b6000602082019050818103600083015261202d8184611fda565b90509291505056fea26469706673582212201b77eb2ec3c965d512da360a47b58b260f293509b9b0e9c1871c7b7b339170a364736f6c63430008110033","opcodes":"PUSH1 0x80 PUSH1 0x40 MSTORE CALLVALUE DUP1 ISZERO PUSH3 0x11 JUMPI PUSH1 0x0 DUP1 REVERT JUMPDEST POP PUSH1 0x40 MLOAD PUSH3 0x22A0 CODESIZE SUB DUP1 PUSH3 0x22A0 DUP4 CODECOPY DUP2 DUP2 ADD PUSH1 0x40 MSTORE DUP2 ADD SWAP1 PUSH3 0x37 SWAP2 SWAP1 PUSH3 0x1F3 JUMP JUMPDEST PUSH1 0x1 PUSH1 0x0 DUP2 SWAP1 SSTORE POP PUSH3 0x5F PUSH3 0x53 PUSH3 0xA7 PUSH1 0x20 SHL PUSH1 0x20 SHR JUMP JUMPDEST PUSH3 0xAF PUSH1 0x20 SHL PUSH1 0x20 SHR JUMP JUMPDEST DUP1 PUSH1 0x2 PUSH1 0x0 PUSH2 0x100 EXP DUP2 SLOAD DUP2 PUSH20 0xFFFFFFFFFFFFFFFFFFFFFFFFFFFFFFFFFFFFFFFF MUL NOT AND SWAP1 DUP4 PUSH20 0xFFFFFFFFFFFFFFFFFFFFFFFFFFFFFFFFFFFFFFFF AND MUL OR SWAP1 SSTORE POP POP PUSH3 0x225 JUMP JUMPDEST PUSH1 0x0 CALLER SWAP1 POP SWAP1 JUMP JUMPDEST PUSH1 0x0 PUSH1 0x1 PUSH1 0x0 SWAP1 SLOAD SWAP1 PUSH2 0x100 EXP SWAP1 DIV PUSH20 0xFFFFFFFFFFFFFFFFFFFFFFFFFFFFFFFFFFFFFFFF AND SWAP1 POP DUP2 PUSH1 0x1 PUSH1 0x0 PUSH2 0x100 EXP DUP2 SLOAD DUP2 PUSH20 0xFFFFFFFFFFFFFFFFFFFFFFFFFFFFFFFFFFFFFFFF MUL NOT AND SWAP1 DUP4 PUSH20 0xFFFFFFFFFFFFFFFFFFFFFFFFFFFFFFFFFFFFFFFF AND MUL OR SWAP1 SSTORE POP DUP2 PUSH20 0xFFFFFFFFFFFFFFFFFFFFFFFFFFFFFFFFFFFFFFFF AND DUP2 PUSH20 0xFFFFFFFFFFFFFFFFFFFFFFFFFFFFFFFFFFFFFFFF AND PUSH32 0x8BE0079C531659141344CD1FD0A4F28419497F9722A3DAAFE3B4186F6B6457E0 PUSH1 0x40 MLOAD PUSH1 0x40 MLOAD DUP1 SWAP2 SUB SWAP1 LOG3 POP POP JUMP JUMPDEST PUSH1 0x0 DUP1 REVERT JUMPDEST PUSH1 0x0 PUSH20 0xFFFFFFFFFFFFFFFFFFFFFFFFFFFFFFFFFFFFFFFF DUP3 AND SWAP1 POP SWAP2 SWAP1 POP JUMP JUMPDEST PUSH1 0x0 PUSH3 0x1A7 DUP3 PUSH3 0x17A JUMP JUMPDEST SWAP1 POP SWAP2 SWAP1 POP JUMP JUMPDEST PUSH1 0x0 PUSH3 0x1BB DUP3 PUSH3 0x19A JUMP JUMPDEST SWAP1 POP SWAP2 SWAP1 POP JUMP JUMPDEST PUSH3 0x1CD DUP2 PUSH3 0x1AE JUMP JUMPDEST DUP2 EQ PUSH3 0x1D9 JUMPI PUSH1 0x0 DUP1 REVERT JUMPDEST POP JUMP JUMPDEST PUSH1 0x0 DUP2 MLOAD SWAP1 POP PUSH3 0x1ED DUP2 PUSH3 0x1C2 JUMP JUMPDEST SWAP3 SWAP2 POP POP JUMP JUMPDEST PUSH1 0x0 PUSH1 0x20 DUP3 DUP5 SUB SLT ISZERO PUSH3 0x20C JUMPI PUSH3 0x20B PUSH3 0x175 JUMP JUMPDEST JUMPDEST PUSH1 0x0 PUSH3 0x21C DUP5 DUP3 DUP6 ADD PUSH3 0x1DC JUMP JUMPDEST SWAP2 POP POP SWAP3 SWAP2 POP POP JUMP JUMPDEST PUSH2 0x206B DUP1 PUSH3 0x235 PUSH1 0x0 CODECOPY PUSH1 0x0 RETURN INVALID PUSH1 0x80 PUSH1 0x40 MSTORE PUSH1 0x4 CALLDATASIZE LT PUSH2 0xA0 JUMPI PUSH1 0x0 CALLDATALOAD PUSH1 0xE0 SHR DUP1 PUSH4 0x8DA5CB5B GT PUSH2 0x64 JUMPI DUP1 PUSH4 0x8DA5CB5B EQ PUSH2 0x17F JUMPI DUP1 PUSH4 0xBDE8A93E EQ PUSH2 0x1AA JUMPI DUP1 PUSH4 0xEAD64807 EQ PUSH2 0x1D3 JUMPI DUP1 PUSH4 0xF1119FAA EQ PUSH2 0x1EF JUMPI DUP1 PUSH4 0xF2FDE38B EQ PUSH2 0x22C JUMPI DUP1 PUSH4 0xFC0C546A EQ PUSH2 0x255 JUMPI PUSH2 0xA7 JUMP JUMPDEST DUP1 PUSH4 0xC657EB0 EQ PUSH2 0xAC JUMPI DUP1 PUSH4 0xD1FCE42 EQ PUSH2 0xD7 JUMPI DUP1 PUSH4 0x1DD87556 EQ PUSH2 0x102 JUMPI DUP1 PUSH4 0x53BD90CA EQ PUSH2 0x13F JUMPI DUP1 PUSH4 0x715018A6 EQ PUSH2 0x168 JUMPI PUSH2 0xA7 JUMP JUMPDEST CALLDATASIZE PUSH2 0xA7 JUMPI STOP JUMPDEST PUSH1 0x0 DUP1 REVERT JUMPDEST CALLVALUE DUP1 ISZERO PUSH2 0xB8 JUMPI PUSH1 0x0 DUP1 REVERT JUMPDEST POP PUSH2 0xC1 PUSH2 0x280 JUMP JUMPDEST PUSH1 0x40 MLOAD PUSH2 0xCE SWAP2 SWAP1 PUSH2 0x12FC JUMP JUMPDEST PUSH1 0x40 MLOAD DUP1 SWAP2 SUB SWAP1 RETURN JUMPDEST CALLVALUE DUP1 ISZERO PUSH2 0xE3 JUMPI PUSH1 0x0 DUP1 REVERT JUMPDEST POP PUSH2 0xEC PUSH2 0x2A6 JUMP JUMPDEST PUSH1 0x40 MLOAD PUSH2 0xF9 SWAP2 SWAP1 PUSH2 0x1338 JUMP JUMPDEST PUSH1 0x40 MLOAD DUP1 SWAP2 SUB SWAP1 RETURN JUMPDEST CALLVALUE DUP1 ISZERO PUSH2 0x10E JUMPI PUSH1 0x0 DUP1 REVERT JUMPDEST POP PUSH2 0x129 PUSH1 0x4 DUP1 CALLDATASIZE SUB DUP2 ADD SWAP1 PUSH2 0x124 SWAP2 SWAP1 PUSH2 0x13A0 JUMP JUMPDEST PUSH2 0x2D0 JUMP JUMPDEST PUSH1 0x40 MLOAD PUSH2 0x136 SWAP2 SWAP1 PUSH2 0x14A8 JUMP JUMPDEST PUSH1 0x40 MLOAD DUP1 SWAP2 SUB SWAP1 RETURN JUMPDEST CALLVALUE DUP1 ISZERO PUSH2 0x14B JUMPI PUSH1 0x0 DUP1 REVERT JUMPDEST POP PUSH2 0x166 PUSH1 0x4 DUP1 CALLDATASIZE SUB DUP2 ADD SWAP1 PUSH2 0x161 SWAP2 SWAP1 PUSH2 0x164F JUMP JUMPDEST PUSH2 0x359 JUMP JUMPDEST STOP JUMPDEST CALLVALUE DUP1 ISZERO PUSH2 0x174 JUMPI PUSH1 0x0 DUP1 REVERT JUMPDEST POP PUSH2 0x17D PUSH2 0x3AB JUMP JUMPDEST STOP JUMPDEST CALLVALUE DUP1 ISZERO PUSH2 0x18B JUMPI PUSH1 0x0 DUP1 REVERT JUMPDEST POP PUSH2 0x194 PUSH2 0x3BF JUMP JUMPDEST PUSH1 0x40 MLOAD PUSH2 0x1A1 SWAP2 SWAP1 PUSH2 0x1338 JUMP JUMPDEST PUSH1 0x40 MLOAD DUP1 SWAP2 SUB SWAP1 RETURN JUMPDEST CALLVALUE DUP1 ISZERO PUSH2 0x1B6 JUMPI PUSH1 0x0 DUP1 REVERT JUMPDEST POP PUSH2 0x1D1 PUSH1 0x4 DUP1 CALLDATASIZE SUB DUP2 ADD SWAP1 PUSH2 0x1CC SWAP2 SWAP1 PUSH2 0x16EA JUMP JUMPDEST PUSH2 0x3E9 JUMP JUMPDEST STOP JUMPDEST PUSH2 0x1ED PUSH1 0x4 DUP1 CALLDATASIZE SUB DUP2 ADD SWAP1 PUSH2 0x1E8 SWAP2 SWAP1 PUSH2 0x1717 JUMP JUMPDEST PUSH2 0x435 JUMP JUMPDEST STOP JUMPDEST CALLVALUE DUP1 ISZERO PUSH2 0x1FB JUMPI PUSH1 0x0 DUP1 REVERT JUMPDEST POP PUSH2 0x216 PUSH1 0x4 DUP1 CALLDATASIZE SUB DUP2 ADD SWAP1 PUSH2 0x211 SWAP2 SWAP1 PUSH2 0x177E JUMP JUMPDEST PUSH2 0x73A JUMP JUMPDEST PUSH1 0x40 MLOAD PUSH2 0x223 SWAP2 SWAP1 PUSH2 0x17E0 JUMP JUMPDEST PUSH1 0x40 MLOAD DUP1 SWAP2 SUB SWAP1 RETURN JUMPDEST CALLVALUE DUP1 ISZERO PUSH2 0x238 JUMPI PUSH1 0x0 DUP1 REVERT JUMPDEST POP PUSH2 0x253 PUSH1 0x4 DUP1 CALLDATASIZE SUB DUP2 ADD SWAP1 PUSH2 0x24E SWAP2 SWAP1 PUSH2 0x16EA JUMP JUMPDEST PUSH2 0x778 JUMP JUMPDEST STOP JUMPDEST CALLVALUE DUP1 ISZERO PUSH2 0x261 JUMPI PUSH1 0x0 DUP1 REVERT JUMPDEST POP PUSH2 0x26A PUSH2 0x7FB JUMP JUMPDEST PUSH1 0x40 MLOAD PUSH2 0x277 SWAP2 SWAP1 PUSH2 0x181C JUMP JUMPDEST PUSH1 0x40 MLOAD DUP1 SWAP2 SUB SWAP1 RETURN JUMPDEST PUSH1 0x3 PUSH1 0x0 SWAP1 SLOAD SWAP1 PUSH2 0x100 EXP SWAP1 DIV PUSH20 0xFFFFFFFFFFFFFFFFFFFFFFFFFFFFFFFFFFFFFFFF AND DUP2 JUMP JUMPDEST PUSH1 0x0 PUSH1 0x3 PUSH1 0x0 SWAP1 SLOAD SWAP1 PUSH2 0x100 EXP SWAP1 DIV PUSH20 0xFFFFFFFFFFFFFFFFFFFFFFFFFFFFFFFFFFFFFFFF AND SWAP1 POP SWAP1 JUMP JUMPDEST PUSH1 0x60 PUSH1 0x4 PUSH1 0x0 DUP5 PUSH1 0xFF AND PUSH1 0xFF AND DUP2 MSTORE PUSH1 0x20 ADD SWAP1 DUP2 MSTORE PUSH1 0x20 ADD PUSH1 0x0 KECCAK256 PUSH1 0x0 DUP4 PUSH1 0xFF AND PUSH1 0xFF AND DUP2 MSTORE PUSH1 0x20 ADD SWAP1 DUP2 MSTORE PUSH1 0x20 ADD PUSH1 0x0 KECCAK256 DUP1 SLOAD DUP1 PUSH1 0x20 MUL PUSH1 0x20 ADD PUSH1 0x40 MLOAD SWAP1 DUP2 ADD PUSH1 0x40 MSTORE DUP1 SWAP3 SWAP2 SWAP1 DUP2 DUP2 MSTORE PUSH1 0x20 ADD DUP3 DUP1 SLOAD DUP1 ISZERO PUSH2 0x34C JUMPI PUSH1 0x20 MUL DUP3 ADD SWAP2 SWAP1 PUSH1 0x0 MSTORE PUSH1 0x20 PUSH1 0x0 KECCAK256 SWAP1 JUMPDEST DUP2 SLOAD DUP2 MSTORE PUSH1 0x20 ADD SWAP1 PUSH1 0x1 ADD SWAP1 DUP1 DUP4 GT PUSH2 0x338 JUMPI JUMPDEST POP POP POP POP POP SWAP1 POP SWAP3 SWAP2 POP POP JUMP JUMPDEST PUSH2 0x361 PUSH2 0x821 JUMP JUMPDEST DUP1 PUSH1 0x4 PUSH1 0x0 DUP6 PUSH1 0xFF AND PUSH1 0xFF AND DUP2 MSTORE PUSH1 0x20 ADD SWAP1 DUP2 MSTORE PUSH1 0x20 ADD PUSH1 0x0 KECCAK256 PUSH1 0x0 DUP5 PUSH1 0xFF AND PUSH1 0xFF AND DUP2 MSTORE PUSH1 0x20 ADD SWAP1 DUP2 MSTORE PUSH1 0x20 ADD PUSH1 0x0 KECCAK256 SWAP1 DUP1 MLOAD SWAP1 PUSH1 0x20 ADD SWAP1 PUSH2 0x3A5 SWAP3 SWAP2 SWAP1 PUSH2 0x1213 JUMP JUMPDEST POP POP POP POP JUMP JUMPDEST PUSH2 0x3B3 PUSH2 0x821 JUMP JUMPDEST PUSH2 0x3BD PUSH1 0x0 PUSH2 0x89F JUMP JUMPDEST JUMP JUMPDEST PUSH1 0x0 PUSH1 0x1 PUSH1 0x0 SWAP1 SLOAD SWAP1 PUSH2 0x100 EXP SWAP1 DIV PUSH20 0xFFFFFFFFFFFFFFFFFFFFFFFFFFFFFFFFFFFFFFFF AND SWAP1 POP SWAP1 JUMP JUMPDEST PUSH2 0x3F1 PUSH2 0x821 JUMP JUMPDEST DUP1 PUSH1 0x3 PUSH1 0x0 PUSH2 0x100 EXP DUP2 SLOAD DUP2 PUSH20 0xFFFFFFFFFFFFFFFFFFFFFFFFFFFFFFFFFFFFFFFF MUL NOT AND SWAP1 DUP4 PUSH20 0xFFFFFFFFFFFFFFFFFFFFFFFFFFFFFFFFFFFFFFFF AND MUL OR SWAP1 SSTORE POP POP JUMP JUMPDEST PUSH2 0x43D PUSH2 0x965 JUMP JUMPDEST PUSH1 0x0 CALLER SWAP1 POP PUSH1 0x0 DUP3 DUP7 PUSH2 0x450 SWAP2 SWAP1 PUSH2 0x1866 JUMP JUMPDEST SWAP1 POP PUSH2 0x47E DUP2 PUSH1 0x2 PUSH1 0x0 SWAP1 SLOAD SWAP1 PUSH2 0x100 EXP SWAP1 DIV PUSH20 0xFFFFFFFFFFFFFFFFFFFFFFFFFFFFFFFFFFFFFFFF AND PUSH2 0x9B4 JUMP JUMPDEST PUSH2 0x4EF DUP3 PUSH1 0x3 PUSH1 0x0 SWAP1 SLOAD SWAP1 PUSH2 0x100 EXP SWAP1 DIV PUSH20 0xFFFFFFFFFFFFFFFFFFFFFFFFFFFFFFFFFFFFFFFF AND DUP4 PUSH1 0x2 PUSH1 0x0 SWAP1 SLOAD SWAP1 PUSH2 0x100 EXP SWAP1 DIV PUSH20 0xFFFFFFFFFFFFFFFFFFFFFFFFFFFFFFFFFFFFFFFF AND PUSH20 0xFFFFFFFFFFFFFFFFFFFFFFFFFFFFFFFFFFFFFFFF AND PUSH2 0xB5A SWAP1 SWAP4 SWAP3 SWAP2 SWAP1 PUSH4 0xFFFFFFFF AND JUMP JUMPDEST PUSH1 0x40 MLOAD DUP1 PUSH1 0xA0 ADD PUSH1 0x40 MSTORE DUP1 DUP4 PUSH20 0xFFFFFFFFFFFFFFFFFFFFFFFFFFFFFFFFFFFFFFFF AND DUP2 MSTORE PUSH1 0x20 ADD DUP8 DUP2 MSTORE PUSH1 0x20 ADD DUP5 DUP2 MSTORE PUSH1 0x20 ADD DUP6 PUSH1 0xFF AND DUP2 MSTORE PUSH1 0x20 ADD DUP7 PUSH1 0xFF AND DUP2 MSTORE POP PUSH1 0x5 PUSH1 0x0 DUP5 PUSH20 0xFFFFFFFFFFFFFFFFFFFFFFFFFFFFFFFFFFFFFFFF AND PUSH20 0xFFFFFFFFFFFFFFFFFFFFFFFFFFFFFFFFFFFFFFFF AND DUP2 MSTORE PUSH1 0x20 ADD SWAP1 DUP2 MSTORE PUSH1 0x20 ADD PUSH1 0x0 KECCAK256 PUSH1 0x0 DUP3 ADD MLOAD DUP2 PUSH1 0x0 ADD PUSH1 0x0 PUSH2 0x100 EXP DUP2 SLOAD DUP2 PUSH20 0xFFFFFFFFFFFFFFFFFFFFFFFFFFFFFFFFFFFFFFFF MUL NOT AND SWAP1 DUP4 PUSH20 0xFFFFFFFFFFFFFFFFFFFFFFFFFFFFFFFFFFFFFFFF AND MUL OR SWAP1 SSTORE POP PUSH1 0x20 DUP3 ADD MLOAD DUP2 PUSH1 0x1 ADD SSTORE PUSH1 0x40 DUP3 ADD MLOAD DUP2 PUSH1 0x2 ADD SSTORE PUSH1 0x60 DUP3 ADD MLOAD DUP2 PUSH1 0x3 ADD PUSH1 0x0 PUSH2 0x100 EXP DUP2 SLOAD DUP2 PUSH1 0xFF MUL NOT AND SWAP1 DUP4 PUSH1 0xFF AND MUL OR SWAP1 SSTORE POP PUSH1 0x80 DUP3 ADD MLOAD DUP2 PUSH1 0x3 ADD PUSH1 0x1 PUSH2 0x100 EXP DUP2 SLOAD DUP2 PUSH1 0xFF MUL NOT AND SWAP1 DUP4 PUSH1 0xFF AND MUL OR SWAP1 SSTORE POP SWAP1 POP POP PUSH1 0x0 PUSH1 0x5 PUSH1 0x0 DUP5 PUSH20 0xFFFFFFFFFFFFFFFFFFFFFFFFFFFFFFFFFFFFFFFF AND PUSH20 0xFFFFFFFFFFFFFFFFFFFFFFFFFFFFFFFFFFFFFFFF AND DUP2 MSTORE PUSH1 0x20 ADD SWAP1 DUP2 MSTORE PUSH1 0x20 ADD PUSH1 0x0 KECCAK256 PUSH1 0x40 MLOAD DUP1 PUSH1 0xA0 ADD PUSH1 0x40 MSTORE SWAP1 DUP2 PUSH1 0x0 DUP3 ADD PUSH1 0x0 SWAP1 SLOAD SWAP1 PUSH2 0x100 EXP SWAP1 DIV PUSH20 0xFFFFFFFFFFFFFFFFFFFFFFFFFFFFFFFFFFFFFFFF AND PUSH20 0xFFFFFFFFFFFFFFFFFFFFFFFFFFFFFFFFFFFFFFFF AND PUSH20 0xFFFFFFFFFFFFFFFFFFFFFFFFFFFFFFFFFFFFFFFF AND DUP2 MSTORE PUSH1 0x20 ADD PUSH1 0x1 DUP3 ADD SLOAD DUP2 MSTORE PUSH1 0x20 ADD PUSH1 0x2 DUP3 ADD SLOAD DUP2 MSTORE PUSH1 0x20 ADD PUSH1 0x3 DUP3 ADD PUSH1 0x0 SWAP1 SLOAD SWAP1 PUSH2 0x100 EXP SWAP1 DIV PUSH1 0xFF AND PUSH1 0xFF AND PUSH1 0xFF AND DUP2 MSTORE PUSH1 0x20 ADD PUSH1 0x3 DUP3 ADD PUSH1 0x1 SWAP1 SLOAD SWAP1 PUSH2 0x100 EXP SWAP1 DIV PUSH1 0xFF AND PUSH1 0xFF AND PUSH1 0xFF AND DUP2 MSTORE POP POP SWAP1 POP PUSH1 0x0 PUSH2 0x70D PUSH2 0xBE3 JUMP JUMPDEST SWAP1 POP PUSH1 0x0 PUSH2 0x71B DUP4 DUP4 PUSH2 0xC31 JUMP JUMPDEST SWAP1 POP PUSH2 0x727 DUP4 DUP3 PUSH2 0xE4F JUMP JUMPDEST POP POP POP POP POP PUSH2 0x734 PUSH2 0xF6C JUMP JUMPDEST POP POP POP POP JUMP JUMPDEST PUSH1 0x4 PUSH1 0x20 MSTORE DUP3 PUSH1 0x0 MSTORE PUSH1 0x40 PUSH1 0x0 KECCAK256 PUSH1 0x20 MSTORE DUP2 PUSH1 0x0 MSTORE PUSH1 0x40 PUSH1 0x0 KECCAK256 DUP2 DUP2 SLOAD DUP2 LT PUSH2 0x762 JUMPI PUSH1 0x0 DUP1 REVERT JUMPDEST SWAP1 PUSH1 0x0 MSTORE PUSH1 0x20 PUSH1 0x0 KECCAK256 ADD PUSH1 0x0 SWAP3 POP SWAP3 POP POP POP SLOAD DUP2 JUMP JUMPDEST PUSH2 0x780 PUSH2 0x821 JUMP JUMPDEST PUSH1 0x0 PUSH20 0xFFFFFFFFFFFFFFFFFFFFFFFFFFFFFFFFFFFFFFFF AND DUP2 PUSH20 0xFFFFFFFFFFFFFFFFFFFFFFFFFFFFFFFFFFFFFFFF AND SUB PUSH2 0x7EF JUMPI PUSH1 0x40 MLOAD PUSH32 0x8C379A000000000000000000000000000000000000000000000000000000000 DUP2 MSTORE PUSH1 0x4 ADD PUSH2 0x7E6 SWAP1 PUSH2 0x192B JUMP JUMPDEST PUSH1 0x40 MLOAD DUP1 SWAP2 SUB SWAP1 REVERT JUMPDEST PUSH2 0x7F8 DUP2 PUSH2 0x89F JUMP JUMPDEST POP JUMP JUMPDEST PUSH1 0x2 PUSH1 0x0 SWAP1 SLOAD SWAP1 PUSH2 0x100 EXP SWAP1 DIV PUSH20 0xFFFFFFFFFFFFFFFFFFFFFFFFFFFFFFFFFFFFFFFF AND DUP2 JUMP JUMPDEST PUSH2 0x829 PUSH2 0xF76 JUMP JUMPDEST PUSH20 0xFFFFFFFFFFFFFFFFFFFFFFFFFFFFFFFFFFFFFFFF AND PUSH2 0x847 PUSH2 0x3BF JUMP JUMPDEST PUSH20 0xFFFFFFFFFFFFFFFFFFFFFFFFFFFFFFFFFFFFFFFF AND EQ PUSH2 0x89D JUMPI PUSH1 0x40 MLOAD PUSH32 0x8C379A000000000000000000000000000000000000000000000000000000000 DUP2 MSTORE PUSH1 0x4 ADD PUSH2 0x894 SWAP1 PUSH2 0x1997 JUMP JUMPDEST PUSH1 0x40 MLOAD DUP1 SWAP2 SUB SWAP1 REVERT JUMPDEST JUMP JUMPDEST PUSH1 0x0 PUSH1 0x1 PUSH1 0x0 SWAP1 SLOAD SWAP1 PUSH2 0x100 EXP SWAP1 DIV PUSH20 0xFFFFFFFFFFFFFFFFFFFFFFFFFFFFFFFFFFFFFFFF AND SWAP1 POP DUP2 PUSH1 0x1 PUSH1 0x0 PUSH2 0x100 EXP DUP2 SLOAD DUP2 PUSH20 0xFFFFFFFFFFFFFFFFFFFFFFFFFFFFFFFFFFFFFFFF MUL NOT AND SWAP1 DUP4 PUSH20 0xFFFFFFFFFFFFFFFFFFFFFFFFFFFFFFFFFFFFFFFF AND MUL OR SWAP1 SSTORE POP DUP2 PUSH20 0xFFFFFFFFFFFFFFFFFFFFFFFFFFFFFFFFFFFFFFFF AND DUP2 PUSH20 0xFFFFFFFFFFFFFFFFFFFFFFFFFFFFFFFFFFFFFFFF AND PUSH32 0x8BE0079C531659141344CD1FD0A4F28419497F9722A3DAAFE3B4186F6B6457E0 PUSH1 0x40 MLOAD PUSH1 0x40 MLOAD DUP1 SWAP2 SUB SWAP1 LOG3 POP POP JUMP JUMPDEST PUSH1 0x2 PUSH1 0x0 SLOAD SUB PUSH2 0x9AA JUMPI PUSH1 0x40 MLOAD PUSH32 0x8C379A000000000000000000000000000000000000000000000000000000000 DUP2 MSTORE PUSH1 0x4 ADD PUSH2 0x9A1 SWAP1 PUSH2 0x1A03 JUMP JUMPDEST PUSH1 0x40 MLOAD DUP1 SWAP2 SUB SWAP1 REVERT JUMPDEST PUSH1 0x2 PUSH1 0x0 DUP2 SWAP1 SSTORE POP JUMP JUMPDEST PUSH1 0x0 DUP1 PUSH20 0xFFFFFFFFFFFFFFFFFFFFFFFFFFFFFFFFFFFFFFFF AND DUP3 PUSH20 0xFFFFFFFFFFFFFFFFFFFFFFFFFFFFFFFFFFFFFFFF AND SUB PUSH2 0xA2A JUMPI PUSH1 0x3 PUSH1 0x0 SWAP1 SLOAD SWAP1 PUSH2 0x100 EXP SWAP1 DIV PUSH20 0xFFFFFFFFFFFFFFFFFFFFFFFFFFFFFFFFFFFFFFFF AND PUSH20 0xFFFFFFFFFFFFFFFFFFFFFFFFFFFFFFFFFFFFFFFF AND BALANCE SWAP1 POP PUSH2 0xAEB JUMP JUMPDEST PUSH1 0x2 PUSH1 0x0 SWAP1 SLOAD SWAP1 PUSH2 0x100 EXP SWAP1 DIV PUSH20 0xFFFFFFFFFFFFFFFFFFFFFFFFFFFFFFFFFFFFFFFF AND PUSH20 0xFFFFFFFFFFFFFFFFFFFFFFFFFFFFFFFFFFFFFFFF AND PUSH4 0x70A08231 PUSH1 0x3 PUSH1 0x0 SWAP1 SLOAD SWAP1 PUSH2 0x100 EXP SWAP1 DIV PUSH20 0xFFFFFFFFFFFFFFFFFFFFFFFFFFFFFFFFFFFFFFFF AND PUSH1 0x40 MLOAD DUP3 PUSH4 0xFFFFFFFF AND PUSH1 0xE0 SHL DUP2 MSTORE PUSH1 0x4 ADD PUSH2 0xAA7 SWAP2 SWAP1 PUSH2 0x1338 JUMP JUMPDEST PUSH1 0x20 PUSH1 0x40 MLOAD DUP1 DUP4 SUB DUP2 DUP7 GAS STATICCALL ISZERO DUP1 ISZERO PUSH2 0xAC4 JUMPI RETURNDATASIZE PUSH1 0x0 DUP1 RETURNDATACOPY RETURNDATASIZE PUSH1 0x0 REVERT JUMPDEST POP POP POP POP PUSH1 0x40 MLOAD RETURNDATASIZE PUSH1 0x1F NOT PUSH1 0x1F DUP3 ADD AND DUP3 ADD DUP1 PUSH1 0x40 MSTORE POP DUP2 ADD SWAP1 PUSH2 0xAE8 SWAP2 SWAP1 PUSH2 0x1A38 JUMP JUMPDEST SWAP1 POP JUMPDEST PUSH1 0x0 PUSH4 0x5F5E100 PUSH3 0x10C8E0 DUP4 PUSH2 0xB01 SWAP2 SWAP1 PUSH2 0x1866 JUMP JUMPDEST PUSH2 0xB0B SWAP2 SWAP1 PUSH2 0x1A94 JUMP JUMPDEST SWAP1 POP DUP1 DUP5 GT ISZERO PUSH2 0xB54 JUMPI DUP4 DUP2 PUSH1 0x40 MLOAD PUSH32 0xD53662AA00000000000000000000000000000000000000000000000000000000 DUP2 MSTORE PUSH1 0x4 ADD PUSH2 0xB4B SWAP3 SWAP2 SWAP1 PUSH2 0x1AC5 JUMP JUMPDEST PUSH1 0x40 MLOAD DUP1 SWAP2 SUB SWAP1 REVERT JUMPDEST POP POP POP POP JUMP JUMPDEST PUSH2 0xBDD DUP5 PUSH4 0x23B872DD PUSH1 0xE0 SHL DUP6 DUP6 DUP6 PUSH1 0x40 MLOAD PUSH1 0x24 ADD PUSH2 0xB7B SWAP4 SWAP3 SWAP2 SWAP1 PUSH2 0x1AEE JUMP JUMPDEST PUSH1 0x40 MLOAD PUSH1 0x20 DUP2 DUP4 SUB SUB DUP2 MSTORE SWAP1 PUSH1 0x40 MSTORE SWAP1 PUSH28 0xFFFFFFFFFFFFFFFFFFFFFFFFFFFFFFFFFFFFFFFFFFFFFFFFFFFFFFFF NOT AND PUSH1 0x20 DUP3 ADD DUP1 MLOAD PUSH28 0xFFFFFFFFFFFFFFFFFFFFFFFFFFFFFFFFFFFFFFFFFFFFFFFFFFFFFFFF DUP4 DUP2 DUP4 AND OR DUP4 MSTORE POP POP POP POP PUSH2 0xF7E JUMP JUMPDEST POP POP POP POP JUMP JUMPDEST PUSH1 0x0 DUP1 PUSH4 0x1BC3673 SWAP1 POP DUP1 TIMESTAMP PUSH1 0x1 NUMBER PUSH2 0xBFC SWAP2 SWAP1 PUSH2 0x1B25 JUMP JUMPDEST BLOCKHASH NUMBER BLOCKHASH PUSH1 0x40 MLOAD PUSH1 0x20 ADD PUSH2 0xC12 SWAP5 SWAP4 SWAP3 SWAP2 SWAP1 PUSH2 0x1BA5 JUMP JUMPDEST PUSH1 0x40 MLOAD PUSH1 0x20 DUP2 DUP4 SUB SUB DUP2 MSTORE SWAP1 PUSH1 0x40 MSTORE DUP1 MLOAD SWAP1 PUSH1 0x20 ADD KECCAK256 PUSH1 0x0 SHR SWAP2 POP POP SWAP1 JUMP JUMPDEST PUSH1 0x0 DUP3 PUSH1 0x0 ADD MLOAD PUSH20 0xFFFFFFFFFFFFFFFFFFFFFFFFFFFFFFFFFFFFFFFF AND PUSH32 0xDA45FBCC0675876B69425067E2270E043B4E659C96B814A29DD19FBA183A4D0F DUP5 PUSH1 0x20 ADD MLOAD DUP6 PUSH1 0x40 ADD MLOAD DUP7 PUSH1 0x20 ADD MLOAD PUSH2 0xC88 SWAP2 SWAP1 PUSH2 0x1866 JUMP JUMPDEST DUP7 PUSH1 0x60 ADD MLOAD DUP8 PUSH1 0x80 ADD MLOAD PUSH1 0x40 MLOAD PUSH2 0xCA2 SWAP5 SWAP4 SWAP3 SWAP2 SWAP1 PUSH2 0x1C02 JUMP JUMPDEST PUSH1 0x40 MLOAD DUP1 SWAP2 SUB SWAP1 LOG2 PUSH1 0x0 DUP1 PUSH1 0x0 JUMPDEST DUP6 PUSH1 0x40 ADD MLOAD DUP2 LT ISZERO PUSH2 0xE43 JUMPI PUSH1 0x0 SWAP2 POP PUSH1 0x0 JUMPDEST DUP7 PUSH1 0x60 ADD MLOAD PUSH1 0xFF AND DUP2 PUSH1 0xFF AND LT ISZERO PUSH2 0xD08 JUMPI PUSH1 0x0 PUSH1 0x1 DUP8 AND EQ PUSH2 0xCEF JUMPI DUP3 DUP1 PUSH2 0xCEB SWAP1 PUSH2 0x1C47 JUMP JUMPDEST SWAP4 POP POP JUMPDEST PUSH1 0x1 DUP7 SWAP1 POP POP DUP1 DUP1 PUSH2 0xD00 SWAP1 PUSH2 0x1C8F JUMP JUMPDEST SWAP2 POP POP PUSH2 0xCC3 JUMP JUMPDEST POP DUP6 PUSH1 0x0 ADD MLOAD PUSH20 0xFFFFFFFFFFFFFFFFFFFFFFFFFFFFFFFFFFFFFFFF AND PUSH32 0xCEDA1A8E77C06CD2A7ED4645FB240C21C5CA4D5D88C2466DC5C3095A033E4D08 DUP3 DUP5 PUSH1 0x4 PUSH1 0x0 DUP12 PUSH1 0x80 ADD MLOAD PUSH1 0xFF AND PUSH1 0xFF AND DUP2 MSTORE PUSH1 0x20 ADD SWAP1 DUP2 MSTORE PUSH1 0x20 ADD PUSH1 0x0 KECCAK256 PUSH1 0x0 DUP12 PUSH1 0x60 ADD MLOAD PUSH1 0xFF AND PUSH1 0xFF AND DUP2 MSTORE PUSH1 0x20 ADD SWAP1 DUP2 MSTORE PUSH1 0x20 ADD PUSH1 0x0 KECCAK256 DUP7 DUP2 SLOAD DUP2 LT PUSH2 0xD91 JUMPI PUSH2 0xD90 PUSH2 0x1CB8 JUMP JUMPDEST JUMPDEST SWAP1 PUSH1 0x0 MSTORE PUSH1 0x20 PUSH1 0x0 KECCAK256 ADD SLOAD PUSH1 0x40 MLOAD PUSH2 0xDAB SWAP4 SWAP3 SWAP2 SWAP1 PUSH2 0x1CE7 JUMP JUMPDEST PUSH1 0x40 MLOAD DUP1 SWAP2 SUB SWAP1 LOG2 PUSH1 0xA PUSH1 0x4 PUSH1 0x0 DUP9 PUSH1 0x80 ADD MLOAD PUSH1 0xFF AND PUSH1 0xFF AND DUP2 MSTORE PUSH1 0x20 ADD SWAP1 DUP2 MSTORE PUSH1 0x20 ADD PUSH1 0x0 KECCAK256 PUSH1 0x0 DUP9 PUSH1 0x60 ADD MLOAD PUSH1 0xFF AND PUSH1 0xFF AND DUP2 MSTORE PUSH1 0x20 ADD SWAP1 DUP2 MSTORE PUSH1 0x20 ADD PUSH1 0x0 KECCAK256 DUP4 DUP2 SLOAD DUP2 LT PUSH2 0xDFF JUMPI PUSH2 0xDFE PUSH2 0x1CB8 JUMP JUMPDEST JUMPDEST SWAP1 PUSH1 0x0 MSTORE PUSH1 0x20 PUSH1 0x0 KECCAK256 ADD SLOAD DUP8 PUSH1 0x20 ADD MLOAD PUSH2 0xE19 SWAP2 SWAP1 PUSH2 0x1866 JUMP JUMPDEST PUSH2 0xE23 SWAP2 SWAP1 PUSH2 0x1A94 JUMP JUMPDEST DUP4 PUSH2 0xE2E SWAP2 SWAP1 PUSH2 0x1D1E JUMP JUMPDEST SWAP3 POP DUP1 DUP1 PUSH2 0xE3B SWAP1 PUSH2 0x1C47 JUMP JUMPDEST SWAP2 POP POP PUSH2 0xCB0 JUMP JUMPDEST POP DUP2 SWAP3 POP POP POP SWAP3 SWAP2 POP POP JUMP JUMPDEST PUSH1 0x0 DUP2 GT ISZERO PUSH2 0xF10 JUMPI PUSH1 0x3 PUSH1 0x0 SWAP1 SLOAD SWAP1 PUSH2 0x100 EXP SWAP1 DIV PUSH20 0xFFFFFFFFFFFFFFFFFFFFFFFFFFFFFFFFFFFFFFFF AND PUSH20 0xFFFFFFFFFFFFFFFFFFFFFFFFFFFFFFFFFFFFFFFF AND PUSH4 0x3D189BF1 PUSH1 0x2 PUSH1 0x0 SWAP1 SLOAD SWAP1 PUSH2 0x100 EXP SWAP1 DIV PUSH20 0xFFFFFFFFFFFFFFFFFFFFFFFFFFFFFFFFFFFFFFFF AND DUP5 PUSH1 0x0 ADD MLOAD DUP5 PUSH1 0x40 MLOAD DUP5 PUSH4 0xFFFFFFFF AND PUSH1 0xE0 SHL DUP2 MSTORE PUSH1 0x4 ADD PUSH2 0xEDD SWAP4 SWAP3 SWAP2 SWAP1 PUSH2 0x1AEE JUMP JUMPDEST PUSH1 0x0 PUSH1 0x40 MLOAD DUP1 DUP4 SUB DUP2 PUSH1 0x0 DUP8 DUP1 EXTCODESIZE ISZERO DUP1 ISZERO PUSH2 0xEF7 JUMPI PUSH1 0x0 DUP1 REVERT JUMPDEST POP GAS CALL ISZERO DUP1 ISZERO PUSH2 0xF0B JUMPI RETURNDATASIZE PUSH1 0x0 DUP1 RETURNDATACOPY RETURNDATASIZE PUSH1 0x0 REVERT JUMPDEST POP POP POP POP JUMPDEST DUP2 PUSH1 0x0 ADD MLOAD PUSH20 0xFFFFFFFFFFFFFFFFFFFFFFFFFFFFFFFFFFFFFFFF AND PUSH32 0x30A7BC34A1CCF47A3014E216E1434062F3C0DD1AF0A83A8A79B19B4B740F4C4C DUP4 PUSH1 0x20 ADD MLOAD DUP4 PUSH1 0x40 MLOAD PUSH2 0xF60 SWAP3 SWAP2 SWAP1 PUSH2 0x1AC5 JUMP JUMPDEST PUSH1 0x40 MLOAD DUP1 SWAP2 SUB SWAP1 LOG2 POP POP JUMP JUMPDEST PUSH1 0x1 PUSH1 0x0 DUP2 SWAP1 SSTORE POP JUMP JUMPDEST PUSH1 0x0 CALLER SWAP1 POP SWAP1 JUMP JUMPDEST PUSH1 0x0 PUSH2 0xFE0 DUP3 PUSH1 0x40 MLOAD DUP1 PUSH1 0x40 ADD PUSH1 0x40 MSTORE DUP1 PUSH1 0x20 DUP2 MSTORE PUSH1 0x20 ADD PUSH32 0x5361666545524332303A206C6F772D6C6576656C2063616C6C206661696C6564 DUP2 MSTORE POP DUP6 PUSH20 0xFFFFFFFFFFFFFFFFFFFFFFFFFFFFFFFFFFFFFFFF AND PUSH2 0x1046 SWAP1 SWAP3 SWAP2 SWAP1 PUSH4 0xFFFFFFFF AND JUMP JUMPDEST SWAP1 POP PUSH1 0x0 DUP2 MLOAD EQ DUP1 PUSH2 0x1002 JUMPI POP DUP1 DUP1 PUSH1 0x20 ADD SWAP1 MLOAD DUP2 ADD SWAP1 PUSH2 0x1001 SWAP2 SWAP1 PUSH2 0x1D8A JUMP JUMPDEST JUMPDEST PUSH2 0x1041 JUMPI PUSH1 0x40 MLOAD PUSH32 0x8C379A000000000000000000000000000000000000000000000000000000000 DUP2 MSTORE PUSH1 0x4 ADD PUSH2 0x1038 SWAP1 PUSH2 0x1E29 JUMP JUMPDEST PUSH1 0x40 MLOAD DUP1 SWAP2 SUB SWAP1 REVERT JUMPDEST POP POP POP JUMP JUMPDEST PUSH1 0x60 PUSH2 0x1055 DUP5 DUP5 PUSH1 0x0 DUP6 PUSH2 0x105E JUMP JUMPDEST SWAP1 POP SWAP4 SWAP3 POP POP POP JUMP JUMPDEST PUSH1 0x60 DUP3 SELFBALANCE LT ISZERO PUSH2 0x10A3 JUMPI PUSH1 0x40 MLOAD PUSH32 0x8C379A000000000000000000000000000000000000000000000000000000000 DUP2 MSTORE PUSH1 0x4 ADD PUSH2 0x109A SWAP1 PUSH2 0x1EBB JUMP JUMPDEST PUSH1 0x40 MLOAD DUP1 SWAP2 SUB SWAP1 REVERT JUMPDEST PUSH1 0x0 DUP1 DUP7 PUSH20 0xFFFFFFFFFFFFFFFFFFFFFFFFFFFFFFFFFFFFFFFF AND DUP6 DUP8 PUSH1 0x40 MLOAD PUSH2 0x10CC SWAP2 SWAP1 PUSH2 0x1F4C JUMP JUMPDEST PUSH1 0x0 PUSH1 0x40 MLOAD DUP1 DUP4 SUB DUP2 DUP6 DUP8 GAS CALL SWAP3 POP POP POP RETURNDATASIZE DUP1 PUSH1 0x0 DUP2 EQ PUSH2 0x1109 JUMPI PUSH1 0x40 MLOAD SWAP2 POP PUSH1 0x1F NOT PUSH1 0x3F RETURNDATASIZE ADD AND DUP3 ADD PUSH1 0x40 MSTORE RETURNDATASIZE DUP3 MSTORE RETURNDATASIZE PUSH1 0x0 PUSH1 0x20 DUP5 ADD RETURNDATACOPY PUSH2 0x110E JUMP JUMPDEST PUSH1 0x60 SWAP2 POP JUMPDEST POP SWAP2 POP SWAP2 POP PUSH2 0x111F DUP8 DUP4 DUP4 DUP8 PUSH2 0x112B JUMP JUMPDEST SWAP3 POP POP POP SWAP5 SWAP4 POP POP POP POP JUMP JUMPDEST PUSH1 0x60 DUP4 ISZERO PUSH2 0x118D JUMPI PUSH1 0x0 DUP4 MLOAD SUB PUSH2 0x1185 JUMPI PUSH2 0x1145 DUP6 PUSH2 0x11A0 JUMP JUMPDEST PUSH2 0x1184 JUMPI PUSH1 0x40 MLOAD PUSH32 0x8C379A000000000000000000000000000000000000000000000000000000000 DUP2 MSTORE PUSH1 0x4 ADD PUSH2 0x117B SWAP1 PUSH2 0x1FAF JUMP JUMPDEST PUSH1 0x40 MLOAD DUP1 SWAP2 SUB SWAP1 REVERT JUMPDEST JUMPDEST DUP3 SWAP1 POP PUSH2 0x1198 JUMP JUMPDEST PUSH2 0x1197 DUP4 DUP4 PUSH2 0x11C3 JUMP JUMPDEST JUMPDEST SWAP5 SWAP4 POP POP POP POP JUMP JUMPDEST PUSH1 0x0 DUP1 DUP3 PUSH20 0xFFFFFFFFFFFFFFFFFFFFFFFFFFFFFFFFFFFFFFFF AND EXTCODESIZE GT SWAP1 POP SWAP2 SWAP1 POP JUMP JUMPDEST PUSH1 0x0 DUP3 MLOAD GT ISZERO PUSH2 0x11D6 JUMPI DUP2 MLOAD DUP1 DUP4 PUSH1 0x20 ADD REVERT JUMPDEST DUP1 PUSH1 0x40 MLOAD PUSH32 0x8C379A000000000000000000000000000000000000000000000000000000000 DUP2 MSTORE PUSH1 0x4 ADD PUSH2 0x120A SWAP2 SWAP1 PUSH2 0x2013 JUMP JUMPDEST PUSH1 0x40 MLOAD DUP1 SWAP2 SUB SWAP1 REVERT JUMPDEST DUP3 DUP1 SLOAD DUP3 DUP3 SSTORE SWAP1 PUSH1 0x0 MSTORE PUSH1 0x20 PUSH1 0x0 KECCAK256 SWAP1 DUP2 ADD SWAP3 DUP3 ISZERO PUSH2 0x124F JUMPI SWAP2 PUSH1 0x20 MUL DUP3 ADD JUMPDEST DUP3 DUP2 GT ISZERO PUSH2 0x124E JUMPI DUP3 MLOAD DUP3 SSTORE SWAP2 PUSH1 0x20 ADD SWAP2 SWAP1 PUSH1 0x1 ADD SWAP1 PUSH2 0x1233 JUMP JUMPDEST JUMPDEST POP SWAP1 POP PUSH2 0x125C SWAP2 SWAP1 PUSH2 0x1260 JUMP JUMPDEST POP SWAP1 JUMP JUMPDEST JUMPDEST DUP1 DUP3 GT ISZERO PUSH2 0x1279 JUMPI PUSH1 0x0 DUP2 PUSH1 0x0 SWAP1 SSTORE POP PUSH1 0x1 ADD PUSH2 0x1261 JUMP JUMPDEST POP SWAP1 JUMP JUMPDEST PUSH1 0x0 PUSH20 0xFFFFFFFFFFFFFFFFFFFFFFFFFFFFFFFFFFFFFFFF DUP3 AND SWAP1 POP SWAP2 SWAP1 POP JUMP JUMPDEST PUSH1 0x0 DUP2 SWAP1 POP SWAP2 SWAP1 POP JUMP JUMPDEST PUSH1 0x0 PUSH2 0x12C2 PUSH2 0x12BD PUSH2 0x12B8 DUP5 PUSH2 0x127D JUMP JUMPDEST PUSH2 0x129D JUMP JUMPDEST PUSH2 0x127D JUMP JUMPDEST SWAP1 POP SWAP2 SWAP1 POP JUMP JUMPDEST PUSH1 0x0 PUSH2 0x12D4 DUP3 PUSH2 0x12A7 JUMP JUMPDEST SWAP1 POP SWAP2 SWAP1 POP JUMP JUMPDEST PUSH1 0x0 PUSH2 0x12E6 DUP3 PUSH2 0x12C9 JUMP JUMPDEST SWAP1 POP SWAP2 SWAP1 POP JUMP JUMPDEST PUSH2 0x12F6 DUP2 PUSH2 0x12DB JUMP JUMPDEST DUP3 MSTORE POP POP JUMP JUMPDEST PUSH1 0x0 PUSH1 0x20 DUP3 ADD SWAP1 POP PUSH2 0x1311 PUSH1 0x0 DUP4 ADD DUP5 PUSH2 0x12ED JUMP JUMPDEST SWAP3 SWAP2 POP POP JUMP JUMPDEST PUSH1 0x0 PUSH2 0x1322 DUP3 PUSH2 0x127D JUMP JUMPDEST SWAP1 POP SWAP2 SWAP1 POP JUMP JUMPDEST PUSH2 0x1332 DUP2 PUSH2 0x1317 JUMP JUMPDEST DUP3 MSTORE POP POP JUMP JUMPDEST PUSH1 0x0 PUSH1 0x20 DUP3 ADD SWAP1 POP PUSH2 0x134D PUSH1 0x0 DUP4 ADD DUP5 PUSH2 0x1329 JUMP JUMPDEST SWAP3 SWAP2 POP POP JUMP JUMPDEST PUSH1 0x0 PUSH1 0x40 MLOAD SWAP1 POP SWAP1 JUMP JUMPDEST PUSH1 0x0 DUP1 REVERT JUMPDEST PUSH1 0x0 DUP1 REVERT JUMPDEST PUSH1 0x0 PUSH1 0xFF DUP3 AND SWAP1 POP SWAP2 SWAP1 POP JUMP JUMPDEST PUSH2 0x137D DUP2 PUSH2 0x1367 JUMP JUMPDEST DUP2 EQ PUSH2 0x1388 JUMPI PUSH1 0x0 DUP1 REVERT JUMPDEST POP JUMP JUMPDEST PUSH1 0x0 DUP2 CALLDATALOAD SWAP1 POP PUSH2 0x139A DUP2 PUSH2 0x1374 JUMP JUMPDEST SWAP3 SWAP2 POP POP JUMP JUMPDEST PUSH1 0x0 DUP1 PUSH1 0x40 DUP4 DUP6 SUB SLT ISZERO PUSH2 0x13B7 JUMPI PUSH2 0x13B6 PUSH2 0x135D JUMP JUMPDEST JUMPDEST PUSH1 0x0 PUSH2 0x13C5 DUP6 DUP3 DUP7 ADD PUSH2 0x138B JUMP JUMPDEST SWAP3 POP POP PUSH1 0x20 PUSH2 0x13D6 DUP6 DUP3 DUP7 ADD PUSH2 0x138B JUMP JUMPDEST SWAP2 POP POP SWAP3 POP SWAP3 SWAP1 POP JUMP JUMPDEST PUSH1 0x0 DUP2 MLOAD SWAP1 POP SWAP2 SWAP1 POP JUMP JUMPDEST PUSH1 0x0 DUP3 DUP3 MSTORE PUSH1 0x20 DUP3 ADD SWAP1 POP SWAP3 SWAP2 POP POP JUMP JUMPDEST PUSH1 0x0 DUP2 SWAP1 POP PUSH1 0x20 DUP3 ADD SWAP1 POP SWAP2 SWAP1 POP JUMP JUMPDEST PUSH1 0x0 DUP2 SWAP1 POP SWAP2 SWAP1 POP JUMP JUMPDEST PUSH2 0x141F DUP2 PUSH2 0x140C JUMP JUMPDEST DUP3 MSTORE POP POP JUMP JUMPDEST PUSH1 0x0 PUSH2 0x1431 DUP4 DUP4 PUSH2 0x1416 JUMP JUMPDEST PUSH1 0x20 DUP4 ADD SWAP1 POP SWAP3 SWAP2 POP POP JUMP JUMPDEST PUSH1 0x0 PUSH1 0x20 DUP3 ADD SWAP1 POP SWAP2 SWAP1 POP JUMP JUMPDEST PUSH1 0x0 PUSH2 0x1455 DUP3 PUSH2 0x13E0 JUMP JUMPDEST PUSH2 0x145F DUP2 DUP6 PUSH2 0x13EB JUMP JUMPDEST SWAP4 POP PUSH2 0x146A DUP4 PUSH2 0x13FC JUMP JUMPDEST DUP1 PUSH1 0x0 JUMPDEST DUP4 DUP2 LT ISZERO PUSH2 0x149B JUMPI DUP2 MLOAD PUSH2 0x1482 DUP9 DUP3 PUSH2 0x1425 JUMP JUMPDEST SWAP8 POP PUSH2 0x148D DUP4 PUSH2 0x143D JUMP JUMPDEST SWAP3 POP POP PUSH1 0x1 DUP2 ADD SWAP1 POP PUSH2 0x146E JUMP JUMPDEST POP DUP6 SWAP4 POP POP POP POP SWAP3 SWAP2 POP POP JUMP JUMPDEST PUSH1 0x0 PUSH1 0x20 DUP3 ADD SWAP1 POP DUP2 DUP2 SUB PUSH1 0x0 DUP4 ADD MSTORE PUSH2 0x14C2 DUP2 DUP5 PUSH2 0x144A JUMP JUMPDEST SWAP1 POP SWAP3 SWAP2 POP POP JUMP JUMPDEST PUSH1 0x0 DUP1 REVERT JUMPDEST PUSH1 0x0 PUSH1 0x1F NOT PUSH1 0x1F DUP4 ADD AND SWAP1 POP SWAP2 SWAP1 POP JUMP JUMPDEST PUSH32 0x4E487B7100000000000000000000000000000000000000000000000000000000 PUSH1 0x0 MSTORE PUSH1 0x41 PUSH1 0x4 MSTORE PUSH1 0x24 PUSH1 0x0 REVERT JUMPDEST PUSH2 0x1518 DUP3 PUSH2 0x14CF JUMP JUMPDEST DUP2 ADD DUP2 DUP2 LT PUSH8 0xFFFFFFFFFFFFFFFF DUP3 GT OR ISZERO PUSH2 0x1537 JUMPI PUSH2 0x1536 PUSH2 0x14E0 JUMP JUMPDEST JUMPDEST DUP1 PUSH1 0x40 MSTORE POP POP POP JUMP JUMPDEST PUSH1 0x0 PUSH2 0x154A PUSH2 0x1353 JUMP JUMPDEST SWAP1 POP PUSH2 0x1556 DUP3 DUP3 PUSH2 0x150F JUMP JUMPDEST SWAP2 SWAP1 POP JUMP JUMPDEST PUSH1 0x0 PUSH8 0xFFFFFFFFFFFFFFFF DUP3 GT ISZERO PUSH2 0x1576 JUMPI PUSH2 0x1575 PUSH2 0x14E0 JUMP JUMPDEST JUMPDEST PUSH1 0x20 DUP3 MUL SWAP1 POP PUSH1 0x20 DUP2 ADD SWAP1 POP SWAP2 SWAP1 POP JUMP JUMPDEST PUSH1 0x0 DUP1 REVERT JUMPDEST PUSH2 0x1595 DUP2 PUSH2 0x140C JUMP JUMPDEST DUP2 EQ PUSH2 0x15A0 JUMPI PUSH1 0x0 DUP1 REVERT JUMPDEST POP JUMP JUMPDEST PUSH1 0x0 DUP2 CALLDATALOAD SWAP1 POP PUSH2 0x15B2 DUP2 PUSH2 0x158C JUMP JUMPDEST SWAP3 SWAP2 POP POP JUMP JUMPDEST PUSH1 0x0 PUSH2 0x15CB PUSH2 0x15C6 DUP5 PUSH2 0x155B JUMP JUMPDEST PUSH2 0x1540 JUMP JUMPDEST SWAP1 POP DUP1 DUP4 DUP3 MSTORE PUSH1 0x20 DUP3 ADD SWAP1 POP PUSH1 0x20 DUP5 MUL DUP4 ADD DUP6 DUP2 GT ISZERO PUSH2 0x15EE JUMPI PUSH2 0x15ED PUSH2 0x1587 JUMP JUMPDEST JUMPDEST DUP4 JUMPDEST DUP2 DUP2 LT ISZERO PUSH2 0x1617 JUMPI DUP1 PUSH2 0x1603 DUP9 DUP3 PUSH2 0x15A3 JUMP JUMPDEST DUP5 MSTORE PUSH1 0x20 DUP5 ADD SWAP4 POP POP PUSH1 0x20 DUP2 ADD SWAP1 POP PUSH2 0x15F0 JUMP JUMPDEST POP POP POP SWAP4 SWAP3 POP POP POP JUMP JUMPDEST PUSH1 0x0 DUP3 PUSH1 0x1F DUP4 ADD SLT PUSH2 0x1636 JUMPI PUSH2 0x1635 PUSH2 0x14CA JUMP JUMPDEST JUMPDEST DUP2 CALLDATALOAD PUSH2 0x1646 DUP5 DUP3 PUSH1 0x20 DUP7 ADD PUSH2 0x15B8 JUMP JUMPDEST SWAP2 POP POP SWAP3 SWAP2 POP POP JUMP JUMPDEST PUSH1 0x0 DUP1 PUSH1 0x0 PUSH1 0x60 DUP5 DUP7 SUB SLT ISZERO PUSH2 0x1668 JUMPI PUSH2 0x1667 PUSH2 0x135D JUMP JUMPDEST JUMPDEST PUSH1 0x0 PUSH2 0x1676 DUP7 DUP3 DUP8 ADD PUSH2 0x138B JUMP JUMPDEST SWAP4 POP POP PUSH1 0x20 PUSH2 0x1687 DUP7 DUP3 DUP8 ADD PUSH2 0x138B JUMP JUMPDEST SWAP3 POP POP PUSH1 0x40 DUP5 ADD CALLDATALOAD PUSH8 0xFFFFFFFFFFFFFFFF DUP2 GT ISZERO PUSH2 0x16A8 JUMPI PUSH2 0x16A7 PUSH2 0x1362 JUMP JUMPDEST JUMPDEST PUSH2 0x16B4 DUP7 DUP3 DUP8 ADD PUSH2 0x1621 JUMP JUMPDEST SWAP2 POP POP SWAP3 POP SWAP3 POP SWAP3 JUMP JUMPDEST PUSH2 0x16C7 DUP2 PUSH2 0x1317 JUMP JUMPDEST DUP2 EQ PUSH2 0x16D2 JUMPI PUSH1 0x0 DUP1 REVERT JUMPDEST POP JUMP JUMPDEST PUSH1 0x0 DUP2 CALLDATALOAD SWAP1 POP PUSH2 0x16E4 DUP2 PUSH2 0x16BE JUMP JUMPDEST SWAP3 SWAP2 POP POP JUMP JUMPDEST PUSH1 0x0 PUSH1 0x20 DUP3 DUP5 SUB SLT ISZERO PUSH2 0x1700 JUMPI PUSH2 0x16FF PUSH2 0x135D JUMP JUMPDEST JUMPDEST PUSH1 0x0 PUSH2 0x170E DUP5 DUP3 DUP6 ADD PUSH2 0x16D5 JUMP JUMPDEST SWAP2 POP POP SWAP3 SWAP2 POP POP JUMP JUMPDEST PUSH1 0x0 DUP1 PUSH1 0x0 DUP1 PUSH1 0x80 DUP6 DUP8 SUB SLT ISZERO PUSH2 0x1731 JUMPI PUSH2 0x1730 PUSH2 0x135D JUMP JUMPDEST JUMPDEST PUSH1 0x0 PUSH2 0x173F DUP8 DUP3 DUP9 ADD PUSH2 0x15A3 JUMP JUMPDEST SWAP5 POP POP PUSH1 0x20 PUSH2 0x1750 DUP8 DUP3 DUP9 ADD PUSH2 0x138B JUMP JUMPDEST SWAP4 POP POP PUSH1 0x40 PUSH2 0x1761 DUP8 DUP3 DUP9 ADD PUSH2 0x138B JUMP JUMPDEST SWAP3 POP POP PUSH1 0x60 PUSH2 0x1772 DUP8 DUP3 DUP9 ADD PUSH2 0x15A3 JUMP JUMPDEST SWAP2 POP POP SWAP3 SWAP6 SWAP2 SWAP5 POP SWAP3 POP JUMP JUMPDEST PUSH1 0x0 DUP1 PUSH1 0x0 PUSH1 0x60 DUP5 DUP7 SUB SLT ISZERO PUSH2 0x1797 JUMPI PUSH2 0x1796 PUSH2 0x135D JUMP JUMPDEST JUMPDEST PUSH1 0x0 PUSH2 0x17A5 DUP7 DUP3 DUP8 ADD PUSH2 0x138B JUMP JUMPDEST SWAP4 POP POP PUSH1 0x20 PUSH2 0x17B6 DUP7 DUP3 DUP8 ADD PUSH2 0x138B JUMP JUMPDEST SWAP3 POP POP PUSH1 0x40 PUSH2 0x17C7 DUP7 DUP3 DUP8 ADD PUSH2 0x15A3 JUMP JUMPDEST SWAP2 POP POP SWAP3 POP SWAP3 POP SWAP3 JUMP JUMPDEST PUSH2 0x17DA DUP2 PUSH2 0x140C JUMP JUMPDEST DUP3 MSTORE POP POP JUMP JUMPDEST PUSH1 0x0 PUSH1 0x20 DUP3 ADD SWAP1 POP PUSH2 0x17F5 PUSH1 0x0 DUP4 ADD DUP5 PUSH2 0x17D1 JUMP JUMPDEST SWAP3 SWAP2 POP POP JUMP JUMPDEST PUSH1 0x0 PUSH2 0x1806 DUP3 PUSH2 0x12C9 JUMP JUMPDEST SWAP1 POP SWAP2 SWAP1 POP JUMP JUMPDEST PUSH2 0x1816 DUP2 PUSH2 0x17FB JUMP JUMPDEST DUP3 MSTORE POP POP JUMP JUMPDEST PUSH1 0x0 PUSH1 0x20 DUP3 ADD SWAP1 POP PUSH2 0x1831 PUSH1 0x0 DUP4 ADD DUP5 PUSH2 0x180D JUMP JUMPDEST SWAP3 SWAP2 POP POP JUMP JUMPDEST PUSH32 0x4E487B7100000000000000000000000000000000000000000000000000000000 PUSH1 0x0 MSTORE PUSH1 0x11 PUSH1 0x4 MSTORE PUSH1 0x24 PUSH1 0x0 REVERT JUMPDEST PUSH1 0x0 PUSH2 0x1871 DUP3 PUSH2 0x140C JUMP JUMPDEST SWAP2 POP PUSH2 0x187C DUP4 PUSH2 0x140C JUMP JUMPDEST SWAP3 POP DUP3 DUP3 MUL PUSH2 0x188A DUP2 PUSH2 0x140C JUMP JUMPDEST SWAP2 POP DUP3 DUP3 DIV DUP5 EQ DUP4 ISZERO OR PUSH2 0x18A1 JUMPI PUSH2 0x18A0 PUSH2 0x1837 JUMP JUMPDEST JUMPDEST POP SWAP3 SWAP2 POP POP JUMP JUMPDEST PUSH1 0x0 DUP3 DUP3 MSTORE PUSH1 0x20 DUP3 ADD SWAP1 POP SWAP3 SWAP2 POP POP JUMP JUMPDEST PUSH32 0x4F776E61626C653A206E6577206F776E657220697320746865207A65726F2061 PUSH1 0x0 DUP3 ADD MSTORE PUSH32 0x6464726573730000000000000000000000000000000000000000000000000000 PUSH1 0x20 DUP3 ADD MSTORE POP JUMP JUMPDEST PUSH1 0x0 PUSH2 0x1915 PUSH1 0x26 DUP4 PUSH2 0x18A8 JUMP JUMPDEST SWAP2 POP PUSH2 0x1920 DUP3 PUSH2 0x18B9 JUMP JUMPDEST PUSH1 0x40 DUP3 ADD SWAP1 POP SWAP2 SWAP1 POP JUMP JUMPDEST PUSH1 0x0 PUSH1 0x20 DUP3 ADD SWAP1 POP DUP2 DUP2 SUB PUSH1 0x0 DUP4 ADD MSTORE PUSH2 0x1944 DUP2 PUSH2 0x1908 JUMP JUMPDEST SWAP1 POP SWAP2 SWAP1 POP JUMP JUMPDEST PUSH32 0x4F776E61626C653A2063616C6C6572206973206E6F7420746865206F776E6572 PUSH1 0x0 DUP3 ADD MSTORE POP JUMP JUMPDEST PUSH1 0x0 PUSH2 0x1981 PUSH1 0x20 DUP4 PUSH2 0x18A8 JUMP JUMPDEST SWAP2 POP PUSH2 0x198C DUP3 PUSH2 0x194B JUMP JUMPDEST PUSH1 0x20 DUP3 ADD SWAP1 POP SWAP2 SWAP1 POP JUMP JUMPDEST PUSH1 0x0 PUSH1 0x20 DUP3 ADD SWAP1 POP DUP2 DUP2 SUB PUSH1 0x0 DUP4 ADD MSTORE PUSH2 0x19B0 DUP2 PUSH2 0x1974 JUMP JUMPDEST SWAP1 POP SWAP2 SWAP1 POP JUMP JUMPDEST PUSH32 0x5265656E7472616E637947756172643A207265656E7472616E742063616C6C00 PUSH1 0x0 DUP3 ADD MSTORE POP JUMP JUMPDEST PUSH1 0x0 PUSH2 0x19ED PUSH1 0x1F DUP4 PUSH2 0x18A8 JUMP JUMPDEST SWAP2 POP PUSH2 0x19F8 DUP3 PUSH2 0x19B7 JUMP JUMPDEST PUSH1 0x20 DUP3 ADD SWAP1 POP SWAP2 SWAP1 POP JUMP JUMPDEST PUSH1 0x0 PUSH1 0x20 DUP3 ADD SWAP1 POP DUP2 DUP2 SUB PUSH1 0x0 DUP4 ADD MSTORE PUSH2 0x1A1C DUP2 PUSH2 0x19E0 JUMP JUMPDEST SWAP1 POP SWAP2 SWAP1 POP JUMP JUMPDEST PUSH1 0x0 DUP2 MLOAD SWAP1 POP PUSH2 0x1A32 DUP2 PUSH2 0x158C JUMP JUMPDEST SWAP3 SWAP2 POP POP JUMP JUMPDEST PUSH1 0x0 PUSH1 0x20 DUP3 DUP5 SUB SLT ISZERO PUSH2 0x1A4E JUMPI PUSH2 0x1A4D PUSH2 0x135D JUMP JUMPDEST JUMPDEST PUSH1 0x0 PUSH2 0x1A5C DUP5 DUP3 DUP6 ADD PUSH2 0x1A23 JUMP JUMPDEST SWAP2 POP POP SWAP3 SWAP2 POP POP JUMP JUMPDEST PUSH32 0x4E487B7100000000000000000000000000000000000000000000000000000000 PUSH1 0x0 MSTORE PUSH1 0x12 PUSH1 0x4 MSTORE PUSH1 0x24 PUSH1 0x0 REVERT JUMPDEST PUSH1 0x0 PUSH2 0x1A9F DUP3 PUSH2 0x140C JUMP JUMPDEST SWAP2 POP PUSH2 0x1AAA DUP4 PUSH2 0x140C JUMP JUMPDEST SWAP3 POP DUP3 PUSH2 0x1ABA JUMPI PUSH2 0x1AB9 PUSH2 0x1A65 JUMP JUMPDEST JUMPDEST DUP3 DUP3 DIV SWAP1 POP SWAP3 SWAP2 POP POP JUMP JUMPDEST PUSH1 0x0 PUSH1 0x40 DUP3 ADD SWAP1 POP PUSH2 0x1ADA PUSH1 0x0 DUP4 ADD DUP6 PUSH2 0x17D1 JUMP JUMPDEST PUSH2 0x1AE7 PUSH1 0x20 DUP4 ADD DUP5 PUSH2 0x17D1 JUMP JUMPDEST SWAP4 SWAP3 POP POP POP JUMP JUMPDEST PUSH1 0x0 PUSH1 0x60 DUP3 ADD SWAP1 POP PUSH2 0x1B03 PUSH1 0x0 DUP4 ADD DUP7 PUSH2 0x1329 JUMP JUMPDEST PUSH2 0x1B10 PUSH1 0x20 DUP4 ADD DUP6 PUSH2 0x1329 JUMP JUMPDEST PUSH2 0x1B1D PUSH1 0x40 DUP4 ADD DUP5 PUSH2 0x17D1 JUMP JUMPDEST SWAP5 SWAP4 POP POP POP POP JUMP JUMPDEST PUSH1 0x0 PUSH2 0x1B30 DUP3 PUSH2 0x140C JUMP JUMPDEST SWAP2 POP PUSH2 0x1B3B DUP4 PUSH2 0x140C JUMP JUMPDEST SWAP3 POP DUP3 DUP3 SUB SWAP1 POP DUP2 DUP2 GT ISZERO PUSH2 0x1B53 JUMPI PUSH2 0x1B52 PUSH2 0x1837 JUMP JUMPDEST JUMPDEST SWAP3 SWAP2 POP POP JUMP JUMPDEST PUSH1 0x0 DUP2 SWAP1 POP SWAP2 SWAP1 POP JUMP JUMPDEST PUSH2 0x1B74 PUSH2 0x1B6F DUP3 PUSH2 0x140C JUMP JUMPDEST PUSH2 0x1B59 JUMP JUMPDEST DUP3 MSTORE POP POP JUMP JUMPDEST PUSH1 0x0 DUP2 SWAP1 POP SWAP2 SWAP1 POP JUMP JUMPDEST PUSH1 0x0 DUP2 SWAP1 POP SWAP2 SWAP1 POP JUMP JUMPDEST PUSH2 0x1B9F PUSH2 0x1B9A DUP3 PUSH2 0x1B7A JUMP JUMPDEST PUSH2 0x1B84 JUMP JUMPDEST DUP3 MSTORE POP POP JUMP JUMPDEST PUSH1 0x0 PUSH2 0x1BB1 DUP3 DUP8 PUSH2 0x1B63 JUMP JUMPDEST PUSH1 0x20 DUP3 ADD SWAP2 POP PUSH2 0x1BC1 DUP3 DUP7 PUSH2 0x1B63 JUMP JUMPDEST PUSH1 0x20 DUP3 ADD SWAP2 POP PUSH2 0x1BD1 DUP3 DUP6 PUSH2 0x1B8E JUMP JUMPDEST PUSH1 0x20 DUP3 ADD SWAP2 POP PUSH2 0x1BE1 DUP3 DUP5 PUSH2 0x1B8E JUMP JUMPDEST PUSH1 0x20 DUP3 ADD SWAP2 POP DUP2 SWAP1 POP SWAP6 SWAP5 POP POP POP POP POP JUMP JUMPDEST PUSH2 0x1BFC DUP2 PUSH2 0x1367 JUMP JUMPDEST DUP3 MSTORE POP POP JUMP JUMPDEST PUSH1 0x0 PUSH1 0x80 DUP3 ADD SWAP1 POP PUSH2 0x1C17 PUSH1 0x0 DUP4 ADD DUP8 PUSH2 0x17D1 JUMP JUMPDEST PUSH2 0x1C24 PUSH1 0x20 DUP4 ADD DUP7 PUSH2 0x17D1 JUMP JUMPDEST PUSH2 0x1C31 PUSH1 0x40 DUP4 ADD DUP6 PUSH2 0x1BF3 JUMP JUMPDEST PUSH2 0x1C3E PUSH1 0x60 DUP4 ADD DUP5 PUSH2 0x1BF3 JUMP JUMPDEST SWAP6 SWAP5 POP POP POP POP POP JUMP JUMPDEST PUSH1 0x0 PUSH2 0x1C52 DUP3 PUSH2 0x140C JUMP JUMPDEST SWAP2 POP PUSH32 0xFFFFFFFFFFFFFFFFFFFFFFFFFFFFFFFFFFFFFFFFFFFFFFFFFFFFFFFFFFFFFFFF DUP3 SUB PUSH2 0x1C84 JUMPI PUSH2 0x1C83 PUSH2 0x1837 JUMP JUMPDEST JUMPDEST PUSH1 0x1 DUP3 ADD SWAP1 POP SWAP2 SWAP1 POP JUMP JUMPDEST PUSH1 0x0 PUSH2 0x1C9A DUP3 PUSH2 0x1367 JUMP JUMPDEST SWAP2 POP PUSH1 0xFF DUP3 SUB PUSH2 0x1CAD JUMPI PUSH2 0x1CAC PUSH2 0x1837 JUMP JUMPDEST JUMPDEST PUSH1 0x1 DUP3 ADD SWAP1 POP SWAP2 SWAP1 POP JUMP JUMPDEST PUSH32 0x4E487B7100000000000000000000000000000000000000000000000000000000 PUSH1 0x0 MSTORE PUSH1 0x32 PUSH1 0x4 MSTORE PUSH1 0x24 PUSH1 0x0 REVERT JUMPDEST PUSH1 0x0 PUSH1 0x60 DUP3 ADD SWAP1 POP PUSH2 0x1CFC PUSH1 0x0 DUP4 ADD DUP7 PUSH2 0x17D1 JUMP JUMPDEST PUSH2 0x1D09 PUSH1 0x20 DUP4 ADD DUP6 PUSH2 0x17D1 JUMP JUMPDEST PUSH2 0x1D16 PUSH1 0x40 DUP4 ADD DUP5 PUSH2 0x17D1 JUMP JUMPDEST SWAP5 SWAP4 POP POP POP POP JUMP JUMPDEST PUSH1 0x0 PUSH2 0x1D29 DUP3 PUSH2 0x140C JUMP JUMPDEST SWAP2 POP PUSH2 0x1D34 DUP4 PUSH2 0x140C JUMP JUMPDEST SWAP3 POP DUP3 DUP3 ADD SWAP1 POP DUP1 DUP3 GT ISZERO PUSH2 0x1D4C JUMPI PUSH2 0x1D4B PUSH2 0x1837 JUMP JUMPDEST JUMPDEST SWAP3 SWAP2 POP POP JUMP JUMPDEST PUSH1 0x0 DUP2 ISZERO ISZERO SWAP1 POP SWAP2 SWAP1 POP JUMP JUMPDEST PUSH2 0x1D67 DUP2 PUSH2 0x1D52 JUMP JUMPDEST DUP2 EQ PUSH2 0x1D72 JUMPI PUSH1 0x0 DUP1 REVERT JUMPDEST POP JUMP JUMPDEST PUSH1 0x0 DUP2 MLOAD SWAP1 POP PUSH2 0x1D84 DUP2 PUSH2 0x1D5E JUMP JUMPDEST SWAP3 SWAP2 POP POP JUMP JUMPDEST PUSH1 0x0 PUSH1 0x20 DUP3 DUP5 SUB SLT ISZERO PUSH2 0x1DA0 JUMPI PUSH2 0x1D9F PUSH2 0x135D JUMP JUMPDEST JUMPDEST PUSH1 0x0 PUSH2 0x1DAE DUP5 DUP3 DUP6 ADD PUSH2 0x1D75 JUMP JUMPDEST SWAP2 POP POP SWAP3 SWAP2 POP POP JUMP JUMPDEST PUSH32 0x5361666545524332303A204552433230206F7065726174696F6E20646964206E PUSH1 0x0 DUP3 ADD MSTORE PUSH32 0x6F74207375636365656400000000000000000000000000000000000000000000 PUSH1 0x20 DUP3 ADD MSTORE POP JUMP JUMPDEST PUSH1 0x0 PUSH2 0x1E13 PUSH1 0x2A DUP4 PUSH2 0x18A8 JUMP JUMPDEST SWAP2 POP PUSH2 0x1E1E DUP3 PUSH2 0x1DB7 JUMP JUMPDEST PUSH1 0x40 DUP3 ADD SWAP1 POP SWAP2 SWAP1 POP JUMP JUMPDEST PUSH1 0x0 PUSH1 0x20 DUP3 ADD SWAP1 POP DUP2 DUP2 SUB PUSH1 0x0 DUP4 ADD MSTORE PUSH2 0x1E42 DUP2 PUSH2 0x1E06 JUMP JUMPDEST SWAP1 POP SWAP2 SWAP1 POP JUMP JUMPDEST PUSH32 0x416464726573733A20696E73756666696369656E742062616C616E636520666F PUSH1 0x0 DUP3 ADD MSTORE PUSH32 0x722063616C6C0000000000000000000000000000000000000000000000000000 PUSH1 0x20 DUP3 ADD MSTORE POP JUMP JUMPDEST PUSH1 0x0 PUSH2 0x1EA5 PUSH1 0x26 DUP4 PUSH2 0x18A8 JUMP JUMPDEST SWAP2 POP PUSH2 0x1EB0 DUP3 PUSH2 0x1E49 JUMP JUMPDEST PUSH1 0x40 DUP3 ADD SWAP1 POP SWAP2 SWAP1 POP JUMP JUMPDEST PUSH1 0x0 PUSH1 0x20 DUP3 ADD SWAP1 POP DUP2 DUP2 SUB PUSH1 0x0 DUP4 ADD MSTORE PUSH2 0x1ED4 DUP2 PUSH2 0x1E98 JUMP JUMPDEST SWAP1 POP SWAP2 SWAP1 POP JUMP JUMPDEST PUSH1 0x0 DUP2 MLOAD SWAP1 POP SWAP2 SWAP1 POP JUMP JUMPDEST PUSH1 0x0 DUP2 SWAP1 POP SWAP3 SWAP2 POP POP JUMP JUMPDEST PUSH1 0x0 JUMPDEST DUP4 DUP2 LT ISZERO PUSH2 0x1F0F JUMPI DUP1 DUP3 ADD MLOAD DUP2 DUP5 ADD MSTORE PUSH1 0x20 DUP2 ADD SWAP1 POP PUSH2 0x1EF4 JUMP JUMPDEST PUSH1 0x0 DUP5 DUP5 ADD MSTORE POP POP POP POP JUMP JUMPDEST PUSH1 0x0 PUSH2 0x1F26 DUP3 PUSH2 0x1EDB JUMP JUMPDEST PUSH2 0x1F30 DUP2 DUP6 PUSH2 0x1EE6 JUMP JUMPDEST SWAP4 POP PUSH2 0x1F40 DUP2 DUP6 PUSH1 0x20 DUP7 ADD PUSH2 0x1EF1 JUMP JUMPDEST DUP1 DUP5 ADD SWAP2 POP POP SWAP3 SWAP2 POP POP JUMP JUMPDEST PUSH1 0x0 PUSH2 0x1F58 DUP3 DUP5 PUSH2 0x1F1B JUMP JUMPDEST SWAP2 POP DUP2 SWAP1 POP SWAP3 SWAP2 POP POP JUMP JUMPDEST PUSH32 0x416464726573733A2063616C6C20746F206E6F6E2D636F6E7472616374000000 PUSH1 0x0 DUP3 ADD MSTORE POP JUMP JUMPDEST PUSH1 0x0 PUSH2 0x1F99 PUSH1 0x1D DUP4 PUSH2 0x18A8 JUMP JUMPDEST SWAP2 POP PUSH2 0x1FA4 DUP3 PUSH2 0x1F63 JUMP JUMPDEST PUSH1 0x20 DUP3 ADD SWAP1 POP SWAP2 SWAP1 POP JUMP JUMPDEST PUSH1 0x0 PUSH1 0x20 DUP3 ADD SWAP1 POP DUP2 DUP2 SUB PUSH1 0x0 DUP4 ADD MSTORE PUSH2 0x1FC8 DUP2 PUSH2 0x1F8C JUMP JUMPDEST SWAP1 POP SWAP2 SWAP1 POP JUMP JUMPDEST PUSH1 0x0 DUP2 MLOAD SWAP1 POP SWAP2 SWAP1 POP JUMP JUMPDEST PUSH1 0x0 PUSH2 0x1FE5 DUP3 PUSH2 0x1FCF JUMP JUMPDEST PUSH2 0x1FEF DUP2 DUP6 PUSH2 0x18A8 JUMP JUMPDEST SWAP4 POP PUSH2 0x1FFF DUP2 DUP6 PUSH1 0x20 DUP7 ADD PUSH2 0x1EF1 JUMP JUMPDEST PUSH2 0x2008 DUP2 PUSH2 0x14CF JUMP JUMPDEST DUP5 ADD SWAP2 POP POP SWAP3 SWAP2 POP POP JUMP JUMPDEST PUSH1 0x0 PUSH1 0x20 DUP3 ADD SWAP1 POP DUP2 DUP2 SUB PUSH1 0x0 DUP4 ADD MSTORE PUSH2 0x202D DUP2 DUP5 PUSH2 0x1FDA JUMP JUMPDEST SWAP1 POP SWAP3 SWAP2 POP POP JUMP INVALID LOG2 PUSH5 0x6970667358 0x22 SLT KECCAK256 SHL PUSH24 0xEB2EC3C965D512DA360A47B58B260F293509B9B0E9C1871C PUSH28 0x7B339170A364736F6C63430008110033000000000000000000000000 "},"methodIdentifiers":{"bankroll()":"0c657eb0","getBankroll()":"0d1fce42","getMultipliers(uint8,uint8)":"1dd87556","owner()":"8da5cb5b","play(uint256,uint8,uint8,uint256)":"ead64807","plinkoMultipliers(uint8,uint8,uint256)":"f1119faa","renounceOwnership()":"715018a6","setBankroll(address)":"bde8a93e","setMultipliers(uint8,uint8,uint256[])":"53bd90ca","token()":"fc0c546a","transferOwnership(address)":"f2fde38b"}}}}}