{
  "_format": "hh-sol-artifact-1",
  "contractName": "Plinko",
  "sourceName": "contracts/Plinko.sol",
  "abi": [
    {
      "inputs": [
        {
          "internalType": "contract IERC20",
          "name": "_token",
          "type": "address"
        }
      ],
      "stateMutability": "nonpayable",
      "type": "constructor"
    },
    {
      "inputs": [
        {
          "internalType": "uint256",
          "name": "wager",
          "type": "uint256"
        },
        {
          "internalType": "uint256",
          "name": "maxWager",
          "type": "uint256"
        }
      ],
      "name": "WagerAboveLimit",
      "type": "error"
    },
    {
      "anonymous": false,
      "inputs": [
        {
          "indexed": true,
          "internalType": "address",
          "name": "playerAddress",
          "type": "address"
        },
        {
          "indexed": false,
          "internalType": "uint256",
          "name": "ballNumber",
          "type": "uint256"
        },
        {
          "indexed": false,
          "internalType": "uint256",
          "name": "landingPosition",
          "type": "uint256"
        },
        {
          "indexed": false,
          "internalType": "uint256",
          "name": "multiplier",
          "type": "uint256"
        }
      ],
      "name": "Ball_Landed_Event",
      "type": "event"
    },
    {
      "anonymous": false,
      "inputs": [
        {
          "indexed": true,
          "internalType": "address",
          "name": "previousOwner",
          "type": "address"
        },
        {
          "indexed": true,
          "internalType": "address",
          "name": "newOwner",
          "type": "address"
        }
      ],
      "name": "OwnershipTransferred",
      "type": "event"
    },
    {
      "anonymous": false,
      "inputs": [
        {
          "indexed": true,
          "internalType": "address",
          "name": "playerAddress",
          "type": "address"
        },
        {
          "indexed": false,
          "internalType": "uint256",
          "name": "wager",
          "type": "uint256"
        },
        {
          "indexed": false,
          "internalType": "uint256",
          "name": "payout",
          "type": "uint256"
        }
      ],
      "name": "Plinko_Payout_Event",
      "type": "event"
    },
    {
      "anonymous": false,
      "inputs": [
        {
          "indexed": true,
          "internalType": "address",
          "name": "playerAddress",
          "type": "address"
        },
        {
          "indexed": false,
          "internalType": "uint256",
          "name": "wager",
          "type": "uint256"
        },
        {
          "indexed": false,
          "internalType": "uint256",
          "name": "totalWager",
          "type": "uint256"
        },
        {
          "indexed": false,
          "internalType": "uint8",
          "name": "numRows",
          "type": "uint8"
        },
        {
          "indexed": false,
          "internalType": "uint8",
          "name": "risk",
          "type": "uint8"
        }
      ],
      "name": "Plinko_Play_Event",
      "type": "event"
    },
    {
      "inputs": [],
      "name": "bankroll",
      "outputs": [
        {
          "internalType": "contract IBankroll",
          "name": "",
          "type": "address"
        }
      ],
      "stateMutability": "view",
      "type": "function"
    },
    {
      "inputs": [],
      "name": "getBankroll",
      "outputs": [
        {
          "internalType": "address",
          "name": "",
          "type": "address"
        }
      ],
      "stateMutability": "view",
      "type": "function"
    },
    {
      "inputs": [
        {
          "internalType": "uint8",
          "name": "risk",
          "type": "uint8"
        },
        {
          "internalType": "uint8",
          "name": "numRows",
          "type": "uint8"
        }
      ],
      "name": "getMultipliers",
      "outputs": [
        {
          "internalType": "uint256[]",
          "name": "multipliers",
          "type": "uint256[]"
        }
      ],
      "stateMutability": "view",
      "type": "function"
    },
    {
      "inputs": [],
      "name": "owner",
      "outputs": [
        {
          "internalType": "address",
          "name": "",
          "type": "address"
        }
      ],
      "stateMutability": "view",
      "type": "function"
    },
    {
      "inputs": [
        {
          "internalType": "uint256",
          "name": "wager",
          "type": "uint256"
        },
        {
          "internalType": "uint8",
          "name": "risk",
          "type": "uint8"
        },
        {
          "internalType": "uint8",
          "name": "numRows",
          "type": "uint8"
        },
        {
          "internalType": "uint256",
          "name": "multipleBets",
          "type": "uint256"
        }
      ],
      "name": "play",
      "outputs": [],
      "stateMutability": "payable",
      "type": "function"
    },
    {
      "inputs": [
        {
          "internalType": "uint8",
          "name": "",
          "type": "uint8"
        },
        {
          "internalType": "uint8",
          "name": "",
          "type": "uint8"
        },
        {
          "internalType": "uint256",
          "name": "",
          "type": "uint256"
        }
      ],
      "name": "plinkoMultipliers",
      "outputs": [
        {
          "internalType": "uint256",
          "name": "",
          "type": "uint256"
        }
      ],
      "stateMutability": "view",
      "type": "function"
    },
    {
      "inputs": [],
      "name": "renounceOwnership",
      "outputs": [],
      "stateMutability": "nonpayable",
      "type": "function"
    },
    {
      "inputs": [
        {
          "internalType": "address",
          "name": "_bankroll",
          "type": "address"
        }
      ],
      "name": "setBankroll",
      "outputs": [],
      "stateMutability": "nonpayable",
      "type": "function"
    },
    {
      "inputs": [
        {
          "internalType": "uint8",
          "name": "risk",
          "type": "uint8"
        },
        {
          "internalType": "uint8",
          "name": "numRows",
          "type": "uint8"
        },
        {
          "internalType": "uint256[]",
          "name": "multipliers",
          "type": "uint256[]"
        }
      ],
      "name": "setMultipliers",
      "outputs": [],
      "stateMutability": "nonpayable",
      "type": "function"
    },
    {
      "inputs": [],
      "name": "token",
      "outputs": [
        {
          "internalType": "contract IERC20",
          "name": "",
          "type": "address"
        }
      ],
      "stateMutability": "view",
      "type": "function"
    },
    {
      "inputs": [
        {
          "internalType": "address",
          "name": "newOwner",
          "type": "address"
        }
      ],
      "name": "transferOwnership",
      "outputs": [],
      "stateMutability": "nonpayable",
      "type": "function"
    },
    {
      "stateMutability": "payable",
      "type": "receive"
    }
  ],
  "bytecode": "0x60806040523480156200001157600080fd5b5060405162002322380380620023228339818101604052810190620000379190620001f3565b60016000819055506200005f62000053620000a760201b60201c565b620000af60201b60201c565b80600260006101000a81548173ffffffffffffffffffffffffffffffffffffffff021916908373ffffffffffffffffffffffffffffffffffffffff1602179055505062000225565b600033905090565b6000600160009054906101000a900473ffffffffffffffffffffffffffffffffffffffff16905081600160006101000a81548173ffffffffffffffffffffffffffffffffffffffff021916908373ffffffffffffffffffffffffffffffffffffffff1602179055508173ffffffffffffffffffffffffffffffffffffffff168173ffffffffffffffffffffffffffffffffffffffff167f8be0079c531659141344cd1fd0a4f28419497f9722a3daafe3b4186f6b6457e060405160405180910390a35050565b600080fd5b600073ffffffffffffffffffffffffffffffffffffffff82169050919050565b6000620001a7826200017a565b9050919050565b6000620001bb826200019a565b9050919050565b620001cd81620001ae565b8114620001d957600080fd5b50565b600081519050620001ed81620001c2565b92915050565b6000602082840312156200020c576200020b62000175565b5b60006200021c84828501620001dc565b91505092915050565b6120ed80620002356000396000f3fe6080604052600436106100a05760003560e01c80638da5cb5b116100645780638da5cb5b1461017f578063bde8a93e146101aa578063ead64807146101d3578063f1119faa146101ef578063f2fde38b1461022c578063fc0c546a14610255576100a7565b80630c657eb0146100ac5780630d1fce42146100d75780631dd875561461010257806353bd90ca1461013f578063715018a614610168576100a7565b366100a757005b600080fd5b3480156100b857600080fd5b506100c1610280565b6040516100ce919061137e565b60405180910390f35b3480156100e357600080fd5b506100ec6102a6565b6040516100f991906113ba565b60405180910390f35b34801561010e57600080fd5b5061012960048036038101906101249190611422565b6102d0565b604051610136919061152a565b60405180910390f35b34801561014b57600080fd5b50610166600480360381019061016191906116d1565b610359565b005b34801561017457600080fd5b5061017d6103ab565b005b34801561018b57600080fd5b506101946103bf565b6040516101a191906113ba565b60405180910390f35b3480156101b657600080fd5b506101d160048036038101906101cc919061176c565b6103e9565b005b6101ed60048036038101906101e89190611799565b610435565b005b3480156101fb57600080fd5b5061021660048036038101906102119190611800565b6107bc565b6040516102239190611862565b60405180910390f35b34801561023857600080fd5b50610253600480360381019061024e919061176c565b6107fa565b005b34801561026157600080fd5b5061026a61087d565b604051610277919061189e565b60405180910390f35b600360009054906101000a900473ffffffffffffffffffffffffffffffffffffffff1681565b6000600360009054906101000a900473ffffffffffffffffffffffffffffffffffffffff16905090565b6060600460008460ff1660ff16815260200190815260200160002060008360ff1660ff16815260200190815260200160002080548060200260200160405190810160405280929190818152602001828054801561034c57602002820191906000526020600020905b815481526020019060010190808311610338575b5050505050905092915050565b6103616108a3565b80600460008560ff1660ff16815260200190815260200160002060008460ff1660ff16815260200190815260200160002090805190602001906103a5929190611295565b50505050565b6103b36108a3565b6103bd6000610921565b565b6000600160009054906101000a900473ffffffffffffffffffffffffffffffffffffffff16905090565b6103f16108a3565b80600360006101000a81548173ffffffffffffffffffffffffffffffffffffffff021916908373ffffffffffffffffffffffffffffffffffffffff16021790555050565b61043d6109e7565b60003390506000828661045091906118e8565b905061047e81600260009054906101000a900473ffffffffffffffffffffffffffffffffffffffff16610a36565b6104ef82600360009054906101000a900473ffffffffffffffffffffffffffffffffffffffff1683600260009054906101000a900473ffffffffffffffffffffffffffffffffffffffff1673ffffffffffffffffffffffffffffffffffffffff16610bdc909392919063ffffffff16565b6040518060a001604052808373ffffffffffffffffffffffffffffffffffffffff1681526020018781526020018481526020018560ff1681526020018660ff16815250600560008473ffffffffffffffffffffffffffffffffffffffff1673ffffffffffffffffffffffffffffffffffffffff16815260200190815260200160002060008201518160000160006101000a81548173ffffffffffffffffffffffffffffffffffffffff021916908373ffffffffffffffffffffffffffffffffffffffff160217905550602082015181600101556040820151816002015560608201518160030160006101000a81548160ff021916908360ff16021790555060808201518160030160016101000a81548160ff021916908360ff1602179055509050506000600560008473ffffffffffffffffffffffffffffffffffffffff1673ffffffffffffffffffffffffffffffffffffffff1681526020019081526020016000206040518060a00160405290816000820160009054906101000a900473ffffffffffffffffffffffffffffffffffffffff1673ffffffffffffffffffffffffffffffffffffffff1673ffffffffffffffffffffffffffffffffffffffff16815260200160018201548152602001600282015481526020016003820160009054906101000a900460ff1660ff1660ff1681526020016003820160019054906101000a900460ff1660ff1660ff16815250509050600061070d610c65565b9050600061071b8383610cb3565b90506107278382610ed1565b600360009054906101000a900473ffffffffffffffffffffffffffffffffffffffff1673ffffffffffffffffffffffffffffffffffffffff166311f30fa26040518163ffffffff1660e01b8152600401600060405180830381600087803b15801561079157600080fd5b505af11580156107a5573d6000803e3d6000fd5b5050505050505050506107b6610fee565b50505050565b600460205282600052604060002060205281600052604060002081815481106107e457600080fd5b9060005260206000200160009250925050505481565b6108026108a3565b600073ffffffffffffffffffffffffffffffffffffffff168173ffffffffffffffffffffffffffffffffffffffff1603610871576040517f08c379a0000000000000000000000000000000000000000000000000000000008152600401610868906119ad565b60405180910390fd5b61087a81610921565b50565b600260009054906101000a900473ffffffffffffffffffffffffffffffffffffffff1681565b6108ab610ff8565b73ffffffffffffffffffffffffffffffffffffffff166108c96103bf565b73ffffffffffffffffffffffffffffffffffffffff161461091f576040517f08c379a000000000000000000000000000000000000000000000000000000000815260040161091690611a19565b60405180910390fd5b565b6000600160009054906101000a900473ffffffffffffffffffffffffffffffffffffffff16905081600160006101000a81548173ffffffffffffffffffffffffffffffffffffffff021916908373ffffffffffffffffffffffffffffffffffffffff1602179055508173ffffffffffffffffffffffffffffffffffffffff168173ffffffffffffffffffffffffffffffffffffffff167f8be0079c531659141344cd1fd0a4f28419497f9722a3daafe3b4186f6b6457e060405160405180910390a35050565b600260005403610a2c576040517f08c379a0000000000000000000000000000000000000000000000000000000008152600401610a2390611a85565b60405180910390fd5b6002600081905550565b60008073ffffffffffffffffffffffffffffffffffffffff168273ffffffffffffffffffffffffffffffffffffffff1603610aac57600360009054906101000a900473ffffffffffffffffffffffffffffffffffffffff1673ffffffffffffffffffffffffffffffffffffffff16319050610b6d565b600260009054906101000a900473ffffffffffffffffffffffffffffffffffffffff1673ffffffffffffffffffffffffffffffffffffffff166370a08231600360009054906101000a900473ffffffffffffffffffffffffffffffffffffffff166040518263ffffffff1660e01b8152600401610b2991906113ba565b602060405180830381865afa158015610b46573d6000803e3d6000fd5b505050506040513d601f19601f82011682018060405250810190610b6a9190611aba565b90505b60006305f5e1006210c8e083610b8391906118e8565b610b8d9190611b16565b905080841115610bd65783816040517fd53662aa000000000000000000000000000000000000000000000000000000008152600401610bcd929190611b47565b60405180910390fd5b50505050565b610c5f846323b872dd60e01b858585604051602401610bfd93929190611b70565b604051602081830303815290604052907bffffffffffffffffffffffffffffffffffffffffffffffffffffffff19166020820180517bffffffffffffffffffffffffffffffffffffffffffffffffffffffff8381831617835250505050611000565b50505050565b6000806301bc367390508042600143610c7e9190611ba7565b404340604051602001610c949493929190611c27565b6040516020818303038152906040528051906020012060001c91505090565b6000826000015173ffffffffffffffffffffffffffffffffffffffff167fda45fbcc0675876b69425067e2270e043b4e659c96b814a29dd19fba183a4d0f846020015185604001518660200151610d0a91906118e8565b86606001518760800151604051610d249493929190611c84565b60405180910390a260008060005b8560400151811015610ec5576000915060005b866060015160ff168160ff161015610d8a5760006001871614610d71578280610d6d90611cc9565b9350505b6001869050508080610d8290611d11565b915050610d45565b50856000015173ffffffffffffffffffffffffffffffffffffffff167fceda1a8e77c06cd2a7ed4645fb240c21c5ca4d5d88c2466dc5c3095a033e4d088284600460008b6080015160ff1660ff16815260200190815260200160002060008b6060015160ff1660ff1681526020019081526020016000208681548110610e1357610e12611d3a565b5b9060005260206000200154604051610e2d93929190611d69565b60405180910390a2600a60046000886080015160ff1660ff1681526020019081526020016000206000886060015160ff1660ff1681526020019081526020016000208381548110610e8157610e80611d3a565b5b90600052602060002001548760200151610e9b91906118e8565b610ea59190611b16565b83610eb09190611da0565b92508080610ebd90611cc9565b915050610d32565b50819250505092915050565b6000811115610f9257600360009054906101000a900473ffffffffffffffffffffffffffffffffffffffff1673ffffffffffffffffffffffffffffffffffffffff16633d189bf1600260009054906101000a900473ffffffffffffffffffffffffffffffffffffffff168460000151846040518463ffffffff1660e01b8152600401610f5f93929190611b70565b600060405180830381600087803b158015610f7957600080fd5b505af1158015610f8d573d6000803e3d6000fd5b505050505b816000015173ffffffffffffffffffffffffffffffffffffffff167f30a7bc34a1ccf47a3014e216e1434062f3c0dd1af0a83a8a79b19b4b740f4c4c836020015183604051610fe2929190611b47565b60405180910390a25050565b6001600081905550565b600033905090565b6000611062826040518060400160405280602081526020017f5361666545524332303a206c6f772d6c6576656c2063616c6c206661696c65648152508573ffffffffffffffffffffffffffffffffffffffff166110c89092919063ffffffff16565b90506000815114806110845750808060200190518101906110839190611e0c565b5b6110c3576040517f08c379a00000000000000000000000000000000000000000000000000000000081526004016110ba90611eab565b60405180910390fd5b505050565b60606110d784846000856110e0565b90509392505050565b606082471015611125576040517f08c379a000000000000000000000000000000000000000000000000000000000815260040161111c90611f3d565b60405180910390fd5b6000808673ffffffffffffffffffffffffffffffffffffffff16858760405161114e9190611fce565b60006040518083038185875af1925050503d806000811461118b576040519150601f19603f3d011682016040523d82523d6000602084013e611190565b606091505b50915091506111a1878383876111ad565b92505050949350505050565b6060831561120f576000835103611207576111c785611222565b611206576040517f08c379a00000000000000000000000000000000000000000000000000000000081526004016111fd90612031565b60405180910390fd5b5b82905061121a565b6112198383611245565b5b949350505050565b6000808273ffffffffffffffffffffffffffffffffffffffff163b119050919050565b6000825111156112585781518083602001fd5b806040517f08c379a000000000000000000000000000000000000000000000000000000000815260040161128c9190612095565b60405180910390fd5b8280548282559060005260206000209081019282156112d1579160200282015b828111156112d05782518255916020019190600101906112b5565b5b5090506112de91906112e2565b5090565b5b808211156112fb5760008160009055506001016112e3565b5090565b600073ffffffffffffffffffffffffffffffffffffffff82169050919050565b6000819050919050565b600061134461133f61133a846112ff565b61131f565b6112ff565b9050919050565b600061135682611329565b9050919050565b60006113688261134b565b9050919050565b6113788161135d565b82525050565b6000602082019050611393600083018461136f565b92915050565b60006113a4826112ff565b9050919050565b6113b481611399565b82525050565b60006020820190506113cf60008301846113ab565b92915050565b6000604051905090565b600080fd5b600080fd5b600060ff82169050919050565b6113ff816113e9565b811461140a57600080fd5b50565b60008135905061141c816113f6565b92915050565b60008060408385031215611439576114386113df565b5b60006114478582860161140d565b92505060206114588582860161140d565b9150509250929050565b600081519050919050565b600082825260208201905092915050565b6000819050602082019050919050565b6000819050919050565b6114a18161148e565b82525050565b60006114b38383611498565b60208301905092915050565b6000602082019050919050565b60006114d782611462565b6114e1818561146d565b93506114ec8361147e565b8060005b8381101561151d57815161150488826114a7565b975061150f836114bf565b9250506001810190506114f0565b5085935050505092915050565b6000602082019050818103600083015261154481846114cc565b905092915050565b600080fd5b6000601f19601f8301169050919050565b7f4e487b7100000000000000000000000000000000000000000000000000000000600052604160045260246000fd5b61159a82611551565b810181811067ffffffffffffffff821117156115b9576115b8611562565b5b80604052505050565b60006115cc6113d5565b90506115d88282611591565b919050565b600067ffffffffffffffff8211156115f8576115f7611562565b5b602082029050602081019050919050565b600080fd5b6116178161148e565b811461162257600080fd5b50565b6000813590506116348161160e565b92915050565b600061164d611648846115dd565b6115c2565b905080838252602082019050602084028301858111156116705761166f611609565b5b835b8181101561169957806116858882611625565b845260208401935050602081019050611672565b5050509392505050565b600082601f8301126116b8576116b761154c565b5b81356116c884826020860161163a565b91505092915050565b6000806000606084860312156116ea576116e96113df565b5b60006116f88682870161140d565b93505060206117098682870161140d565b925050604084013567ffffffffffffffff81111561172a576117296113e4565b5b611736868287016116a3565b9150509250925092565b61174981611399565b811461175457600080fd5b50565b60008135905061176681611740565b92915050565b600060208284031215611782576117816113df565b5b600061179084828501611757565b91505092915050565b600080600080608085870312156117b3576117b26113df565b5b60006117c187828801611625565b94505060206117d28782880161140d565b93505060406117e38782880161140d565b92505060606117f487828801611625565b91505092959194509250565b600080600060608486031215611819576118186113df565b5b60006118278682870161140d565b93505060206118388682870161140d565b925050604061184986828701611625565b9150509250925092565b61185c8161148e565b82525050565b60006020820190506118776000830184611853565b92915050565b60006118888261134b565b9050919050565b6118988161187d565b82525050565b60006020820190506118b3600083018461188f565b92915050565b7f4e487b7100000000000000000000000000000000000000000000000000000000600052601160045260246000fd5b60006118f38261148e565b91506118fe8361148e565b925082820261190c8161148e565b91508282048414831517611923576119226118b9565b5b5092915050565b600082825260208201905092915050565b7f4f776e61626c653a206e6577206f776e657220697320746865207a65726f206160008201527f6464726573730000000000000000000000000000000000000000000000000000602082015250565b600061199760268361192a565b91506119a28261193b565b604082019050919050565b600060208201905081810360008301526119c68161198a565b9050919050565b7f4f776e61626c653a2063616c6c6572206973206e6f7420746865206f776e6572600082015250565b6000611a0360208361192a565b9150611a0e826119cd565b602082019050919050565b60006020820190508181036000830152611a32816119f6565b9050919050565b7f5265656e7472616e637947756172643a207265656e7472616e742063616c6c00600082015250565b6000611a6f601f8361192a565b9150611a7a82611a39565b602082019050919050565b60006020820190508181036000830152611a9e81611a62565b9050919050565b600081519050611ab48161160e565b92915050565b600060208284031215611ad057611acf6113df565b5b6000611ade84828501611aa5565b91505092915050565b7f4e487b7100000000000000000000000000000000000000000000000000000000600052601260045260246000fd5b6000611b218261148e565b9150611b2c8361148e565b925082611b3c57611b3b611ae7565b5b828204905092915050565b6000604082019050611b5c6000830185611853565b611b696020830184611853565b9392505050565b6000606082019050611b8560008301866113ab565b611b9260208301856113ab565b611b9f6040830184611853565b949350505050565b6000611bb28261148e565b9150611bbd8361148e565b9250828203905081811115611bd557611bd46118b9565b5b92915050565b6000819050919050565b611bf6611bf18261148e565b611bdb565b82525050565b6000819050919050565b6000819050919050565b611c21611c1c82611bfc565b611c06565b82525050565b6000611c338287611be5565b602082019150611c438286611be5565b602082019150611c538285611c10565b602082019150611c638284611c10565b60208201915081905095945050505050565b611c7e816113e9565b82525050565b6000608082019050611c996000830187611853565b611ca66020830186611853565b611cb36040830185611c75565b611cc06060830184611c75565b95945050505050565b6000611cd48261148e565b91507fffffffffffffffffffffffffffffffffffffffffffffffffffffffffffffffff8203611d0657611d056118b9565b5b600182019050919050565b6000611d1c826113e9565b915060ff8203611d2f57611d2e6118b9565b5b600182019050919050565b7f4e487b7100000000000000000000000000000000000000000000000000000000600052603260045260246000fd5b6000606082019050611d7e6000830186611853565b611d8b6020830185611853565b611d986040830184611853565b949350505050565b6000611dab8261148e565b9150611db68361148e565b9250828201905080821115611dce57611dcd6118b9565b5b92915050565b60008115159050919050565b611de981611dd4565b8114611df457600080fd5b50565b600081519050611e0681611de0565b92915050565b600060208284031215611e2257611e216113df565b5b6000611e3084828501611df7565b91505092915050565b7f5361666545524332303a204552433230206f7065726174696f6e20646964206e60008201527f6f74207375636365656400000000000000000000000000000000000000000000602082015250565b6000611e95602a8361192a565b9150611ea082611e39565b604082019050919050565b60006020820190508181036000830152611ec481611e88565b9050919050565b7f416464726573733a20696e73756666696369656e742062616c616e636520666f60008201527f722063616c6c0000000000000000000000000000000000000000000000000000602082015250565b6000611f2760268361192a565b9150611f3282611ecb565b604082019050919050565b60006020820190508181036000830152611f5681611f1a565b9050919050565b600081519050919050565b600081905092915050565b60005b83811015611f91578082015181840152602081019050611f76565b60008484015250505050565b6000611fa882611f5d565b611fb28185611f68565b9350611fc2818560208601611f73565b80840191505092915050565b6000611fda8284611f9d565b915081905092915050565b7f416464726573733a2063616c6c20746f206e6f6e2d636f6e7472616374000000600082015250565b600061201b601d8361192a565b915061202682611fe5565b602082019050919050565b6000602082019050818103600083015261204a8161200e565b9050919050565b600081519050919050565b600061206782612051565b612071818561192a565b9350612081818560208601611f73565b61208a81611551565b840191505092915050565b600060208201905081810360008301526120af818461205c565b90509291505056fea26469706673582212209e8a335b011463d3c547b144fbee1fbe3b89c344d25d698228fd7b56d12e4e4c64736f6c63430008110033",
  "linkReferences": {},
  "deployedLinkReferences": {}
}