{
  "_format": "hh-sol-artifact-1",
  "contractName": "Plinko",
  "sourceName": "contracts/Plinko.sol",
  "abi": [
    {
      "inputs": [
        {
          "internalType": "contract IERC20",
          "name": "_token",
          "type": "address"
        }
      ],
      "stateMutability": "nonpayable",
      "type": "constructor"
    },
    {
      "inputs": [
        {
          "internalType": "uint256",
          "name": "wager",
          "type": "uint256"
        },
        {
          "internalType": "uint256",
          "name": "maxWager",
          "type": "uint256"
        }
      ],
      "name": "WagerAboveLimit",
      "type": "error"
    },
    {
      "anonymous": false,
      "inputs": [
        {
          "indexed": true,
          "internalType": "address",
          "name": "playerAddress",
          "type": "address"
        },
        {
          "indexed": false,
          "internalType": "uint256",
          "name": "ballNumber",
          "type": "uint256"
        },
        {
          "indexed": false,
          "internalType": "uint256",
          "name": "landingPosition",
          "type": "uint256"
        },
        {
          "indexed": false,
          "internalType": "uint256",
          "name": "multiplier",
          "type": "uint256"
        }
      ],
      "name": "Ball_Landed_Event",
      "type": "event"
    },
    {
      "anonymous": false,
      "inputs": [
        {
          "indexed": true,
          "internalType": "address",
          "name": "previousOwner",
          "type": "address"
        },
        {
          "indexed": true,
          "internalType": "address",
          "name": "newOwner",
          "type": "address"
        }
      ],
      "name": "OwnershipTransferred",
      "type": "event"
    },
    {
      "anonymous": false,
      "inputs": [
        {
          "indexed": true,
          "internalType": "address",
          "name": "playerAddress",
          "type": "address"
        },
        {
          "indexed": false,
          "internalType": "uint256",
          "name": "wager",
          "type": "uint256"
        },
        {
          "indexed": false,
          "internalType": "uint256",
          "name": "payout",
          "type": "uint256"
        }
      ],
      "name": "Plinko_Payout_Event",
      "type": "event"
    },
    {
      "anonymous": false,
      "inputs": [
        {
          "indexed": true,
          "internalType": "address",
          "name": "playerAddress",
          "type": "address"
        },
        {
          "indexed": false,
          "internalType": "uint256",
          "name": "wager",
          "type": "uint256"
        },
        {
          "indexed": false,
          "internalType": "uint256",
          "name": "totalWager",
          "type": "uint256"
        },
        {
          "indexed": false,
          "internalType": "uint8",
          "name": "numRows",
          "type": "uint8"
        },
        {
          "indexed": false,
          "internalType": "uint8",
          "name": "risk",
          "type": "uint8"
        }
      ],
      "name": "Plinko_Play_Event",
      "type": "event"
    },
    {
      "inputs": [],
      "name": "bankroll",
      "outputs": [
        {
          "internalType": "contract IBankroll",
          "name": "",
          "type": "address"
        }
      ],
      "stateMutability": "view",
      "type": "function"
    },
    {
      "inputs": [],
      "name": "getBankroll",
      "outputs": [
        {
          "internalType": "address",
          "name": "",
          "type": "address"
        }
      ],
      "stateMutability": "view",
      "type": "function"
    },
    {
      "inputs": [
        {
          "internalType": "uint8",
          "name": "risk",
          "type": "uint8"
        },
        {
          "internalType": "uint8",
          "name": "numRows",
          "type": "uint8"
        }
      ],
      "name": "getMultipliers",
      "outputs": [
        {
          "internalType": "uint256[]",
          "name": "multipliers",
          "type": "uint256[]"
        }
      ],
      "stateMutability": "view",
      "type": "function"
    },
    {
      "inputs": [],
      "name": "owner",
      "outputs": [
        {
          "internalType": "address",
          "name": "",
          "type": "address"
        }
      ],
      "stateMutability": "view",
      "type": "function"
    },
    {
      "inputs": [
        {
          "internalType": "uint256",
          "name": "wager",
          "type": "uint256"
        },
        {
          "internalType": "uint8",
          "name": "risk",
          "type": "uint8"
        },
        {
          "internalType": "uint8",
          "name": "numRows",
          "type": "uint8"
        },
        {
          "internalType": "uint256",
          "name": "multipleBets",
          "type": "uint256"
        }
      ],
      "name": "play",
      "outputs": [],
      "stateMutability": "payable",
      "type": "function"
    },
    {
      "inputs": [
        {
          "internalType": "uint8",
          "name": "",
          "type": "uint8"
        },
        {
          "internalType": "uint8",
          "name": "",
          "type": "uint8"
        },
        {
          "internalType": "uint256",
          "name": "",
          "type": "uint256"
        }
      ],
      "name": "plinkoMultipliers",
      "outputs": [
        {
          "internalType": "uint256",
          "name": "",
          "type": "uint256"
        }
      ],
      "stateMutability": "view",
      "type": "function"
    },
    {
      "inputs": [],
      "name": "renounceOwnership",
      "outputs": [],
      "stateMutability": "nonpayable",
      "type": "function"
    },
    {
      "inputs": [
        {
          "internalType": "address",
          "name": "_bankroll",
          "type": "address"
        }
      ],
      "name": "setBankroll",
      "outputs": [],
      "stateMutability": "nonpayable",
      "type": "function"
    },
    {
      "inputs": [
        {
          "internalType": "uint8",
          "name": "risk",
          "type": "uint8"
        },
        {
          "internalType": "uint8",
          "name": "numRows",
          "type": "uint8"
        },
        {
          "internalType": "uint256[]",
          "name": "multipliers",
          "type": "uint256[]"
        }
      ],
      "name": "setMultipliers",
      "outputs": [],
      "stateMutability": "nonpayable",
      "type": "function"
    },
    {
      "inputs": [],
      "name": "token",
      "outputs": [
        {
          "internalType": "contract IERC20",
          "name": "",
          "type": "address"
        }
      ],
      "stateMutability": "view",
      "type": "function"
    },
    {
      "inputs": [
        {
          "internalType": "address",
          "name": "newOwner",
          "type": "address"
        }
      ],
      "name": "transferOwnership",
      "outputs": [],
      "stateMutability": "nonpayable",
      "type": "function"
    },
    {
      "stateMutability": "payable",
      "type": "receive"
    }
  ],
  "bytecode": "0x60806040523480156200001157600080fd5b50604051620022a0380380620022a08339818101604052810190620000379190620001f3565b60016000819055506200005f62000053620000a760201b60201c565b620000af60201b60201c565b80600260006101000a81548173ffffffffffffffffffffffffffffffffffffffff021916908373ffffffffffffffffffffffffffffffffffffffff1602179055505062000225565b600033905090565b6000600160009054906101000a900473ffffffffffffffffffffffffffffffffffffffff16905081600160006101000a81548173ffffffffffffffffffffffffffffffffffffffff021916908373ffffffffffffffffffffffffffffffffffffffff1602179055508173ffffffffffffffffffffffffffffffffffffffff168173ffffffffffffffffffffffffffffffffffffffff167f8be0079c531659141344cd1fd0a4f28419497f9722a3daafe3b4186f6b6457e060405160405180910390a35050565b600080fd5b600073ffffffffffffffffffffffffffffffffffffffff82169050919050565b6000620001a7826200017a565b9050919050565b6000620001bb826200019a565b9050919050565b620001cd81620001ae565b8114620001d957600080fd5b50565b600081519050620001ed81620001c2565b92915050565b6000602082840312156200020c576200020b62000175565b5b60006200021c84828501620001dc565b91505092915050565b61206b80620002356000396000f3fe6080604052600436106100a05760003560e01c80638da5cb5b116100645780638da5cb5b1461017f578063bde8a93e146101aa578063ead64807146101d3578063f1119faa146101ef578063f2fde38b1461022c578063fc0c546a14610255576100a7565b80630c657eb0146100ac5780630d1fce42146100d75780631dd875561461010257806353bd90ca1461013f578063715018a614610168576100a7565b366100a757005b600080fd5b3480156100b857600080fd5b506100c1610280565b6040516100ce91906112fc565b60405180910390f35b3480156100e357600080fd5b506100ec6102a6565b6040516100f99190611338565b60405180910390f35b34801561010e57600080fd5b50610129600480360381019061012491906113a0565b6102d0565b60405161013691906114a8565b60405180910390f35b34801561014b57600080fd5b506101666004803603810190610161919061164f565b610359565b005b34801561017457600080fd5b5061017d6103ab565b005b34801561018b57600080fd5b506101946103bf565b6040516101a19190611338565b60405180910390f35b3480156101b657600080fd5b506101d160048036038101906101cc91906116ea565b6103e9565b005b6101ed60048036038101906101e89190611717565b610435565b005b3480156101fb57600080fd5b506102166004803603810190610211919061177e565b61073a565b60405161022391906117e0565b60405180910390f35b34801561023857600080fd5b50610253600480360381019061024e91906116ea565b610778565b005b34801561026157600080fd5b5061026a6107fb565b604051610277919061181c565b60405180910390f35b600360009054906101000a900473ffffffffffffffffffffffffffffffffffffffff1681565b6000600360009054906101000a900473ffffffffffffffffffffffffffffffffffffffff16905090565b6060600460008460ff1660ff16815260200190815260200160002060008360ff1660ff16815260200190815260200160002080548060200260200160405190810160405280929190818152602001828054801561034c57602002820191906000526020600020905b815481526020019060010190808311610338575b5050505050905092915050565b610361610821565b80600460008560ff1660ff16815260200190815260200160002060008460ff1660ff16815260200190815260200160002090805190602001906103a5929190611213565b50505050565b6103b3610821565b6103bd600061089f565b565b6000600160009054906101000a900473ffffffffffffffffffffffffffffffffffffffff16905090565b6103f1610821565b80600360006101000a81548173ffffffffffffffffffffffffffffffffffffffff021916908373ffffffffffffffffffffffffffffffffffffffff16021790555050565b61043d610965565b6000339050600082866104509190611866565b905061047e81600260009054906101000a900473ffffffffffffffffffffffffffffffffffffffff166109b4565b6104ef82600360009054906101000a900473ffffffffffffffffffffffffffffffffffffffff1683600260009054906101000a900473ffffffffffffffffffffffffffffffffffffffff1673ffffffffffffffffffffffffffffffffffffffff16610b5a909392919063ffffffff16565b6040518060a001604052808373ffffffffffffffffffffffffffffffffffffffff1681526020018781526020018481526020018560ff1681526020018660ff16815250600560008473ffffffffffffffffffffffffffffffffffffffff1673ffffffffffffffffffffffffffffffffffffffff16815260200190815260200160002060008201518160000160006101000a81548173ffffffffffffffffffffffffffffffffffffffff021916908373ffffffffffffffffffffffffffffffffffffffff160217905550602082015181600101556040820151816002015560608201518160030160006101000a81548160ff021916908360ff16021790555060808201518160030160016101000a81548160ff021916908360ff1602179055509050506000600560008473ffffffffffffffffffffffffffffffffffffffff1673ffffffffffffffffffffffffffffffffffffffff1681526020019081526020016000206040518060a00160405290816000820160009054906101000a900473ffffffffffffffffffffffffffffffffffffffff1673ffffffffffffffffffffffffffffffffffffffff1673ffffffffffffffffffffffffffffffffffffffff16815260200160018201548152602001600282015481526020016003820160009054906101000a900460ff1660ff1660ff1681526020016003820160019054906101000a900460ff1660ff1660ff16815250509050600061070d610be3565b9050600061071b8383610c31565b90506107278382610e4f565b5050505050610734610f6c565b50505050565b6004602052826000526040600020602052816000526040600020818154811061076257600080fd5b9060005260206000200160009250925050505481565b610780610821565b600073ffffffffffffffffffffffffffffffffffffffff168173ffffffffffffffffffffffffffffffffffffffff16036107ef576040517f08c379a00000000000000000000000000000000000000000000000000000000081526004016107e69061192b565b60405180910390fd5b6107f88161089f565b50565b600260009054906101000a900473ffffffffffffffffffffffffffffffffffffffff1681565b610829610f76565b73ffffffffffffffffffffffffffffffffffffffff166108476103bf565b73ffffffffffffffffffffffffffffffffffffffff161461089d576040517f08c379a000000000000000000000000000000000000000000000000000000000815260040161089490611997565b60405180910390fd5b565b6000600160009054906101000a900473ffffffffffffffffffffffffffffffffffffffff16905081600160006101000a81548173ffffffffffffffffffffffffffffffffffffffff021916908373ffffffffffffffffffffffffffffffffffffffff1602179055508173ffffffffffffffffffffffffffffffffffffffff168173ffffffffffffffffffffffffffffffffffffffff167f8be0079c531659141344cd1fd0a4f28419497f9722a3daafe3b4186f6b6457e060405160405180910390a35050565b6002600054036109aa576040517f08c379a00000000000000000000000000000000000000000000000000000000081526004016109a190611a03565b60405180910390fd5b6002600081905550565b60008073ffffffffffffffffffffffffffffffffffffffff168273ffffffffffffffffffffffffffffffffffffffff1603610a2a57600360009054906101000a900473ffffffffffffffffffffffffffffffffffffffff1673ffffffffffffffffffffffffffffffffffffffff16319050610aeb565b600260009054906101000a900473ffffffffffffffffffffffffffffffffffffffff1673ffffffffffffffffffffffffffffffffffffffff166370a08231600360009054906101000a900473ffffffffffffffffffffffffffffffffffffffff166040518263ffffffff1660e01b8152600401610aa79190611338565b602060405180830381865afa158015610ac4573d6000803e3d6000fd5b505050506040513d601f19601f82011682018060405250810190610ae89190611a38565b90505b60006305f5e1006210c8e083610b019190611866565b610b0b9190611a94565b905080841115610b545783816040517fd53662aa000000000000000000000000000000000000000000000000000000008152600401610b4b929190611ac5565b60405180910390fd5b50505050565b610bdd846323b872dd60e01b858585604051602401610b7b93929190611aee565b604051602081830303815290604052907bffffffffffffffffffffffffffffffffffffffffffffffffffffffff19166020820180517bffffffffffffffffffffffffffffffffffffffffffffffffffffffff8381831617835250505050610f7e565b50505050565b6000806301bc367390508042600143610bfc9190611b25565b404340604051602001610c129493929190611ba5565b6040516020818303038152906040528051906020012060001c91505090565b6000826000015173ffffffffffffffffffffffffffffffffffffffff167fda45fbcc0675876b69425067e2270e043b4e659c96b814a29dd19fba183a4d0f846020015185604001518660200151610c889190611866565b86606001518760800151604051610ca29493929190611c02565b60405180910390a260008060005b8560400151811015610e43576000915060005b866060015160ff168160ff161015610d085760006001871614610cef578280610ceb90611c47565b9350505b6001869050508080610d0090611c8f565b915050610cc3565b50856000015173ffffffffffffffffffffffffffffffffffffffff167fceda1a8e77c06cd2a7ed4645fb240c21c5ca4d5d88c2466dc5c3095a033e4d088284600460008b6080015160ff1660ff16815260200190815260200160002060008b6060015160ff1660ff1681526020019081526020016000208681548110610d9157610d90611cb8565b5b9060005260206000200154604051610dab93929190611ce7565b60405180910390a2600a60046000886080015160ff1660ff1681526020019081526020016000206000886060015160ff1660ff1681526020019081526020016000208381548110610dff57610dfe611cb8565b5b90600052602060002001548760200151610e199190611866565b610e239190611a94565b83610e2e9190611d1e565b92508080610e3b90611c47565b915050610cb0565b50819250505092915050565b6000811115610f1057600360009054906101000a900473ffffffffffffffffffffffffffffffffffffffff1673ffffffffffffffffffffffffffffffffffffffff16633d189bf1600260009054906101000a900473ffffffffffffffffffffffffffffffffffffffff168460000151846040518463ffffffff1660e01b8152600401610edd93929190611aee565b600060405180830381600087803b158015610ef757600080fd5b505af1158015610f0b573d6000803e3d6000fd5b505050505b816000015173ffffffffffffffffffffffffffffffffffffffff167f30a7bc34a1ccf47a3014e216e1434062f3c0dd1af0a83a8a79b19b4b740f4c4c836020015183604051610f60929190611ac5565b60405180910390a25050565b6001600081905550565b600033905090565b6000610fe0826040518060400160405280602081526020017f5361666545524332303a206c6f772d6c6576656c2063616c6c206661696c65648152508573ffffffffffffffffffffffffffffffffffffffff166110469092919063ffffffff16565b90506000815114806110025750808060200190518101906110019190611d8a565b5b611041576040517f08c379a000000000000000000000000000000000000000000000000000000000815260040161103890611e29565b60405180910390fd5b505050565b6060611055848460008561105e565b90509392505050565b6060824710156110a3576040517f08c379a000000000000000000000000000000000000000000000000000000000815260040161109a90611ebb565b60405180910390fd5b6000808673ffffffffffffffffffffffffffffffffffffffff1685876040516110cc9190611f4c565b60006040518083038185875af1925050503d8060008114611109576040519150601f19603f3d011682016040523d82523d6000602084013e61110e565b606091505b509150915061111f8783838761112b565b92505050949350505050565b6060831561118d57600083510361118557611145856111a0565b611184576040517f08c379a000000000000000000000000000000000000000000000000000000000815260040161117b90611faf565b60405180910390fd5b5b829050611198565b61119783836111c3565b5b949350505050565b6000808273ffffffffffffffffffffffffffffffffffffffff163b119050919050565b6000825111156111d65781518083602001fd5b806040517f08c379a000000000000000000000000000000000000000000000000000000000815260040161120a9190612013565b60405180910390fd5b82805482825590600052602060002090810192821561124f579160200282015b8281111561124e578251825591602001919060010190611233565b5b50905061125c9190611260565b5090565b5b80821115611279576000816000905550600101611261565b5090565b600073ffffffffffffffffffffffffffffffffffffffff82169050919050565b6000819050919050565b60006112c26112bd6112b88461127d565b61129d565b61127d565b9050919050565b60006112d4826112a7565b9050919050565b60006112e6826112c9565b9050919050565b6112f6816112db565b82525050565b600060208201905061131160008301846112ed565b92915050565b60006113228261127d565b9050919050565b61133281611317565b82525050565b600060208201905061134d6000830184611329565b92915050565b6000604051905090565b600080fd5b600080fd5b600060ff82169050919050565b61137d81611367565b811461138857600080fd5b50565b60008135905061139a81611374565b92915050565b600080604083850312156113b7576113b661135d565b5b60006113c58582860161138b565b92505060206113d68582860161138b565b9150509250929050565b600081519050919050565b600082825260208201905092915050565b6000819050602082019050919050565b6000819050919050565b61141f8161140c565b82525050565b60006114318383611416565b60208301905092915050565b6000602082019050919050565b6000611455826113e0565b61145f81856113eb565b935061146a836113fc565b8060005b8381101561149b5781516114828882611425565b975061148d8361143d565b92505060018101905061146e565b5085935050505092915050565b600060208201905081810360008301526114c2818461144a565b905092915050565b600080fd5b6000601f19601f8301169050919050565b7f4e487b7100000000000000000000000000000000000000000000000000000000600052604160045260246000fd5b611518826114cf565b810181811067ffffffffffffffff82111715611537576115366114e0565b5b80604052505050565b600061154a611353565b9050611556828261150f565b919050565b600067ffffffffffffffff821115611576576115756114e0565b5b602082029050602081019050919050565b600080fd5b6115958161140c565b81146115a057600080fd5b50565b6000813590506115b28161158c565b92915050565b60006115cb6115c68461155b565b611540565b905080838252602082019050602084028301858111156115ee576115ed611587565b5b835b81811015611617578061160388826115a3565b8452602084019350506020810190506115f0565b5050509392505050565b600082601f830112611636576116356114ca565b5b81356116468482602086016115b8565b91505092915050565b6000806000606084860312156116685761166761135d565b5b60006116768682870161138b565b93505060206116878682870161138b565b925050604084013567ffffffffffffffff8111156116a8576116a7611362565b5b6116b486828701611621565b9150509250925092565b6116c781611317565b81146116d257600080fd5b50565b6000813590506116e4816116be565b92915050565b600060208284031215611700576116ff61135d565b5b600061170e848285016116d5565b91505092915050565b600080600080608085870312156117315761173061135d565b5b600061173f878288016115a3565b94505060206117508782880161138b565b93505060406117618782880161138b565b9250506060611772878288016115a3565b91505092959194509250565b6000806000606084860312156117975761179661135d565b5b60006117a58682870161138b565b93505060206117b68682870161138b565b92505060406117c7868287016115a3565b9150509250925092565b6117da8161140c565b82525050565b60006020820190506117f560008301846117d1565b92915050565b6000611806826112c9565b9050919050565b611816816117fb565b82525050565b6000602082019050611831600083018461180d565b92915050565b7f4e487b7100000000000000000000000000000000000000000000000000000000600052601160045260246000fd5b60006118718261140c565b915061187c8361140c565b925082820261188a8161140c565b915082820484148315176118a1576118a0611837565b5b5092915050565b600082825260208201905092915050565b7f4f776e61626c653a206e6577206f776e657220697320746865207a65726f206160008201527f6464726573730000000000000000000000000000000000000000000000000000602082015250565b60006119156026836118a8565b9150611920826118b9565b604082019050919050565b6000602082019050818103600083015261194481611908565b9050919050565b7f4f776e61626c653a2063616c6c6572206973206e6f7420746865206f776e6572600082015250565b60006119816020836118a8565b915061198c8261194b565b602082019050919050565b600060208201905081810360008301526119b081611974565b9050919050565b7f5265656e7472616e637947756172643a207265656e7472616e742063616c6c00600082015250565b60006119ed601f836118a8565b91506119f8826119b7565b602082019050919050565b60006020820190508181036000830152611a1c816119e0565b9050919050565b600081519050611a328161158c565b92915050565b600060208284031215611a4e57611a4d61135d565b5b6000611a5c84828501611a23565b91505092915050565b7f4e487b7100000000000000000000000000000000000000000000000000000000600052601260045260246000fd5b6000611a9f8261140c565b9150611aaa8361140c565b925082611aba57611ab9611a65565b5b828204905092915050565b6000604082019050611ada60008301856117d1565b611ae760208301846117d1565b9392505050565b6000606082019050611b036000830186611329565b611b106020830185611329565b611b1d60408301846117d1565b949350505050565b6000611b308261140c565b9150611b3b8361140c565b9250828203905081811115611b5357611b52611837565b5b92915050565b6000819050919050565b611b74611b6f8261140c565b611b59565b82525050565b6000819050919050565b6000819050919050565b611b9f611b9a82611b7a565b611b84565b82525050565b6000611bb18287611b63565b602082019150611bc18286611b63565b602082019150611bd18285611b8e565b602082019150611be18284611b8e565b60208201915081905095945050505050565b611bfc81611367565b82525050565b6000608082019050611c1760008301876117d1565b611c2460208301866117d1565b611c316040830185611bf3565b611c3e6060830184611bf3565b95945050505050565b6000611c528261140c565b91507fffffffffffffffffffffffffffffffffffffffffffffffffffffffffffffffff8203611c8457611c83611837565b5b600182019050919050565b6000611c9a82611367565b915060ff8203611cad57611cac611837565b5b600182019050919050565b7f4e487b7100000000000000000000000000000000000000000000000000000000600052603260045260246000fd5b6000606082019050611cfc60008301866117d1565b611d0960208301856117d1565b611d1660408301846117d1565b949350505050565b6000611d298261140c565b9150611d348361140c565b9250828201905080821115611d4c57611d4b611837565b5b92915050565b60008115159050919050565b611d6781611d52565b8114611d7257600080fd5b50565b600081519050611d8481611d5e565b92915050565b600060208284031215611da057611d9f61135d565b5b6000611dae84828501611d75565b91505092915050565b7f5361666545524332303a204552433230206f7065726174696f6e20646964206e60008201527f6f74207375636365656400000000000000000000000000000000000000000000602082015250565b6000611e13602a836118a8565b9150611e1e82611db7565b604082019050919050565b60006020820190508181036000830152611e4281611e06565b9050919050565b7f416464726573733a20696e73756666696369656e742062616c616e636520666f60008201527f722063616c6c0000000000000000000000000000000000000000000000000000602082015250565b6000611ea56026836118a8565b9150611eb082611e49565b604082019050919050565b60006020820190508181036000830152611ed481611e98565b9050919050565b600081519050919050565b600081905092915050565b60005b83811015611f0f578082015181840152602081019050611ef4565b60008484015250505050565b6000611f2682611edb565b611f308185611ee6565b9350611f40818560208601611ef1565b80840191505092915050565b6000611f588284611f1b565b915081905092915050565b7f416464726573733a2063616c6c20746f206e6f6e2d636f6e7472616374000000600082015250565b6000611f99601d836118a8565b9150611fa482611f63565b602082019050919050565b60006020820190508181036000830152611fc881611f8c565b9050919050565b600081519050919050565b6000611fe582611fcf565b611fef81856118a8565b9350611fff818560208601611ef1565b612008816114cf565b840191505092915050565b6000602082019050818103600083015261202d8184611fda565b90509291505056fea26469706673582212201b77eb2ec3c965d512da360a47b58b260f293509b9b0e9c1871c7b7b339170a364736f6c63430008110033",
  "linkReferences": {},
  "deployedLinkReferences": {}
}