{
  "_format": "hh-sol-artifact-1",
  "contractName": "Plinko",
  "sourceName": "contracts/Plinko.sol",
  "abi": [
    {
      "inputs": [
        {
          "internalType": "contract IERC20",
          "name": "_token",
          "type": "address"
        }
      ],
      "stateMutability": "nonpayable",
      "type": "constructor"
    },
    {
      "anonymous": false,
      "inputs": [
        {
          "indexed": true,
          "internalType": "address",
          "name": "previousOwner",
          "type": "address"
        },
        {
          "indexed": true,
          "internalType": "address",
          "name": "newOwner",
          "type": "address"
        }
      ],
      "name": "OwnershipTransferred",
      "type": "event"
    },
    {
      "inputs": [
        {
          "internalType": "uint8",
          "name": "risk",
          "type": "uint8"
        },
        {
          "internalType": "uint8",
          "name": "numRows",
          "type": "uint8"
        }
      ],
      "name": "getMultipliers",
      "outputs": [
        {
          "internalType": "uint256[]",
          "name": "multipliers",
          "type": "uint256[]"
        }
      ],
      "stateMutability": "view",
      "type": "function"
    },
    {
      "inputs": [],
      "name": "owner",
      "outputs": [
        {
          "internalType": "address",
          "name": "",
          "type": "address"
        }
      ],
      "stateMutability": "view",
      "type": "function"
    },
    {
      "inputs": [
        {
          "internalType": "uint8",
          "name": "",
          "type": "uint8"
        },
        {
          "internalType": "uint8",
          "name": "",
          "type": "uint8"
        },
        {
          "internalType": "uint256",
          "name": "",
          "type": "uint256"
        }
      ],
      "name": "plinkoMultipliers",
      "outputs": [
        {
          "internalType": "uint256",
          "name": "",
          "type": "uint256"
        }
      ],
      "stateMutability": "view",
      "type": "function"
    },
    {
      "inputs": [],
      "name": "renounceOwnership",
      "outputs": [],
      "stateMutability": "nonpayable",
      "type": "function"
    },
    {
      "inputs": [],
      "name": "token",
      "outputs": [
        {
          "internalType": "contract IERC20",
          "name": "",
          "type": "address"
        }
      ],
      "stateMutability": "view",
      "type": "function"
    },
    {
      "inputs": [
        {
          "internalType": "address",
          "name": "newOwner",
          "type": "address"
        }
      ],
      "name": "transferOwnership",
      "outputs": [],
      "stateMutability": "nonpayable",
      "type": "function"
    }
  ],
  "bytecode": "0x608060405234801561001057600080fd5b50604051610ac4380380610ac4833981810160405281019061003291906101e0565b600160008190555061005661004b61009d60201b60201c565b6100a560201b60201c565b80600260006101000a81548173ffffffffffffffffffffffffffffffffffffffff021916908373ffffffffffffffffffffffffffffffffffffffff1602179055505061020d565b600033905090565b6000600160009054906101000a900473ffffffffffffffffffffffffffffffffffffffff16905081600160006101000a81548173ffffffffffffffffffffffffffffffffffffffff021916908373ffffffffffffffffffffffffffffffffffffffff1602179055508173ffffffffffffffffffffffffffffffffffffffff168173ffffffffffffffffffffffffffffffffffffffff167f8be0079c531659141344cd1fd0a4f28419497f9722a3daafe3b4186f6b6457e060405160405180910390a35050565b600080fd5b600073ffffffffffffffffffffffffffffffffffffffff82169050919050565b600061019b82610170565b9050919050565b60006101ad82610190565b9050919050565b6101bd816101a2565b81146101c857600080fd5b50565b6000815190506101da816101b4565b92915050565b6000602082840312156101f6576101f561016b565b5b6000610204848285016101cb565b91505092915050565b6108a88061021c6000396000f3fe608060405234801561001057600080fd5b50600436106100625760003560e01c80631dd8755614610067578063715018a6146100975780638da5cb5b146100a1578063f1119faa146100bf578063f2fde38b146100ef578063fc0c546a1461010b575b600080fd5b610081600480360381019061007c9190610461565b610129565b60405161008e9190610569565b60405180910390f35b61009f6101b2565b005b6100a96101c6565b6040516100b691906105cc565b60405180910390f35b6100d960048036038101906100d49190610613565b6101f0565b6040516100e69190610675565b60405180910390f35b610109600480360381019061010491906106bc565b61022e565b005b6101136102b1565b6040516101209190610748565b60405180910390f35b6060600360008460ff1660ff16815260200190815260200160002060008360ff1660ff1681526020019081526020016000208054806020026020016040519081016040528092919081815260200182805480156101a557602002820191906000526020600020905b815481526020019060010190808311610191575b5050505050905092915050565b6101ba6102d7565b6101c46000610355565b565b6000600160009054906101000a900473ffffffffffffffffffffffffffffffffffffffff16905090565b6003602052826000526040600020602052816000526040600020818154811061021857600080fd5b9060005260206000200160009250925050505481565b6102366102d7565b600073ffffffffffffffffffffffffffffffffffffffff168173ffffffffffffffffffffffffffffffffffffffff16036102a5576040517f08c379a000000000000000000000000000000000000000000000000000000000815260040161029c906107e6565b60405180910390fd5b6102ae81610355565b50565b600260009054906101000a900473ffffffffffffffffffffffffffffffffffffffff1681565b6102df61041b565b73ffffffffffffffffffffffffffffffffffffffff166102fd6101c6565b73ffffffffffffffffffffffffffffffffffffffff1614610353576040517f08c379a000000000000000000000000000000000000000000000000000000000815260040161034a90610852565b60405180910390fd5b565b6000600160009054906101000a900473ffffffffffffffffffffffffffffffffffffffff16905081600160006101000a81548173ffffffffffffffffffffffffffffffffffffffff021916908373ffffffffffffffffffffffffffffffffffffffff1602179055508173ffffffffffffffffffffffffffffffffffffffff168173ffffffffffffffffffffffffffffffffffffffff167f8be0079c531659141344cd1fd0a4f28419497f9722a3daafe3b4186f6b6457e060405160405180910390a35050565b600033905090565b600080fd5b600060ff82169050919050565b61043e81610428565b811461044957600080fd5b50565b60008135905061045b81610435565b92915050565b6000806040838503121561047857610477610423565b5b60006104868582860161044c565b92505060206104978582860161044c565b9150509250929050565b600081519050919050565b600082825260208201905092915050565b6000819050602082019050919050565b6000819050919050565b6104e0816104cd565b82525050565b60006104f283836104d7565b60208301905092915050565b6000602082019050919050565b6000610516826104a1565b61052081856104ac565b935061052b836104bd565b8060005b8381101561055c57815161054388826104e6565b975061054e836104fe565b92505060018101905061052f565b5085935050505092915050565b60006020820190508181036000830152610583818461050b565b905092915050565b600073ffffffffffffffffffffffffffffffffffffffff82169050919050565b60006105b68261058b565b9050919050565b6105c6816105ab565b82525050565b60006020820190506105e160008301846105bd565b92915050565b6105f0816104cd565b81146105fb57600080fd5b50565b60008135905061060d816105e7565b92915050565b60008060006060848603121561062c5761062b610423565b5b600061063a8682870161044c565b935050602061064b8682870161044c565b925050604061065c868287016105fe565b9150509250925092565b61066f816104cd565b82525050565b600060208201905061068a6000830184610666565b92915050565b610699816105ab565b81146106a457600080fd5b50565b6000813590506106b681610690565b92915050565b6000602082840312156106d2576106d1610423565b5b60006106e0848285016106a7565b91505092915050565b6000819050919050565b600061070e6107096107048461058b565b6106e9565b61058b565b9050919050565b6000610720826106f3565b9050919050565b600061073282610715565b9050919050565b61074281610727565b82525050565b600060208201905061075d6000830184610739565b92915050565b600082825260208201905092915050565b7f4f776e61626c653a206e6577206f776e657220697320746865207a65726f206160008201527f6464726573730000000000000000000000000000000000000000000000000000602082015250565b60006107d0602683610763565b91506107db82610774565b604082019050919050565b600060208201905081810360008301526107ff816107c3565b9050919050565b7f4f776e61626c653a2063616c6c6572206973206e6f7420746865206f776e6572600082015250565b600061083c602083610763565b915061084782610806565b602082019050919050565b6000602082019050818103600083015261086b8161082f565b905091905056fea2646970667358221220c6370f153ad0464a0950935f23967ccd898277838181d64bd67bc33e24155f9964736f6c63430008110033",
  "linkReferences": {},
  "deployedLinkReferences": {}
}