{
  "_format": "hh-sol-artifact-1",
  "contractName": "Plinko",
  "sourceName": "contracts/Plinko.sol",
  "abi": [
    {
      "inputs": [
        {
          "internalType": "contract IERC20",
          "name": "_token",
          "type": "address"
        }
      ],
      "stateMutability": "nonpayable",
      "type": "constructor"
    },
    {
      "anonymous": false,
      "inputs": [
        {
          "indexed": true,
          "internalType": "address",
          "name": "previousOwner",
          "type": "address"
        },
        {
          "indexed": true,
          "internalType": "address",
          "name": "newOwner",
          "type": "address"
        }
      ],
      "name": "OwnershipTransferred",
      "type": "event"
    },
    {
      "inputs": [
        {
          "internalType": "uint8",
          "name": "risk",
          "type": "uint8"
        },
        {
          "internalType": "uint8",
          "name": "numRows",
          "type": "uint8"
        }
      ],
      "name": "getMultipliers",
      "outputs": [
        {
          "internalType": "uint256[]",
          "name": "multipliers",
          "type": "uint256[]"
        }
      ],
      "stateMutability": "view",
      "type": "function"
    },
    {
      "inputs": [],
      "name": "owner",
      "outputs": [
        {
          "internalType": "address",
          "name": "",
          "type": "address"
        }
      ],
      "stateMutability": "view",
      "type": "function"
    },
    {
      "inputs": [
        {
          "internalType": "uint8",
          "name": "",
          "type": "uint8"
        },
        {
          "internalType": "uint8",
          "name": "",
          "type": "uint8"
        },
        {
          "internalType": "uint256",
          "name": "",
          "type": "uint256"
        }
      ],
      "name": "plinkoMultipliers",
      "outputs": [
        {
          "internalType": "uint256",
          "name": "",
          "type": "uint256"
        }
      ],
      "stateMutability": "view",
      "type": "function"
    },
    {
      "inputs": [],
      "name": "renounceOwnership",
      "outputs": [],
      "stateMutability": "nonpayable",
      "type": "function"
    },
    {
      "inputs": [
        {
          "internalType": "uint8",
          "name": "risk",
          "type": "uint8"
        },
        {
          "internalType": "uint8",
          "name": "numRows",
          "type": "uint8"
        },
        {
          "internalType": "uint256[]",
          "name": "multipliers",
          "type": "uint256[]"
        }
      ],
      "name": "setMultipliers",
      "outputs": [],
      "stateMutability": "nonpayable",
      "type": "function"
    },
    {
      "inputs": [],
      "name": "token",
      "outputs": [
        {
          "internalType": "contract IERC20",
          "name": "",
          "type": "address"
        }
      ],
      "stateMutability": "view",
      "type": "function"
    },
    {
      "inputs": [
        {
          "internalType": "address",
          "name": "newOwner",
          "type": "address"
        }
      ],
      "name": "transferOwnership",
      "outputs": [],
      "stateMutability": "nonpayable",
      "type": "function"
    }
  ],
  "bytecode": "0x60806040523480156200001157600080fd5b5060405162000da738038062000da78339818101604052810190620000379190620001f3565b60016000819055506200005f62000053620000a760201b60201c565b620000af60201b60201c565b80600260006101000a81548173ffffffffffffffffffffffffffffffffffffffff021916908373ffffffffffffffffffffffffffffffffffffffff1602179055505062000225565b600033905090565b6000600160009054906101000a900473ffffffffffffffffffffffffffffffffffffffff16905081600160006101000a81548173ffffffffffffffffffffffffffffffffffffffff021916908373ffffffffffffffffffffffffffffffffffffffff1602179055508173ffffffffffffffffffffffffffffffffffffffff168173ffffffffffffffffffffffffffffffffffffffff167f8be0079c531659141344cd1fd0a4f28419497f9722a3daafe3b4186f6b6457e060405160405180910390a35050565b600080fd5b600073ffffffffffffffffffffffffffffffffffffffff82169050919050565b6000620001a7826200017a565b9050919050565b6000620001bb826200019a565b9050919050565b620001cd81620001ae565b8114620001d957600080fd5b50565b600081519050620001ed81620001c2565b92915050565b6000602082840312156200020c576200020b62000175565b5b60006200021c84828501620001dc565b91505092915050565b610b7280620002356000396000f3fe608060405234801561001057600080fd5b506004361061007d5760003560e01c80638da5cb5b1161005b5780638da5cb5b146100d8578063f1119faa146100f6578063f2fde38b14610126578063fc0c546a146101425761007d565b80631dd875561461008257806353bd90ca146100b2578063715018a6146100ce575b600080fd5b61009c60048036038101906100979190610563565b610160565b6040516100a9919061066b565b60405180910390f35b6100cc60048036038101906100c79190610812565b6101e9565b005b6100d661023b565b005b6100e061024f565b6040516100ed91906108c2565b60405180910390f35b610110600480360381019061010b91906108dd565b610279565b60405161011d919061093f565b60405180910390f35b610140600480360381019061013b9190610986565b6102b7565b005b61014a61033a565b6040516101579190610a12565b60405180910390f35b6060600360008460ff1660ff16815260200190815260200160002060008360ff1660ff1681526020019081526020016000208054806020026020016040519081016040528092919081815260200182805480156101dc57602002820191906000526020600020905b8154815260200190600101908083116101c8575b5050505050905092915050565b6101f1610360565b80600360008560ff1660ff16815260200190815260200160002060008460ff1660ff16815260200190815260200160002090805190602001906102359291906104ac565b50505050565b610243610360565b61024d60006103de565b565b6000600160009054906101000a900473ffffffffffffffffffffffffffffffffffffffff16905090565b600360205282600052604060002060205281600052604060002081815481106102a157600080fd5b9060005260206000200160009250925050505481565b6102bf610360565b600073ffffffffffffffffffffffffffffffffffffffff168173ffffffffffffffffffffffffffffffffffffffff160361032e576040517f08c379a000000000000000000000000000000000000000000000000000000000815260040161032590610ab0565b60405180910390fd5b610337816103de565b50565b600260009054906101000a900473ffffffffffffffffffffffffffffffffffffffff1681565b6103686104a4565b73ffffffffffffffffffffffffffffffffffffffff1661038661024f565b73ffffffffffffffffffffffffffffffffffffffff16146103dc576040517f08c379a00000000000000000000000000000000000000000000000000000000081526004016103d390610b1c565b60405180910390fd5b565b6000600160009054906101000a900473ffffffffffffffffffffffffffffffffffffffff16905081600160006101000a81548173ffffffffffffffffffffffffffffffffffffffff021916908373ffffffffffffffffffffffffffffffffffffffff1602179055508173ffffffffffffffffffffffffffffffffffffffff168173ffffffffffffffffffffffffffffffffffffffff167f8be0079c531659141344cd1fd0a4f28419497f9722a3daafe3b4186f6b6457e060405160405180910390a35050565b600033905090565b8280548282559060005260206000209081019282156104e8579160200282015b828111156104e75782518255916020019190600101906104cc565b5b5090506104f591906104f9565b5090565b5b808211156105125760008160009055506001016104fa565b5090565b6000604051905090565b600080fd5b600080fd5b600060ff82169050919050565b6105408161052a565b811461054b57600080fd5b50565b60008135905061055d81610537565b92915050565b6000806040838503121561057a57610579610520565b5b60006105888582860161054e565b92505060206105998582860161054e565b9150509250929050565b600081519050919050565b600082825260208201905092915050565b6000819050602082019050919050565b6000819050919050565b6105e2816105cf565b82525050565b60006105f483836105d9565b60208301905092915050565b6000602082019050919050565b6000610618826105a3565b61062281856105ae565b935061062d836105bf565b8060005b8381101561065e57815161064588826105e8565b975061065083610600565b925050600181019050610631565b5085935050505092915050565b60006020820190508181036000830152610685818461060d565b905092915050565b600080fd5b6000601f19601f8301169050919050565b7f4e487b7100000000000000000000000000000000000000000000000000000000600052604160045260246000fd5b6106db82610692565b810181811067ffffffffffffffff821117156106fa576106f96106a3565b5b80604052505050565b600061070d610516565b905061071982826106d2565b919050565b600067ffffffffffffffff821115610739576107386106a3565b5b602082029050602081019050919050565b600080fd5b610758816105cf565b811461076357600080fd5b50565b6000813590506107758161074f565b92915050565b600061078e6107898461071e565b610703565b905080838252602082019050602084028301858111156107b1576107b061074a565b5b835b818110156107da57806107c68882610766565b8452602084019350506020810190506107b3565b5050509392505050565b600082601f8301126107f9576107f861068d565b5b813561080984826020860161077b565b91505092915050565b60008060006060848603121561082b5761082a610520565b5b60006108398682870161054e565b935050602061084a8682870161054e565b925050604084013567ffffffffffffffff81111561086b5761086a610525565b5b610877868287016107e4565b9150509250925092565b600073ffffffffffffffffffffffffffffffffffffffff82169050919050565b60006108ac82610881565b9050919050565b6108bc816108a1565b82525050565b60006020820190506108d760008301846108b3565b92915050565b6000806000606084860312156108f6576108f5610520565b5b60006109048682870161054e565b93505060206109158682870161054e565b925050604061092686828701610766565b9150509250925092565b610939816105cf565b82525050565b60006020820190506109546000830184610930565b92915050565b610963816108a1565b811461096e57600080fd5b50565b6000813590506109808161095a565b92915050565b60006020828403121561099c5761099b610520565b5b60006109aa84828501610971565b91505092915050565b6000819050919050565b60006109d86109d36109ce84610881565b6109b3565b610881565b9050919050565b60006109ea826109bd565b9050919050565b60006109fc826109df565b9050919050565b610a0c816109f1565b82525050565b6000602082019050610a276000830184610a03565b92915050565b600082825260208201905092915050565b7f4f776e61626c653a206e6577206f776e657220697320746865207a65726f206160008201527f6464726573730000000000000000000000000000000000000000000000000000602082015250565b6000610a9a602683610a2d565b9150610aa582610a3e565b604082019050919050565b60006020820190508181036000830152610ac981610a8d565b9050919050565b7f4f776e61626c653a2063616c6c6572206973206e6f7420746865206f776e6572600082015250565b6000610b06602083610a2d565b9150610b1182610ad0565b602082019050919050565b60006020820190508181036000830152610b3581610af9565b905091905056fea26469706673582212202343433526acb397556e0eb3486399a19a05077e939b89088431c0c12cdcac7c64736f6c63430008110033",
  "linkReferences": {},
  "deployedLinkReferences": {}
}