{
  "_format": "hh-sol-artifact-1",
  "contractName": "Bankroll",
  "sourceName": "contracts/CommunityBankroll.sol",
  "abi": [
    {
      "inputs": [
        {
          "internalType": "address",
          "name": "_stakingToken",
          "type": "address"
        }
      ],
      "stateMutability": "nonpayable",
      "type": "constructor"
    },
    {
      "anonymous": false,
      "inputs": [
        {
          "indexed": false,
          "internalType": "address",
          "name": "game",
          "type": "address"
        },
        {
          "indexed": false,
          "internalType": "bool",
          "name": "isActive",
          "type": "bool"
        }
      ],
      "name": "GameStateChanged",
      "type": "event"
    },
    {
      "anonymous": false,
      "inputs": [
        {
          "indexed": true,
          "internalType": "address",
          "name": "user",
          "type": "address"
        },
        {
          "indexed": false,
          "internalType": "uint256",
          "name": "amount",
          "type": "uint256"
        }
      ],
      "name": "Harvested",
      "type": "event"
    },
    {
      "anonymous": false,
      "inputs": [
        {
          "indexed": true,
          "internalType": "address",
          "name": "previousOwner",
          "type": "address"
        },
        {
          "indexed": true,
          "internalType": "address",
          "name": "newOwner",
          "type": "address"
        }
      ],
      "name": "OwnershipTransferred",
      "type": "event"
    },
    {
      "anonymous": false,
      "inputs": [
        {
          "indexed": true,
          "internalType": "address",
          "name": "user",
          "type": "address"
        },
        {
          "indexed": false,
          "internalType": "uint256",
          "name": "amount",
          "type": "uint256"
        },
        {
          "indexed": false,
          "internalType": "uint256",
          "name": "time",
          "type": "uint256"
        }
      ],
      "name": "Staked",
      "type": "event"
    },
    {
      "anonymous": false,
      "inputs": [
        {
          "indexed": false,
          "internalType": "address",
          "name": "token",
          "type": "address"
        },
        {
          "indexed": false,
          "internalType": "bool",
          "name": "isAllowed",
          "type": "bool"
        }
      ],
      "name": "TokenStateChanged",
      "type": "event"
    },
    {
      "anonymous": false,
      "inputs": [
        {
          "indexed": true,
          "internalType": "address",
          "name": "user",
          "type": "address"
        },
        {
          "indexed": false,
          "internalType": "uint256",
          "name": "amount",
          "type": "uint256"
        },
        {
          "indexed": false,
          "internalType": "uint256",
          "name": "time",
          "type": "uint256"
        }
      ],
      "name": "Unstaked",
      "type": "event"
    },
    {
      "inputs": [
        {
          "internalType": "address",
          "name": "_staker",
          "type": "address"
        },
        {
          "internalType": "uint256",
          "name": "_amount",
          "type": "uint256"
        }
      ],
      "name": "calculateWithdrawalAmount",
      "outputs": [
        {
          "internalType": "uint256",
          "name": "",
          "type": "uint256"
        }
      ],
      "stateMutability": "view",
      "type": "function"
    },
    {
      "inputs": [],
      "name": "currentEarnings",
      "outputs": [
        {
          "internalType": "int256",
          "name": "",
          "type": "int256"
        }
      ],
      "stateMutability": "view",
      "type": "function"
    },
    {
      "inputs": [
        {
          "internalType": "address",
          "name": "_staker",
          "type": "address"
        }
      ],
      "name": "getHarvestableAmount",
      "outputs": [
        {
          "internalType": "uint256",
          "name": "",
          "type": "uint256"
        }
      ],
      "stateMutability": "view",
      "type": "function"
    },
    {
      "inputs": [],
      "name": "harvest",
      "outputs": [],
      "stateMutability": "nonpayable",
      "type": "function"
    },
    {
      "inputs": [
        {
          "internalType": "address",
          "name": "",
          "type": "address"
        }
      ],
      "name": "isGame",
      "outputs": [
        {
          "internalType": "bool",
          "name": "",
          "type": "bool"
        }
      ],
      "stateMutability": "view",
      "type": "function"
    },
    {
      "inputs": [
        {
          "internalType": "address",
          "name": "token",
          "type": "address"
        }
      ],
      "name": "isToken",
      "outputs": [
        {
          "internalType": "bool",
          "name": "",
          "type": "bool"
        }
      ],
      "stateMutability": "view",
      "type": "function"
    },
    {
      "inputs": [
        {
          "internalType": "address",
          "name": "",
          "type": "address"
        }
      ],
      "name": "isTokenAllowed",
      "outputs": [
        {
          "internalType": "bool",
          "name": "",
          "type": "bool"
        }
      ],
      "stateMutability": "view",
      "type": "function"
    },
    {
      "inputs": [],
      "name": "owner",
      "outputs": [
        {
          "internalType": "address",
          "name": "",
          "type": "address"
        }
      ],
      "stateMutability": "view",
      "type": "function"
    },
    {
      "inputs": [],
      "name": "renounceOwnership",
      "outputs": [],
      "stateMutability": "nonpayable",
      "type": "function"
    },
    {
      "inputs": [
        {
          "internalType": "address",
          "name": "game",
          "type": "address"
        },
        {
          "internalType": "bool",
          "name": "isActive",
          "type": "bool"
        }
      ],
      "name": "setGame",
      "outputs": [],
      "stateMutability": "nonpayable",
      "type": "function"
    },
    {
      "inputs": [
        {
          "internalType": "address",
          "name": "token",
          "type": "address"
        },
        {
          "internalType": "bool",
          "name": "isAllowed",
          "type": "bool"
        }
      ],
      "name": "setToken",
      "outputs": [],
      "stateMutability": "nonpayable",
      "type": "function"
    },
    {
      "inputs": [
        {
          "internalType": "uint256",
          "name": "_amount",
          "type": "uint256"
        }
      ],
      "name": "stake",
      "outputs": [],
      "stateMutability": "nonpayable",
      "type": "function"
    },
    {
      "inputs": [
        {
          "internalType": "address",
          "name": "",
          "type": "address"
        }
      ],
      "name": "stakers",
      "outputs": [
        {
          "internalType": "uint256",
          "name": "stakedAmount",
          "type": "uint256"
        },
        {
          "internalType": "int256",
          "name": "stakerInitialEarnings",
          "type": "int256"
        },
        {
          "internalType": "uint256",
          "name": "stakeTime",
          "type": "uint256"
        }
      ],
      "stateMutability": "view",
      "type": "function"
    },
    {
      "inputs": [],
      "name": "stakingToken",
      "outputs": [
        {
          "internalType": "contract IERC20",
          "name": "",
          "type": "address"
        }
      ],
      "stateMutability": "view",
      "type": "function"
    },
    {
      "inputs": [],
      "name": "totalEarnings",
      "outputs": [
        {
          "internalType": "int256",
          "name": "",
          "type": "int256"
        }
      ],
      "stateMutability": "view",
      "type": "function"
    },
    {
      "inputs": [],
      "name": "totalStaked",
      "outputs": [
        {
          "internalType": "uint256",
          "name": "",
          "type": "uint256"
        }
      ],
      "stateMutability": "view",
      "type": "function"
    },
    {
      "inputs": [
        {
          "internalType": "address",
          "name": "newOwner",
          "type": "address"
        }
      ],
      "name": "transferOwnership",
      "outputs": [],
      "stateMutability": "nonpayable",
      "type": "function"
    },
    {
      "inputs": [
        {
          "internalType": "address",
          "name": "tokenAddress",
          "type": "address"
        },
        {
          "internalType": "address",
          "name": "player",
          "type": "address"
        },
        {
          "internalType": "uint256",
          "name": "payout",
          "type": "uint256"
        }
      ],
      "name": "transferTokenPayout",
      "outputs": [],
      "stateMutability": "nonpayable",
      "type": "function"
    },
    {
      "inputs": [
        {
          "internalType": "uint256",
          "name": "_amount",
          "type": "uint256"
        }
      ],
      "name": "unstake",
      "outputs": [],
      "stateMutability": "nonpayable",
      "type": "function"
    },
    {
      "inputs": [],
      "name": "updatePoolEarningsExternal",
      "outputs": [],
      "stateMutability": "nonpayable",
      "type": "function"
    },
    {
      "stateMutability": "payable",
      "type": "receive"
    }
  ],
  "bytecode": "0x60806040523480156200001157600080fd5b5060405162002951380380620029518339818101604052810190620000379190620001d5565b620000576200004b6200009f60201b60201c565b620000a760201b60201c565b80600160006101000a81548173ffffffffffffffffffffffffffffffffffffffff021916908373ffffffffffffffffffffffffffffffffffffffff1602179055505062000207565b600033905090565b60008060009054906101000a900473ffffffffffffffffffffffffffffffffffffffff169050816000806101000a81548173ffffffffffffffffffffffffffffffffffffffff021916908373ffffffffffffffffffffffffffffffffffffffff1602179055508173ffffffffffffffffffffffffffffffffffffffff168173ffffffffffffffffffffffffffffffffffffffff167f8be0079c531659141344cd1fd0a4f28419497f9722a3daafe3b4186f6b6457e060405160405180910390a35050565b600080fd5b600073ffffffffffffffffffffffffffffffffffffffff82169050919050565b60006200019d8262000170565b9050919050565b620001af8162000190565b8114620001bb57600080fd5b50565b600081519050620001cf81620001a4565b92915050565b600060208284031215620001ee57620001ed6200016b565b5b6000620001fe84828501620001be565b91505092915050565b61273a80620002176000396000f3fe6080604052600436106101235760003560e01c806372f702f3116100a0578063b0836e2e11610064578063b0836e2e146103a8578063c4b09d06146103d1578063c626c52e1461040e578063f2fde38b1461044b578063f9eaee0d146104745761012a565b806372f702f3146102bf578063817b1cd2146102ea5780638da5cb5b146103155780639168ae7214610340578063a694fc3a1461037f5761012a565b80633816a292116100e75780633816a292146102145780633d189bf11461023d5780634641257d14610266578063599f44581461027d578063715018a6146102a85761012a565b806303f22b411461012f57806311f30fa21461016c57806319f37361146101835780632df3eba4146101c05780632e17de78146101eb5761012a565b3661012a57005b600080fd5b34801561013b57600080fd5b506101566004803603810190610151919061198d565b6104b1565b60405161016391906119dc565b60405180910390f35b34801561017857600080fd5b5061018161058e565b005b34801561018f57600080fd5b506101aa60048036038101906101a591906119f7565b6106b0565b6040516101b79190611a3f565b60405180910390f35b3480156101cc57600080fd5b506101d5610706565b6040516101e29190611a73565b60405180910390f35b3480156101f757600080fd5b50610212600480360381019061020d9190611a8e565b61070c565b005b34801561022057600080fd5b5061023b60048036038101906102369190611ae7565b610a28565b005b34801561024957600080fd5b50610264600480360381019061025f9190611b27565b610ac4565b005b34801561027257600080fd5b5061027b610bc4565b005b34801561028957600080fd5b50610292610d7b565b60405161029f9190611a73565b60405180910390f35b3480156102b457600080fd5b506102bd610e43565b005b3480156102cb57600080fd5b506102d4610e57565b6040516102e19190611bd9565b60405180910390f35b3480156102f657600080fd5b506102ff610e7d565b60405161030c91906119dc565b60405180910390f35b34801561032157600080fd5b5061032a610e83565b6040516103379190611c03565b60405180910390f35b34801561034c57600080fd5b50610367600480360381019061036291906119f7565b610eac565b60405161037693929190611c1e565b60405180910390f35b34801561038b57600080fd5b506103a660048036038101906103a19190611a8e565b610ed6565b005b3480156103b457600080fd5b506103cf60048036038101906103ca9190611ae7565b61115d565b005b3480156103dd57600080fd5b506103f860048036038101906103f391906119f7565b6111f9565b60405161040591906119dc565b60405180910390f35b34801561041a57600080fd5b50610435600480360381019061043091906119f7565b6112d1565b6040516104429190611a3f565b60405180910390f35b34801561045757600080fd5b50610472600480360381019061046d91906119f7565b6112f1565b005b34801561048057600080fd5b5061049b600480360381019061049691906119f7565b611374565b6040516104a89190611a3f565b60405180910390f35b600080600254600460008673ffffffffffffffffffffffffffffffffffffffff1673ffffffffffffffffffffffffffffffffffffffff16815260200190815260200160002060000154600460008773ffffffffffffffffffffffffffffffffffffffff1673ffffffffffffffffffffffffffffffffffffffff1681526020019081526020016000206001015460035461054a9190611c84565b6105549190611cc7565b61055e9190611d6e565b90506000818461056e9190611dd8565b905083811215610582578392505050610588565b80925050505b92915050565b600560003373ffffffffffffffffffffffffffffffffffffffff1673ffffffffffffffffffffffffffffffffffffffff16815260200190815260200160002060009054906101000a900460ff1661061a576040517f08c379a000000000000000000000000000000000000000000000000000000000815260040161061190611e79565b60405180910390fd5b600560003373ffffffffffffffffffffffffffffffffffffffff1673ffffffffffffffffffffffffffffffffffffffff16815260200190815260200160002060009054906101000a900460ff166106a6576040517f08c379a000000000000000000000000000000000000000000000000000000000815260040161069d90611f0b565b60405180910390fd5b6106ae611394565b565b6000600660008373ffffffffffffffffffffffffffffffffffffffff1673ffffffffffffffffffffffffffffffffffffffff16815260200190815260200160002060009054906101000a900460ff169050919050565b60035481565b610714611394565b60008111610757576040517f08c379a000000000000000000000000000000000000000000000000000000000815260040161074e90611f77565b60405180910390fd5b80600460003373ffffffffffffffffffffffffffffffffffffffff1673ffffffffffffffffffffffffffffffffffffffff1681526020019081526020016000206000015410156107dc576040517f08c379a00000000000000000000000000000000000000000000000000000000081526004016107d390611fe3565b60405180910390fd5b62015180600460003373ffffffffffffffffffffffffffffffffffffffff1673ffffffffffffffffffffffffffffffffffffffff1681526020019081526020016000206002015461082d9190612003565b42101561086f576040517f08c379a0000000000000000000000000000000000000000000000000000000008152600401610866906120a9565b60405180910390fd5b6108c481600460003373ffffffffffffffffffffffffffffffffffffffff1673ffffffffffffffffffffffffffffffffffffffff1681526020019081526020016000206000015461146390919063ffffffff16565b600460003373ffffffffffffffffffffffffffffffffffffffff1673ffffffffffffffffffffffffffffffffffffffff1681526020019081526020016000206000018190555061091f8160025461146390919063ffffffff16565b600281905550600061093133836104b1565b9050600160009054906101000a900473ffffffffffffffffffffffffffffffffffffffff1673ffffffffffffffffffffffffffffffffffffffff1663a9059cbb33836040518363ffffffff1660e01b81526004016109909291906120c9565b6020604051808303816000875af11580156109af573d6000803e3d6000fd5b505050506040513d601f19601f820116820180604052508101906109d39190612107565b503373ffffffffffffffffffffffffffffffffffffffff167f7fc4727e062e336010f2c282598ef5f14facb3de68cf8195c2f23e1454b2b74e8342604051610a1c929190612134565b60405180910390a25050565b610a30611479565b80600660008473ffffffffffffffffffffffffffffffffffffffff1673ffffffffffffffffffffffffffffffffffffffff16815260200190815260200160002060006101000a81548160ff0219169083151502179055507f1f1269d3c9516f07c3367fe7388d5acb09f65fafbb968c6db71f53507c5f180c8282604051610ab892919061215d565b60405180910390a15050565b600083905060008173ffffffffffffffffffffffffffffffffffffffff166370a08231306040518263ffffffff1660e01b8152600401610b049190611c03565b602060405180830381865afa158015610b21573d6000803e3d6000fd5b505050506040513d601f19601f82011682018060405250810190610b45919061219b565b905082811015610b8a576040517f08c379a0000000000000000000000000000000000000000000000000000000008152600401610b8190612214565b60405180910390fd5b610bb584848473ffffffffffffffffffffffffffffffffffffffff166114f79092919063ffffffff16565b610bbd611394565b5050505050565b610bcc611394565b6000600460003373ffffffffffffffffffffffffffffffffffffffff1673ffffffffffffffffffffffffffffffffffffffff16815260200190815260200160002090506000816000015411610c56576040517f08c379a0000000000000000000000000000000000000000000000000000000008152600401610c4d90612280565b60405180910390fd5b600060025482600001548360010154600354610c729190611c84565b610c7c9190611cc7565b610c869190611d6e565b905060008113610ccb576040517f08c379a0000000000000000000000000000000000000000000000000000000008152600401610cc2906122ec565b60405180910390fd5b60035482600101819055506000819050610d283382600160009054906101000a900473ffffffffffffffffffffffffffffffffffffffff1673ffffffffffffffffffffffffffffffffffffffff166114f79092919063ffffffff16565b3373ffffffffffffffffffffffffffffffffffffffff167f121c5042302bae5fc561fbc64368f297ca60a880878e1e3a7f7e9380377260bf82604051610d6e91906119dc565b60405180910390a2505050565b600080600160009054906101000a900473ffffffffffffffffffffffffffffffffffffffff1673ffffffffffffffffffffffffffffffffffffffff166370a08231306040518263ffffffff1660e01b8152600401610dd99190611c03565b602060405180830381865afa158015610df6573d6000803e3d6000fd5b505050506040513d601f19601f82011682018060405250810190610e1a919061219b565b9050600060025482610e2c9190611c84565b905080600354610e3c9190611dd8565b9250505090565b610e4b611479565b610e55600061157d565b565b600160009054906101000a900473ffffffffffffffffffffffffffffffffffffffff1681565b60025481565b60008060009054906101000a900473ffffffffffffffffffffffffffffffffffffffff16905090565b60046020528060005260406000206000915090508060000154908060010154908060020154905083565b610ede611394565b60008111610f21576040517f08c379a0000000000000000000000000000000000000000000000000000000008152600401610f1890611f77565b60405180910390fd5b600160009054906101000a900473ffffffffffffffffffffffffffffffffffffffff1673ffffffffffffffffffffffffffffffffffffffff166323b872dd3330846040518463ffffffff1660e01b8152600401610f809392919061230c565b6020604051808303816000875af1158015610f9f573d6000803e3d6000fd5b505050506040513d601f19601f82011682018060405250810190610fc39190612107565b50600354600460003373ffffffffffffffffffffffffffffffffffffffff1673ffffffffffffffffffffffffffffffffffffffff1681526020019081526020016000206001018190555061106281600460003373ffffffffffffffffffffffffffffffffffffffff1673ffffffffffffffffffffffffffffffffffffffff1681526020019081526020016000206000015461164190919063ffffffff16565b600460003373ffffffffffffffffffffffffffffffffffffffff1673ffffffffffffffffffffffffffffffffffffffff1681526020019081526020016000206000018190555042600460003373ffffffffffffffffffffffffffffffffffffffff1673ffffffffffffffffffffffffffffffffffffffff168152602001908152602001600020600201819055506111048160025461164190919063ffffffff16565b6002819055503373ffffffffffffffffffffffffffffffffffffffff167f1449c6dd7851abc30abf37f57715f492010519147cc2652fbc38202c18a6ee908242604051611152929190612134565b60405180910390a250565b611165611479565b80600560008473ffffffffffffffffffffffffffffffffffffffff1673ffffffffffffffffffffffffffffffffffffffff16815260200190815260200160002060006101000a81548160ff0219169083151502179055507f485a208f50c0e410820bfb5ebb6b7803f74c8394c3ba79db2c28b6793cdec29c82826040516111ed92919061215d565b60405180910390a15050565b600080600460008473ffffffffffffffffffffffffffffffffffffffff1673ffffffffffffffffffffffffffffffffffffffff16815260200190815260200160002060405180606001604052908160008201548152602001600182015481526020016002820154815250509050600081600001510361127c5760009150506112cc565b600060025482600001518360200151611293610d7b565b61129d9190611c84565b6112a79190611cc7565b6112b19190611d6e565b9050600081136112c6576000925050506112cc565b80925050505b919050565b60056020528060005260406000206000915054906101000a900460ff1681565b6112f9611479565b600073ffffffffffffffffffffffffffffffffffffffff168173ffffffffffffffffffffffffffffffffffffffff1603611368576040517f08c379a000000000000000000000000000000000000000000000000000000000815260040161135f906123b5565b60405180910390fd5b6113718161157d565b50565b60066020528060005260406000206000915054906101000a900460ff1681565b6000600160009054906101000a900473ffffffffffffffffffffffffffffffffffffffff1673ffffffffffffffffffffffffffffffffffffffff166370a08231306040518263ffffffff1660e01b81526004016113f19190611c03565b602060405180830381865afa15801561140e573d6000803e3d6000fd5b505050506040513d601f19601f82011682018060405250810190611432919061219b565b90506000600254826114449190611c84565b905080600360008282546114589190611dd8565b925050819055505050565b6000818361147191906123d5565b905092915050565b611481611657565b73ffffffffffffffffffffffffffffffffffffffff1661149f610e83565b73ffffffffffffffffffffffffffffffffffffffff16146114f5576040517f08c379a00000000000000000000000000000000000000000000000000000000081526004016114ec90612455565b60405180910390fd5b565b6115788363a9059cbb60e01b84846040516024016115169291906120c9565b604051602081830303815290604052907bffffffffffffffffffffffffffffffffffffffffffffffffffffffff19166020820180517bffffffffffffffffffffffffffffffffffffffffffffffffffffffff838183161783525050505061165f565b505050565b60008060009054906101000a900473ffffffffffffffffffffffffffffffffffffffff169050816000806101000a81548173ffffffffffffffffffffffffffffffffffffffff021916908373ffffffffffffffffffffffffffffffffffffffff1602179055508173ffffffffffffffffffffffffffffffffffffffff168173ffffffffffffffffffffffffffffffffffffffff167f8be0079c531659141344cd1fd0a4f28419497f9722a3daafe3b4186f6b6457e060405160405180910390a35050565b6000818361164f9190612003565b905092915050565b600033905090565b60006116c1826040518060400160405280602081526020017f5361666545524332303a206c6f772d6c6576656c2063616c6c206661696c65648152508573ffffffffffffffffffffffffffffffffffffffff166117279092919063ffffffff16565b90506000815114806116e35750808060200190518101906116e29190612107565b5b611722576040517f08c379a0000000000000000000000000000000000000000000000000000000008152600401611719906124e7565b60405180910390fd5b505050565b6060611736848460008561173f565b90509392505050565b606082471015611784576040517f08c379a000000000000000000000000000000000000000000000000000000000815260040161177b90612579565b60405180910390fd5b6000808673ffffffffffffffffffffffffffffffffffffffff1685876040516117ad919061260a565b60006040518083038185875af1925050503d80600081146117ea576040519150601f19603f3d011682016040523d82523d6000602084013e6117ef565b606091505b50915091506118008783838761180c565b92505050949350505050565b6060831561186e5760008351036118665761182685611881565b611865576040517f08c379a000000000000000000000000000000000000000000000000000000000815260040161185c9061266d565b60405180910390fd5b5b829050611879565b61187883836118a4565b5b949350505050565b6000808273ffffffffffffffffffffffffffffffffffffffff163b119050919050565b6000825111156118b75781518083602001fd5b806040517f08c379a00000000000000000000000000000000000000000000000000000000081526004016118eb91906126e2565b60405180910390fd5b600080fd5b600073ffffffffffffffffffffffffffffffffffffffff82169050919050565b6000611924826118f9565b9050919050565b61193481611919565b811461193f57600080fd5b50565b6000813590506119518161192b565b92915050565b6000819050919050565b61196a81611957565b811461197557600080fd5b50565b60008135905061198781611961565b92915050565b600080604083850312156119a4576119a36118f4565b5b60006119b285828601611942565b92505060206119c385828601611978565b9150509250929050565b6119d681611957565b82525050565b60006020820190506119f160008301846119cd565b92915050565b600060208284031215611a0d57611a0c6118f4565b5b6000611a1b84828501611942565b91505092915050565b60008115159050919050565b611a3981611a24565b82525050565b6000602082019050611a546000830184611a30565b92915050565b6000819050919050565b611a6d81611a5a565b82525050565b6000602082019050611a886000830184611a64565b92915050565b600060208284031215611aa457611aa36118f4565b5b6000611ab284828501611978565b91505092915050565b611ac481611a24565b8114611acf57600080fd5b50565b600081359050611ae181611abb565b92915050565b60008060408385031215611afe57611afd6118f4565b5b6000611b0c85828601611942565b9250506020611b1d85828601611ad2565b9150509250929050565b600080600060608486031215611b4057611b3f6118f4565b5b6000611b4e86828701611942565b9350506020611b5f86828701611942565b9250506040611b7086828701611978565b9150509250925092565b6000819050919050565b6000611b9f611b9a611b95846118f9565b611b7a565b6118f9565b9050919050565b6000611bb182611b84565b9050919050565b6000611bc382611ba6565b9050919050565b611bd381611bb8565b82525050565b6000602082019050611bee6000830184611bca565b92915050565b611bfd81611919565b82525050565b6000602082019050611c186000830184611bf4565b92915050565b6000606082019050611c3360008301866119cd565b611c406020830185611a64565b611c4d60408301846119cd565b949350505050565b7f4e487b7100000000000000000000000000000000000000000000000000000000600052601160045260246000fd5b6000611c8f82611a5a565b9150611c9a83611a5a565b9250828203905081811260008412168282136000851215161715611cc157611cc0611c55565b5b92915050565b6000611cd282611a5a565b9150611cdd83611a5a565b9250828202611ceb81611a5a565b91507f80000000000000000000000000000000000000000000000000000000000000008414600084121615611d2357611d22611c55565b5b8282058414831517611d3857611d37611c55565b5b5092915050565b7f4e487b7100000000000000000000000000000000000000000000000000000000600052601260045260246000fd5b6000611d7982611a5a565b9150611d8483611a5a565b925082611d9457611d93611d3f565b5b600160000383147f800000000000000000000000000000000000000000000000000000000000000083141615611dcd57611dcc611c55565b5b828205905092915050565b6000611de382611a5a565b9150611dee83611a5a565b925082820190508281121560008312168382126000841215161715611e1657611e15611c55565b5b92915050565b600082825260208201905092915050565b7f43616c6c6572206973206e6f7420616e20617574686f72697a65642067616d65600082015250565b6000611e63602083611e1c565b9150611e6e82611e2d565b602082019050919050565b60006020820190508181036000830152611e9281611e56565b9050919050565b7f4f6e6c792067616d65732063616e2075706461746520706f6f6c206561726e6960008201527f6e67730000000000000000000000000000000000000000000000000000000000602082015250565b6000611ef5602383611e1c565b9150611f0082611e99565b604082019050919050565b60006020820190508181036000830152611f2481611ee8565b9050919050565b7f416d6f756e742073686f756c642062652067726561746572207468616e203000600082015250565b6000611f61601f83611e1c565b9150611f6c82611f2b565b602082019050919050565b60006020820190508181036000830152611f9081611f54565b9050919050565b7f496e73756666696369656e74207374616b656420616d6f756e74000000000000600082015250565b6000611fcd601a83611e1c565b9150611fd882611f97565b602082019050919050565b60006020820190508181036000830152611ffc81611fc0565b9050919050565b600061200e82611957565b915061201983611957565b925082820190508082111561203157612030611c55565b5b92915050565b7f5374616b65206d7573742062652068656c6420666f72206174206c656173742060008201527f3120646179000000000000000000000000000000000000000000000000000000602082015250565b6000612093602583611e1c565b915061209e82612037565b604082019050919050565b600060208201905081810360008301526120c281612086565b9050919050565b60006040820190506120de6000830185611bf4565b6120eb60208301846119cd565b9392505050565b60008151905061210181611abb565b92915050565b60006020828403121561211d5761211c6118f4565b5b600061212b848285016120f2565b91505092915050565b600060408201905061214960008301856119cd565b61215660208301846119cd565b9392505050565b60006040820190506121726000830185611bf4565b61217f6020830184611a30565b9392505050565b60008151905061219581611961565b92915050565b6000602082840312156121b1576121b06118f4565b5b60006121bf84828501612186565b91505092915050565b7f4e6f7420656e6f7567682062616c616e63652e00000000000000000000000000600082015250565b60006121fe601383611e1c565b9150612209826121c8565b602082019050919050565b6000602082019050818103600083015261222d816121f1565b9050919050565b7f4e6f207374616b656420616d6f756e7400000000000000000000000000000000600082015250565b600061226a601083611e1c565b915061227582612234565b602082019050919050565b600060208201905081810360008301526122998161225d565b9050919050565b7f4e6f206561726e696e677320746f206861727665737400000000000000000000600082015250565b60006122d6601683611e1c565b91506122e1826122a0565b602082019050919050565b60006020820190508181036000830152612305816122c9565b9050919050565b60006060820190506123216000830186611bf4565b61232e6020830185611bf4565b61233b60408301846119cd565b949350505050565b7f4f776e61626c653a206e6577206f776e657220697320746865207a65726f206160008201527f6464726573730000000000000000000000000000000000000000000000000000602082015250565b600061239f602683611e1c565b91506123aa82612343565b604082019050919050565b600060208201905081810360008301526123ce81612392565b9050919050565b60006123e082611957565b91506123eb83611957565b925082820390508181111561240357612402611c55565b5b92915050565b7f4f776e61626c653a2063616c6c6572206973206e6f7420746865206f776e6572600082015250565b600061243f602083611e1c565b915061244a82612409565b602082019050919050565b6000602082019050818103600083015261246e81612432565b9050919050565b7f5361666545524332303a204552433230206f7065726174696f6e20646964206e60008201527f6f74207375636365656400000000000000000000000000000000000000000000602082015250565b60006124d1602a83611e1c565b91506124dc82612475565b604082019050919050565b60006020820190508181036000830152612500816124c4565b9050919050565b7f416464726573733a20696e73756666696369656e742062616c616e636520666f60008201527f722063616c6c0000000000000000000000000000000000000000000000000000602082015250565b6000612563602683611e1c565b915061256e82612507565b604082019050919050565b6000602082019050818103600083015261259281612556565b9050919050565b600081519050919050565b600081905092915050565b60005b838110156125cd5780820151818401526020810190506125b2565b60008484015250505050565b60006125e482612599565b6125ee81856125a4565b93506125fe8185602086016125af565b80840191505092915050565b600061261682846125d9565b915081905092915050565b7f416464726573733a2063616c6c20746f206e6f6e2d636f6e7472616374000000600082015250565b6000612657601d83611e1c565b915061266282612621565b602082019050919050565b600060208201905081810360008301526126868161264a565b9050919050565b600081519050919050565b6000601f19601f8301169050919050565b60006126b48261268d565b6126be8185611e1c565b93506126ce8185602086016125af565b6126d781612698565b840191505092915050565b600060208201905081810360008301526126fc81846126a9565b90509291505056fea26469706673582212205fdda3a8376930526730f182f134329156ddfd02ede64d36ae65e7456f0e889d64736f6c63430008110033",
  "linkReferences": {},
  "deployedLinkReferences": {}
}