{
  "_format": "hh-sol-artifact-1",
  "contractName": "Bankroll",
  "sourceName": "contracts/CommunityBankroll.sol",
  "abi": [
    {
      "inputs": [
        {
          "internalType": "address",
          "name": "_stakingToken",
          "type": "address"
        }
      ],
      "stateMutability": "nonpayable",
      "type": "constructor"
    },
    {
      "anonymous": false,
      "inputs": [
        {
          "indexed": false,
          "internalType": "address",
          "name": "game",
          "type": "address"
        },
        {
          "indexed": false,
          "internalType": "bool",
          "name": "isActive",
          "type": "bool"
        }
      ],
      "name": "GameStateChanged",
      "type": "event"
    },
    {
      "anonymous": false,
      "inputs": [
        {
          "indexed": true,
          "internalType": "address",
          "name": "previousOwner",
          "type": "address"
        },
        {
          "indexed": true,
          "internalType": "address",
          "name": "newOwner",
          "type": "address"
        }
      ],
      "name": "OwnershipTransferred",
      "type": "event"
    },
    {
      "anonymous": false,
      "inputs": [
        {
          "indexed": true,
          "internalType": "address",
          "name": "user",
          "type": "address"
        },
        {
          "indexed": false,
          "internalType": "uint256",
          "name": "amount",
          "type": "uint256"
        },
        {
          "indexed": false,
          "internalType": "uint256",
          "name": "time",
          "type": "uint256"
        }
      ],
      "name": "Staked",
      "type": "event"
    },
    {
      "anonymous": false,
      "inputs": [
        {
          "indexed": false,
          "internalType": "address",
          "name": "token",
          "type": "address"
        },
        {
          "indexed": false,
          "internalType": "bool",
          "name": "isAllowed",
          "type": "bool"
        }
      ],
      "name": "TokenStateChanged",
      "type": "event"
    },
    {
      "anonymous": false,
      "inputs": [
        {
          "indexed": true,
          "internalType": "address",
          "name": "user",
          "type": "address"
        },
        {
          "indexed": false,
          "internalType": "uint256",
          "name": "amount",
          "type": "uint256"
        },
        {
          "indexed": false,
          "internalType": "uint256",
          "name": "time",
          "type": "uint256"
        }
      ],
      "name": "Unstaked",
      "type": "event"
    },
    {
      "inputs": [
        {
          "internalType": "address",
          "name": "_staker",
          "type": "address"
        },
        {
          "internalType": "uint256",
          "name": "_amount",
          "type": "uint256"
        }
      ],
      "name": "calculateWithdrawalAmount",
      "outputs": [
        {
          "internalType": "uint256",
          "name": "",
          "type": "uint256"
        }
      ],
      "stateMutability": "view",
      "type": "function"
    },
    {
      "inputs": [],
      "name": "currentEarnings",
      "outputs": [
        {
          "internalType": "int256",
          "name": "",
          "type": "int256"
        }
      ],
      "stateMutability": "view",
      "type": "function"
    },
    {
      "inputs": [
        {
          "internalType": "address",
          "name": "",
          "type": "address"
        }
      ],
      "name": "isGame",
      "outputs": [
        {
          "internalType": "bool",
          "name": "",
          "type": "bool"
        }
      ],
      "stateMutability": "view",
      "type": "function"
    },
    {
      "inputs": [
        {
          "internalType": "address",
          "name": "token",
          "type": "address"
        }
      ],
      "name": "isToken",
      "outputs": [
        {
          "internalType": "bool",
          "name": "",
          "type": "bool"
        }
      ],
      "stateMutability": "view",
      "type": "function"
    },
    {
      "inputs": [
        {
          "internalType": "address",
          "name": "",
          "type": "address"
        }
      ],
      "name": "isTokenAllowed",
      "outputs": [
        {
          "internalType": "bool",
          "name": "",
          "type": "bool"
        }
      ],
      "stateMutability": "view",
      "type": "function"
    },
    {
      "inputs": [],
      "name": "owner",
      "outputs": [
        {
          "internalType": "address",
          "name": "",
          "type": "address"
        }
      ],
      "stateMutability": "view",
      "type": "function"
    },
    {
      "inputs": [],
      "name": "renounceOwnership",
      "outputs": [],
      "stateMutability": "nonpayable",
      "type": "function"
    },
    {
      "inputs": [
        {
          "internalType": "address",
          "name": "game",
          "type": "address"
        },
        {
          "internalType": "bool",
          "name": "isActive",
          "type": "bool"
        }
      ],
      "name": "setGame",
      "outputs": [],
      "stateMutability": "nonpayable",
      "type": "function"
    },
    {
      "inputs": [
        {
          "internalType": "address",
          "name": "token",
          "type": "address"
        },
        {
          "internalType": "bool",
          "name": "isAllowed",
          "type": "bool"
        }
      ],
      "name": "setToken",
      "outputs": [],
      "stateMutability": "nonpayable",
      "type": "function"
    },
    {
      "inputs": [
        {
          "internalType": "uint256",
          "name": "_amount",
          "type": "uint256"
        }
      ],
      "name": "stake",
      "outputs": [],
      "stateMutability": "nonpayable",
      "type": "function"
    },
    {
      "inputs": [
        {
          "internalType": "address",
          "name": "",
          "type": "address"
        }
      ],
      "name": "stakers",
      "outputs": [
        {
          "internalType": "uint256",
          "name": "stakedAmount",
          "type": "uint256"
        },
        {
          "internalType": "int256",
          "name": "stakerInitialEarnings",
          "type": "int256"
        },
        {
          "internalType": "uint256",
          "name": "stakeTime",
          "type": "uint256"
        }
      ],
      "stateMutability": "view",
      "type": "function"
    },
    {
      "inputs": [],
      "name": "stakingToken",
      "outputs": [
        {
          "internalType": "contract IERC20",
          "name": "",
          "type": "address"
        }
      ],
      "stateMutability": "view",
      "type": "function"
    },
    {
      "inputs": [],
      "name": "totalEarnings",
      "outputs": [
        {
          "internalType": "int256",
          "name": "",
          "type": "int256"
        }
      ],
      "stateMutability": "view",
      "type": "function"
    },
    {
      "inputs": [],
      "name": "totalStaked",
      "outputs": [
        {
          "internalType": "uint256",
          "name": "",
          "type": "uint256"
        }
      ],
      "stateMutability": "view",
      "type": "function"
    },
    {
      "inputs": [
        {
          "internalType": "address",
          "name": "newOwner",
          "type": "address"
        }
      ],
      "name": "transferOwnership",
      "outputs": [],
      "stateMutability": "nonpayable",
      "type": "function"
    },
    {
      "inputs": [
        {
          "internalType": "address",
          "name": "tokenAddress",
          "type": "address"
        },
        {
          "internalType": "address",
          "name": "player",
          "type": "address"
        },
        {
          "internalType": "uint256",
          "name": "payout",
          "type": "uint256"
        }
      ],
      "name": "transferTokenPayout",
      "outputs": [],
      "stateMutability": "nonpayable",
      "type": "function"
    },
    {
      "inputs": [
        {
          "internalType": "uint256",
          "name": "_amount",
          "type": "uint256"
        }
      ],
      "name": "unstake",
      "outputs": [],
      "stateMutability": "nonpayable",
      "type": "function"
    },
    {
      "stateMutability": "payable",
      "type": "receive"
    }
  ],
  "bytecode": "0x60806040523480156200001157600080fd5b5060405162002211380380620022118339818101604052810190620000379190620001d5565b620000576200004b6200009f60201b60201c565b620000a760201b60201c565b80600160006101000a81548173ffffffffffffffffffffffffffffffffffffffff021916908373ffffffffffffffffffffffffffffffffffffffff1602179055505062000207565b600033905090565b60008060009054906101000a900473ffffffffffffffffffffffffffffffffffffffff169050816000806101000a81548173ffffffffffffffffffffffffffffffffffffffff021916908373ffffffffffffffffffffffffffffffffffffffff1602179055508173ffffffffffffffffffffffffffffffffffffffff168173ffffffffffffffffffffffffffffffffffffffff167f8be0079c531659141344cd1fd0a4f28419497f9722a3daafe3b4186f6b6457e060405160405180910390a35050565b600080fd5b600073ffffffffffffffffffffffffffffffffffffffff82169050919050565b60006200019d8262000170565b9050919050565b620001af8162000190565b8114620001bb57600080fd5b50565b600081519050620001cf81620001a4565b92915050565b600060208284031215620001ee57620001ed6200016b565b5b6000620001fe84828501620001be565b91505092915050565b611ffa80620002176000396000f3fe6080604052600436106101025760003560e01c806372f702f311610095578063a694fc3a11610064578063a694fc3a14610330578063b0836e2e14610359578063c626c52e14610382578063f2fde38b146103bf578063f9eaee0d146103e857610109565b806372f702f314610270578063817b1cd21461029b5780638da5cb5b146102c65780639168ae72146102f157610109565b80633816a292116100d15780633816a292146101dc5780633d189bf114610205578063599f44581461022e578063715018a61461025957610109565b806303f22b411461010e57806319f373611461014b5780632df3eba4146101885780632e17de78146101b357610109565b3661010957005b600080fd5b34801561011a57600080fd5b50610135600480360381019061013091906114b5565b610425565b6040516101429190611504565b60405180910390f35b34801561015757600080fd5b50610172600480360381019061016d919061151f565b610502565b60405161017f9190611567565b60405180910390f35b34801561019457600080fd5b5061019d610558565b6040516101aa919061159b565b60405180910390f35b3480156101bf57600080fd5b506101da60048036038101906101d591906115b6565b61055e565b005b3480156101e857600080fd5b5061020360048036038101906101fe919061160f565b6107e7565b005b34801561021157600080fd5b5061022c6004803603810190610227919061164f565b610883565b005b34801561023a57600080fd5b5061024361097b565b604051610250919061159b565b60405180910390f35b34801561026557600080fd5b5061026e610a43565b005b34801561027c57600080fd5b50610285610a57565b6040516102929190611701565b60405180910390f35b3480156102a757600080fd5b506102b0610a7d565b6040516102bd9190611504565b60405180910390f35b3480156102d257600080fd5b506102db610a83565b6040516102e8919061172b565b60405180910390f35b3480156102fd57600080fd5b506103186004803603810190610313919061151f565b610aac565b60405161032793929190611746565b60405180910390f35b34801561033c57600080fd5b50610357600480360381019061035291906115b6565b610ad6565b005b34801561036557600080fd5b50610380600480360381019061037b919061160f565b610d5d565b005b34801561038e57600080fd5b506103a960048036038101906103a4919061151f565b610df9565b6040516103b69190611567565b60405180910390f35b3480156103cb57600080fd5b506103e660048036038101906103e1919061151f565b610e19565b005b3480156103f457600080fd5b5061040f600480360381019061040a919061151f565b610e9c565b60405161041c9190611567565b60405180910390f35b600080600454600660008673ffffffffffffffffffffffffffffffffffffffff1673ffffffffffffffffffffffffffffffffffffffff16815260200190815260200160002060000154600660008773ffffffffffffffffffffffffffffffffffffffff1673ffffffffffffffffffffffffffffffffffffffff168152602001908152602001600020600101546005546104be91906117ac565b6104c891906117ef565b6104d29190611896565b9050600081846104e29190611900565b9050838112156104f65783925050506104fc565b80925050505b92915050565b6000600360008373ffffffffffffffffffffffffffffffffffffffff1673ffffffffffffffffffffffffffffffffffffffff16815260200190815260200160002060009054906101000a900460ff169050919050565b60055481565b610566610ebc565b600081116105a9576040517f08c379a00000000000000000000000000000000000000000000000000000000081526004016105a0906119a1565b60405180910390fd5b80600660003373ffffffffffffffffffffffffffffffffffffffff1673ffffffffffffffffffffffffffffffffffffffff16815260200190815260200160002060000154101561062e576040517f08c379a000000000000000000000000000000000000000000000000000000000815260040161062590611a0d565b60405180910390fd5b61068381600660003373ffffffffffffffffffffffffffffffffffffffff1673ffffffffffffffffffffffffffffffffffffffff16815260200190815260200160002060000154610f8b90919063ffffffff16565b600660003373ffffffffffffffffffffffffffffffffffffffff1673ffffffffffffffffffffffffffffffffffffffff168152602001908152602001600020600001819055506106de81600454610f8b90919063ffffffff16565b60048190555060006106f03383610425565b9050600160009054906101000a900473ffffffffffffffffffffffffffffffffffffffff1673ffffffffffffffffffffffffffffffffffffffff1663a9059cbb33836040518363ffffffff1660e01b815260040161074f929190611a2d565b6020604051808303816000875af115801561076e573d6000803e3d6000fd5b505050506040513d601f19601f820116820180604052508101906107929190611a6b565b503373ffffffffffffffffffffffffffffffffffffffff167f7fc4727e062e336010f2c282598ef5f14facb3de68cf8195c2f23e1454b2b74e83426040516107db929190611a98565b60405180910390a25050565b6107ef610fa1565b80600360008473ffffffffffffffffffffffffffffffffffffffff1673ffffffffffffffffffffffffffffffffffffffff16815260200190815260200160002060006101000a81548160ff0219169083151502179055507f1f1269d3c9516f07c3367fe7388d5acb09f65fafbb968c6db71f53507c5f180c8282604051610877929190611ac1565b60405180910390a15050565b600083905060008173ffffffffffffffffffffffffffffffffffffffff166370a08231306040518263ffffffff1660e01b81526004016108c3919061172b565b602060405180830381865afa1580156108e0573d6000803e3d6000fd5b505050506040513d601f19601f820116820180604052508101906109049190611aff565b905082811015610949576040517f08c379a000000000000000000000000000000000000000000000000000000000815260040161094090611b78565b60405180910390fd5b61097484848473ffffffffffffffffffffffffffffffffffffffff1661101f9092919063ffffffff16565b5050505050565b600080600160009054906101000a900473ffffffffffffffffffffffffffffffffffffffff1673ffffffffffffffffffffffffffffffffffffffff166370a08231306040518263ffffffff1660e01b81526004016109d9919061172b565b602060405180830381865afa1580156109f6573d6000803e3d6000fd5b505050506040513d601f19601f82011682018060405250810190610a1a9190611aff565b9050600060045482610a2c91906117ac565b905080600554610a3c9190611900565b9250505090565b610a4b610fa1565b610a5560006110a5565b565b600160009054906101000a900473ffffffffffffffffffffffffffffffffffffffff1681565b60045481565b60008060009054906101000a900473ffffffffffffffffffffffffffffffffffffffff16905090565b60066020528060005260406000206000915090508060000154908060010154908060020154905083565b610ade610ebc565b60008111610b21576040517f08c379a0000000000000000000000000000000000000000000000000000000008152600401610b18906119a1565b60405180910390fd5b600160009054906101000a900473ffffffffffffffffffffffffffffffffffffffff1673ffffffffffffffffffffffffffffffffffffffff166323b872dd3330846040518463ffffffff1660e01b8152600401610b8093929190611b98565b6020604051808303816000875af1158015610b9f573d6000803e3d6000fd5b505050506040513d601f19601f82011682018060405250810190610bc39190611a6b565b50600554600660003373ffffffffffffffffffffffffffffffffffffffff1673ffffffffffffffffffffffffffffffffffffffff16815260200190815260200160002060010181905550610c6281600660003373ffffffffffffffffffffffffffffffffffffffff1673ffffffffffffffffffffffffffffffffffffffff1681526020019081526020016000206000015461116990919063ffffffff16565b600660003373ffffffffffffffffffffffffffffffffffffffff1673ffffffffffffffffffffffffffffffffffffffff1681526020019081526020016000206000018190555042600660003373ffffffffffffffffffffffffffffffffffffffff1673ffffffffffffffffffffffffffffffffffffffff16815260200190815260200160002060020181905550610d048160045461116990919063ffffffff16565b6004819055503373ffffffffffffffffffffffffffffffffffffffff167f1449c6dd7851abc30abf37f57715f492010519147cc2652fbc38202c18a6ee908242604051610d52929190611a98565b60405180910390a250565b610d65610fa1565b80600260008473ffffffffffffffffffffffffffffffffffffffff1673ffffffffffffffffffffffffffffffffffffffff16815260200190815260200160002060006101000a81548160ff0219169083151502179055507f485a208f50c0e410820bfb5ebb6b7803f74c8394c3ba79db2c28b6793cdec29c8282604051610ded929190611ac1565b60405180910390a15050565b60026020528060005260406000206000915054906101000a900460ff1681565b610e21610fa1565b600073ffffffffffffffffffffffffffffffffffffffff168173ffffffffffffffffffffffffffffffffffffffff1603610e90576040517f08c379a0000000000000000000000000000000000000000000000000000000008152600401610e8790611c41565b60405180910390fd5b610e99816110a5565b50565b60036020528060005260406000206000915054906101000a900460ff1681565b6000600160009054906101000a900473ffffffffffffffffffffffffffffffffffffffff1673ffffffffffffffffffffffffffffffffffffffff166370a08231306040518263ffffffff1660e01b8152600401610f19919061172b565b602060405180830381865afa158015610f36573d6000803e3d6000fd5b505050506040513d601f19601f82011682018060405250810190610f5a9190611aff565b9050600060045482610f6c91906117ac565b90508060056000828254610f809190611900565b925050819055505050565b60008183610f999190611c61565b905092915050565b610fa961117f565b73ffffffffffffffffffffffffffffffffffffffff16610fc7610a83565b73ffffffffffffffffffffffffffffffffffffffff161461101d576040517f08c379a000000000000000000000000000000000000000000000000000000000815260040161101490611ce1565b60405180910390fd5b565b6110a08363a9059cbb60e01b848460405160240161103e929190611a2d565b604051602081830303815290604052907bffffffffffffffffffffffffffffffffffffffffffffffffffffffff19166020820180517bffffffffffffffffffffffffffffffffffffffffffffffffffffffff8381831617835250505050611187565b505050565b60008060009054906101000a900473ffffffffffffffffffffffffffffffffffffffff169050816000806101000a81548173ffffffffffffffffffffffffffffffffffffffff021916908373ffffffffffffffffffffffffffffffffffffffff1602179055508173ffffffffffffffffffffffffffffffffffffffff168173ffffffffffffffffffffffffffffffffffffffff167f8be0079c531659141344cd1fd0a4f28419497f9722a3daafe3b4186f6b6457e060405160405180910390a35050565b600081836111779190611d01565b905092915050565b600033905090565b60006111e9826040518060400160405280602081526020017f5361666545524332303a206c6f772d6c6576656c2063616c6c206661696c65648152508573ffffffffffffffffffffffffffffffffffffffff1661124f9092919063ffffffff16565b905060008151148061120b57508080602001905181019061120a9190611a6b565b5b61124a576040517f08c379a000000000000000000000000000000000000000000000000000000000815260040161124190611da7565b60405180910390fd5b505050565b606061125e8484600085611267565b90509392505050565b6060824710156112ac576040517f08c379a00000000000000000000000000000000000000000000000000000000081526004016112a390611e39565b60405180910390fd5b6000808673ffffffffffffffffffffffffffffffffffffffff1685876040516112d59190611eca565b60006040518083038185875af1925050503d8060008114611312576040519150601f19603f3d011682016040523d82523d6000602084013e611317565b606091505b509150915061132887838387611334565b92505050949350505050565b6060831561139657600083510361138e5761134e856113a9565b61138d576040517f08c379a000000000000000000000000000000000000000000000000000000000815260040161138490611f2d565b60405180910390fd5b5b8290506113a1565b6113a083836113cc565b5b949350505050565b6000808273ffffffffffffffffffffffffffffffffffffffff163b119050919050565b6000825111156113df5781518083602001fd5b806040517f08c379a00000000000000000000000000000000000000000000000000000000081526004016114139190611fa2565b60405180910390fd5b600080fd5b600073ffffffffffffffffffffffffffffffffffffffff82169050919050565b600061144c82611421565b9050919050565b61145c81611441565b811461146757600080fd5b50565b60008135905061147981611453565b92915050565b6000819050919050565b6114928161147f565b811461149d57600080fd5b50565b6000813590506114af81611489565b92915050565b600080604083850312156114cc576114cb61141c565b5b60006114da8582860161146a565b92505060206114eb858286016114a0565b9150509250929050565b6114fe8161147f565b82525050565b600060208201905061151960008301846114f5565b92915050565b6000602082840312156115355761153461141c565b5b60006115438482850161146a565b91505092915050565b60008115159050919050565b6115618161154c565b82525050565b600060208201905061157c6000830184611558565b92915050565b6000819050919050565b61159581611582565b82525050565b60006020820190506115b0600083018461158c565b92915050565b6000602082840312156115cc576115cb61141c565b5b60006115da848285016114a0565b91505092915050565b6115ec8161154c565b81146115f757600080fd5b50565b600081359050611609816115e3565b92915050565b600080604083850312156116265761162561141c565b5b60006116348582860161146a565b9250506020611645858286016115fa565b9150509250929050565b6000806000606084860312156116685761166761141c565b5b60006116768682870161146a565b93505060206116878682870161146a565b9250506040611698868287016114a0565b9150509250925092565b6000819050919050565b60006116c76116c26116bd84611421565b6116a2565b611421565b9050919050565b60006116d9826116ac565b9050919050565b60006116eb826116ce565b9050919050565b6116fb816116e0565b82525050565b600060208201905061171660008301846116f2565b92915050565b61172581611441565b82525050565b6000602082019050611740600083018461171c565b92915050565b600060608201905061175b60008301866114f5565b611768602083018561158c565b61177560408301846114f5565b949350505050565b7f4e487b7100000000000000000000000000000000000000000000000000000000600052601160045260246000fd5b60006117b782611582565b91506117c283611582565b92508282039050818112600084121682821360008512151617156117e9576117e861177d565b5b92915050565b60006117fa82611582565b915061180583611582565b925082820261181381611582565b91507f8000000000000000000000000000000000000000000000000000000000000000841460008412161561184b5761184a61177d565b5b82820584148315176118605761185f61177d565b5b5092915050565b7f4e487b7100000000000000000000000000000000000000000000000000000000600052601260045260246000fd5b60006118a182611582565b91506118ac83611582565b9250826118bc576118bb611867565b5b600160000383147f8000000000000000000000000000000000000000000000000000000000000000831416156118f5576118f461177d565b5b828205905092915050565b600061190b82611582565b915061191683611582565b92508282019050828112156000831216838212600084121516171561193e5761193d61177d565b5b92915050565b600082825260208201905092915050565b7f416d6f756e742073686f756c642062652067726561746572207468616e203000600082015250565b600061198b601f83611944565b915061199682611955565b602082019050919050565b600060208201905081810360008301526119ba8161197e565b9050919050565b7f496e73756666696369656e74207374616b656420616d6f756e74000000000000600082015250565b60006119f7601a83611944565b9150611a02826119c1565b602082019050919050565b60006020820190508181036000830152611a26816119ea565b9050919050565b6000604082019050611a42600083018561171c565b611a4f60208301846114f5565b9392505050565b600081519050611a65816115e3565b92915050565b600060208284031215611a8157611a8061141c565b5b6000611a8f84828501611a56565b91505092915050565b6000604082019050611aad60008301856114f5565b611aba60208301846114f5565b9392505050565b6000604082019050611ad6600083018561171c565b611ae36020830184611558565b9392505050565b600081519050611af981611489565b92915050565b600060208284031215611b1557611b1461141c565b5b6000611b2384828501611aea565b91505092915050565b7f4e6f7420656e6f7567682062616c616e63652e00000000000000000000000000600082015250565b6000611b62601383611944565b9150611b6d82611b2c565b602082019050919050565b60006020820190508181036000830152611b9181611b55565b9050919050565b6000606082019050611bad600083018661171c565b611bba602083018561171c565b611bc760408301846114f5565b949350505050565b7f4f776e61626c653a206e6577206f776e657220697320746865207a65726f206160008201527f6464726573730000000000000000000000000000000000000000000000000000602082015250565b6000611c2b602683611944565b9150611c3682611bcf565b604082019050919050565b60006020820190508181036000830152611c5a81611c1e565b9050919050565b6000611c6c8261147f565b9150611c778361147f565b9250828203905081811115611c8f57611c8e61177d565b5b92915050565b7f4f776e61626c653a2063616c6c6572206973206e6f7420746865206f776e6572600082015250565b6000611ccb602083611944565b9150611cd682611c95565b602082019050919050565b60006020820190508181036000830152611cfa81611cbe565b9050919050565b6000611d0c8261147f565b9150611d178361147f565b9250828201905080821115611d2f57611d2e61177d565b5b92915050565b7f5361666545524332303a204552433230206f7065726174696f6e20646964206e60008201527f6f74207375636365656400000000000000000000000000000000000000000000602082015250565b6000611d91602a83611944565b9150611d9c82611d35565b604082019050919050565b60006020820190508181036000830152611dc081611d84565b9050919050565b7f416464726573733a20696e73756666696369656e742062616c616e636520666f60008201527f722063616c6c0000000000000000000000000000000000000000000000000000602082015250565b6000611e23602683611944565b9150611e2e82611dc7565b604082019050919050565b60006020820190508181036000830152611e5281611e16565b9050919050565b600081519050919050565b600081905092915050565b60005b83811015611e8d578082015181840152602081019050611e72565b60008484015250505050565b6000611ea482611e59565b611eae8185611e64565b9350611ebe818560208601611e6f565b80840191505092915050565b6000611ed68284611e99565b915081905092915050565b7f416464726573733a2063616c6c20746f206e6f6e2d636f6e7472616374000000600082015250565b6000611f17601d83611944565b9150611f2282611ee1565b602082019050919050565b60006020820190508181036000830152611f4681611f0a565b9050919050565b600081519050919050565b6000601f19601f8301169050919050565b6000611f7482611f4d565b611f7e8185611944565b9350611f8e818560208601611e6f565b611f9781611f58565b840191505092915050565b60006020820190508181036000830152611fbc8184611f69565b90509291505056fea2646970667358221220f18a61c0707d5aa844cf07ca4683805fee13b415f4749b5dde5753b73040174d64736f6c63430008110033",
  "linkReferences": {},
  "deployedLinkReferences": {}
}