{
  "_format": "hh-sol-artifact-1",
  "contractName": "Bankroll",
  "sourceName": "contracts/CommunityBankroll.sol",
  "abi": [
    {
      "inputs": [
        {
          "internalType": "address",
          "name": "_stakingToken",
          "type": "address"
        }
      ],
      "stateMutability": "nonpayable",
      "type": "constructor"
    },
    {
      "anonymous": false,
      "inputs": [
        {
          "indexed": false,
          "internalType": "address",
          "name": "game",
          "type": "address"
        },
        {
          "indexed": false,
          "internalType": "bool",
          "name": "isActive",
          "type": "bool"
        }
      ],
      "name": "GameStateChanged",
      "type": "event"
    },
    {
      "anonymous": false,
      "inputs": [
        {
          "indexed": true,
          "internalType": "address",
          "name": "previousOwner",
          "type": "address"
        },
        {
          "indexed": true,
          "internalType": "address",
          "name": "newOwner",
          "type": "address"
        }
      ],
      "name": "OwnershipTransferred",
      "type": "event"
    },
    {
      "anonymous": false,
      "inputs": [
        {
          "indexed": true,
          "internalType": "address",
          "name": "user",
          "type": "address"
        },
        {
          "indexed": false,
          "internalType": "uint256",
          "name": "amount",
          "type": "uint256"
        },
        {
          "indexed": false,
          "internalType": "uint256",
          "name": "time",
          "type": "uint256"
        }
      ],
      "name": "Staked",
      "type": "event"
    },
    {
      "anonymous": false,
      "inputs": [
        {
          "indexed": false,
          "internalType": "address",
          "name": "token",
          "type": "address"
        },
        {
          "indexed": false,
          "internalType": "bool",
          "name": "isAllowed",
          "type": "bool"
        }
      ],
      "name": "TokenStateChanged",
      "type": "event"
    },
    {
      "anonymous": false,
      "inputs": [
        {
          "indexed": true,
          "internalType": "address",
          "name": "user",
          "type": "address"
        },
        {
          "indexed": false,
          "internalType": "uint256",
          "name": "amount",
          "type": "uint256"
        },
        {
          "indexed": false,
          "internalType": "uint256",
          "name": "time",
          "type": "uint256"
        }
      ],
      "name": "Unstaked",
      "type": "event"
    },
    {
      "inputs": [
        {
          "internalType": "address",
          "name": "_staker",
          "type": "address"
        },
        {
          "internalType": "uint256",
          "name": "_amount",
          "type": "uint256"
        }
      ],
      "name": "calculateWithdrawalAmount",
      "outputs": [
        {
          "internalType": "uint256",
          "name": "",
          "type": "uint256"
        }
      ],
      "stateMutability": "view",
      "type": "function"
    },
    {
      "inputs": [],
      "name": "currentEarnings",
      "outputs": [
        {
          "internalType": "int256",
          "name": "",
          "type": "int256"
        }
      ],
      "stateMutability": "view",
      "type": "function"
    },
    {
      "inputs": [
        {
          "internalType": "address",
          "name": "",
          "type": "address"
        }
      ],
      "name": "isGame",
      "outputs": [
        {
          "internalType": "bool",
          "name": "",
          "type": "bool"
        }
      ],
      "stateMutability": "view",
      "type": "function"
    },
    {
      "inputs": [
        {
          "internalType": "address",
          "name": "token",
          "type": "address"
        }
      ],
      "name": "isToken",
      "outputs": [
        {
          "internalType": "bool",
          "name": "",
          "type": "bool"
        }
      ],
      "stateMutability": "view",
      "type": "function"
    },
    {
      "inputs": [
        {
          "internalType": "address",
          "name": "",
          "type": "address"
        }
      ],
      "name": "isTokenAllowed",
      "outputs": [
        {
          "internalType": "bool",
          "name": "",
          "type": "bool"
        }
      ],
      "stateMutability": "view",
      "type": "function"
    },
    {
      "inputs": [],
      "name": "owner",
      "outputs": [
        {
          "internalType": "address",
          "name": "",
          "type": "address"
        }
      ],
      "stateMutability": "view",
      "type": "function"
    },
    {
      "inputs": [],
      "name": "renounceOwnership",
      "outputs": [],
      "stateMutability": "nonpayable",
      "type": "function"
    },
    {
      "inputs": [
        {
          "internalType": "address",
          "name": "game",
          "type": "address"
        },
        {
          "internalType": "bool",
          "name": "isActive",
          "type": "bool"
        }
      ],
      "name": "setGame",
      "outputs": [],
      "stateMutability": "nonpayable",
      "type": "function"
    },
    {
      "inputs": [
        {
          "internalType": "address",
          "name": "token",
          "type": "address"
        },
        {
          "internalType": "bool",
          "name": "isAllowed",
          "type": "bool"
        }
      ],
      "name": "setToken",
      "outputs": [],
      "stateMutability": "nonpayable",
      "type": "function"
    },
    {
      "inputs": [
        {
          "internalType": "uint256",
          "name": "_amount",
          "type": "uint256"
        }
      ],
      "name": "stake",
      "outputs": [],
      "stateMutability": "nonpayable",
      "type": "function"
    },
    {
      "inputs": [
        {
          "internalType": "address",
          "name": "",
          "type": "address"
        }
      ],
      "name": "stakers",
      "outputs": [
        {
          "internalType": "uint256",
          "name": "stakedAmount",
          "type": "uint256"
        },
        {
          "internalType": "int256",
          "name": "stakerInitialEarnings",
          "type": "int256"
        },
        {
          "internalType": "uint256",
          "name": "stakeTime",
          "type": "uint256"
        }
      ],
      "stateMutability": "view",
      "type": "function"
    },
    {
      "inputs": [],
      "name": "stakingToken",
      "outputs": [
        {
          "internalType": "contract IERC20",
          "name": "",
          "type": "address"
        }
      ],
      "stateMutability": "view",
      "type": "function"
    },
    {
      "inputs": [],
      "name": "totalEarnings",
      "outputs": [
        {
          "internalType": "int256",
          "name": "",
          "type": "int256"
        }
      ],
      "stateMutability": "view",
      "type": "function"
    },
    {
      "inputs": [],
      "name": "totalStaked",
      "outputs": [
        {
          "internalType": "uint256",
          "name": "",
          "type": "uint256"
        }
      ],
      "stateMutability": "view",
      "type": "function"
    },
    {
      "inputs": [
        {
          "internalType": "address",
          "name": "newOwner",
          "type": "address"
        }
      ],
      "name": "transferOwnership",
      "outputs": [],
      "stateMutability": "nonpayable",
      "type": "function"
    },
    {
      "inputs": [
        {
          "internalType": "address",
          "name": "tokenAddress",
          "type": "address"
        },
        {
          "internalType": "address",
          "name": "player",
          "type": "address"
        },
        {
          "internalType": "uint256",
          "name": "payout",
          "type": "uint256"
        }
      ],
      "name": "transferTokenPayout",
      "outputs": [],
      "stateMutability": "nonpayable",
      "type": "function"
    },
    {
      "inputs": [
        {
          "internalType": "uint256",
          "name": "_amount",
          "type": "uint256"
        }
      ],
      "name": "unstake",
      "outputs": [],
      "stateMutability": "nonpayable",
      "type": "function"
    },
    {
      "stateMutability": "payable",
      "type": "receive"
    }
  ],
  "bytecode": "0x60806040523480156200001157600080fd5b5060405162002336380380620023368339818101604052810190620000379190620001d5565b620000576200004b6200009f60201b60201c565b620000a760201b60201c565b80600160006101000a81548173ffffffffffffffffffffffffffffffffffffffff021916908373ffffffffffffffffffffffffffffffffffffffff1602179055505062000207565b600033905090565b60008060009054906101000a900473ffffffffffffffffffffffffffffffffffffffff169050816000806101000a81548173ffffffffffffffffffffffffffffffffffffffff021916908373ffffffffffffffffffffffffffffffffffffffff1602179055508173ffffffffffffffffffffffffffffffffffffffff168173ffffffffffffffffffffffffffffffffffffffff167f8be0079c531659141344cd1fd0a4f28419497f9722a3daafe3b4186f6b6457e060405160405180910390a35050565b600080fd5b600073ffffffffffffffffffffffffffffffffffffffff82169050919050565b60006200019d8262000170565b9050919050565b620001af8162000190565b8114620001bb57600080fd5b50565b600081519050620001cf81620001a4565b92915050565b600060208284031215620001ee57620001ed6200016b565b5b6000620001fe84828501620001be565b91505092915050565b61211f80620002176000396000f3fe6080604052600436106101025760003560e01c806372f702f311610095578063a694fc3a11610064578063a694fc3a14610330578063b0836e2e14610359578063c626c52e14610382578063f2fde38b146103bf578063f9eaee0d146103e857610109565b806372f702f314610270578063817b1cd21461029b5780638da5cb5b146102c65780639168ae72146102f157610109565b80633816a292116100d15780633816a292146101dc5780633d189bf114610205578063599f44581461022e578063715018a61461025957610109565b806303f22b411461010e57806319f373611461014b5780632df3eba4146101885780632e17de78146101b357610109565b3661010957005b600080fd5b34801561011a57600080fd5b5061013560048036038101906101309190611548565b610425565b6040516101429190611597565b60405180910390f35b34801561015757600080fd5b50610172600480360381019061016d91906115b2565b610502565b60405161017f91906115fa565b60405180910390f35b34801561019457600080fd5b5061019d610558565b6040516101aa919061162e565b60405180910390f35b3480156101bf57600080fd5b506101da60048036038101906101d59190611649565b61055e565b005b3480156101e857600080fd5b5061020360048036038101906101fe91906116a2565b61087a565b005b34801561021157600080fd5b5061022c600480360381019061022791906116e2565b610916565b005b34801561023a57600080fd5b50610243610a0e565b604051610250919061162e565b60405180910390f35b34801561026557600080fd5b5061026e610ad6565b005b34801561027c57600080fd5b50610285610aea565b6040516102929190611794565b60405180910390f35b3480156102a757600080fd5b506102b0610b10565b6040516102bd9190611597565b60405180910390f35b3480156102d257600080fd5b506102db610b16565b6040516102e891906117be565b60405180910390f35b3480156102fd57600080fd5b50610318600480360381019061031391906115b2565b610b3f565b604051610327939291906117d9565b60405180910390f35b34801561033c57600080fd5b5061035760048036038101906103529190611649565b610b69565b005b34801561036557600080fd5b50610380600480360381019061037b91906116a2565b610df0565b005b34801561038e57600080fd5b506103a960048036038101906103a491906115b2565b610e8c565b6040516103b691906115fa565b60405180910390f35b3480156103cb57600080fd5b506103e660048036038101906103e191906115b2565b610eac565b005b3480156103f457600080fd5b5061040f600480360381019061040a91906115b2565b610f2f565b60405161041c91906115fa565b60405180910390f35b600080600254600460008673ffffffffffffffffffffffffffffffffffffffff1673ffffffffffffffffffffffffffffffffffffffff16815260200190815260200160002060000154600460008773ffffffffffffffffffffffffffffffffffffffff1673ffffffffffffffffffffffffffffffffffffffff168152602001908152602001600020600101546003546104be919061183f565b6104c89190611882565b6104d29190611929565b9050600081846104e29190611993565b9050838112156104f65783925050506104fc565b80925050505b92915050565b6000600660008373ffffffffffffffffffffffffffffffffffffffff1673ffffffffffffffffffffffffffffffffffffffff16815260200190815260200160002060009054906101000a900460ff169050919050565b60035481565b610566610f4f565b600081116105a9576040517f08c379a00000000000000000000000000000000000000000000000000000000081526004016105a090611a34565b60405180910390fd5b80600460003373ffffffffffffffffffffffffffffffffffffffff1673ffffffffffffffffffffffffffffffffffffffff16815260200190815260200160002060000154101561062e576040517f08c379a000000000000000000000000000000000000000000000000000000000815260040161062590611aa0565b60405180910390fd5b62015180600460003373ffffffffffffffffffffffffffffffffffffffff1673ffffffffffffffffffffffffffffffffffffffff1681526020019081526020016000206002015461067f9190611ac0565b4210156106c1576040517f08c379a00000000000000000000000000000000000000000000000000000000081526004016106b890611b66565b60405180910390fd5b61071681600460003373ffffffffffffffffffffffffffffffffffffffff1673ffffffffffffffffffffffffffffffffffffffff1681526020019081526020016000206000015461101e90919063ffffffff16565b600460003373ffffffffffffffffffffffffffffffffffffffff1673ffffffffffffffffffffffffffffffffffffffff168152602001908152602001600020600001819055506107718160025461101e90919063ffffffff16565b60028190555060006107833383610425565b9050600160009054906101000a900473ffffffffffffffffffffffffffffffffffffffff1673ffffffffffffffffffffffffffffffffffffffff1663a9059cbb33836040518363ffffffff1660e01b81526004016107e2929190611b86565b6020604051808303816000875af1158015610801573d6000803e3d6000fd5b505050506040513d601f19601f820116820180604052508101906108259190611bc4565b503373ffffffffffffffffffffffffffffffffffffffff167f7fc4727e062e336010f2c282598ef5f14facb3de68cf8195c2f23e1454b2b74e834260405161086e929190611bf1565b60405180910390a25050565b610882611034565b80600660008473ffffffffffffffffffffffffffffffffffffffff1673ffffffffffffffffffffffffffffffffffffffff16815260200190815260200160002060006101000a81548160ff0219169083151502179055507f1f1269d3c9516f07c3367fe7388d5acb09f65fafbb968c6db71f53507c5f180c828260405161090a929190611c1a565b60405180910390a15050565b600083905060008173ffffffffffffffffffffffffffffffffffffffff166370a08231306040518263ffffffff1660e01b815260040161095691906117be565b602060405180830381865afa158015610973573d6000803e3d6000fd5b505050506040513d601f19601f820116820180604052508101906109979190611c58565b9050828110156109dc576040517f08c379a00000000000000000000000000000000000000000000000000000000081526004016109d390611cd1565b60405180910390fd5b610a0784848473ffffffffffffffffffffffffffffffffffffffff166110b29092919063ffffffff16565b5050505050565b600080600160009054906101000a900473ffffffffffffffffffffffffffffffffffffffff1673ffffffffffffffffffffffffffffffffffffffff166370a08231306040518263ffffffff1660e01b8152600401610a6c91906117be565b602060405180830381865afa158015610a89573d6000803e3d6000fd5b505050506040513d601f19601f82011682018060405250810190610aad9190611c58565b9050600060025482610abf919061183f565b905080600354610acf9190611993565b9250505090565b610ade611034565b610ae86000611138565b565b600160009054906101000a900473ffffffffffffffffffffffffffffffffffffffff1681565b60025481565b60008060009054906101000a900473ffffffffffffffffffffffffffffffffffffffff16905090565b60046020528060005260406000206000915090508060000154908060010154908060020154905083565b610b71610f4f565b60008111610bb4576040517f08c379a0000000000000000000000000000000000000000000000000000000008152600401610bab90611a34565b60405180910390fd5b600160009054906101000a900473ffffffffffffffffffffffffffffffffffffffff1673ffffffffffffffffffffffffffffffffffffffff166323b872dd3330846040518463ffffffff1660e01b8152600401610c1393929190611cf1565b6020604051808303816000875af1158015610c32573d6000803e3d6000fd5b505050506040513d601f19601f82011682018060405250810190610c569190611bc4565b50600354600460003373ffffffffffffffffffffffffffffffffffffffff1673ffffffffffffffffffffffffffffffffffffffff16815260200190815260200160002060010181905550610cf581600460003373ffffffffffffffffffffffffffffffffffffffff1673ffffffffffffffffffffffffffffffffffffffff168152602001908152602001600020600001546111fc90919063ffffffff16565b600460003373ffffffffffffffffffffffffffffffffffffffff1673ffffffffffffffffffffffffffffffffffffffff1681526020019081526020016000206000018190555042600460003373ffffffffffffffffffffffffffffffffffffffff1673ffffffffffffffffffffffffffffffffffffffff16815260200190815260200160002060020181905550610d97816002546111fc90919063ffffffff16565b6002819055503373ffffffffffffffffffffffffffffffffffffffff167f1449c6dd7851abc30abf37f57715f492010519147cc2652fbc38202c18a6ee908242604051610de5929190611bf1565b60405180910390a250565b610df8611034565b80600560008473ffffffffffffffffffffffffffffffffffffffff1673ffffffffffffffffffffffffffffffffffffffff16815260200190815260200160002060006101000a81548160ff0219169083151502179055507f485a208f50c0e410820bfb5ebb6b7803f74c8394c3ba79db2c28b6793cdec29c8282604051610e80929190611c1a565b60405180910390a15050565b60056020528060005260406000206000915054906101000a900460ff1681565b610eb4611034565b600073ffffffffffffffffffffffffffffffffffffffff168173ffffffffffffffffffffffffffffffffffffffff1603610f23576040517f08c379a0000000000000000000000000000000000000000000000000000000008152600401610f1a90611d9a565b60405180910390fd5b610f2c81611138565b50565b60066020528060005260406000206000915054906101000a900460ff1681565b6000600160009054906101000a900473ffffffffffffffffffffffffffffffffffffffff1673ffffffffffffffffffffffffffffffffffffffff166370a08231306040518263ffffffff1660e01b8152600401610fac91906117be565b602060405180830381865afa158015610fc9573d6000803e3d6000fd5b505050506040513d601f19601f82011682018060405250810190610fed9190611c58565b9050600060025482610fff919061183f565b905080600360008282546110139190611993565b925050819055505050565b6000818361102c9190611dba565b905092915050565b61103c611212565b73ffffffffffffffffffffffffffffffffffffffff1661105a610b16565b73ffffffffffffffffffffffffffffffffffffffff16146110b0576040517f08c379a00000000000000000000000000000000000000000000000000000000081526004016110a790611e3a565b60405180910390fd5b565b6111338363a9059cbb60e01b84846040516024016110d1929190611b86565b604051602081830303815290604052907bffffffffffffffffffffffffffffffffffffffffffffffffffffffff19166020820180517bffffffffffffffffffffffffffffffffffffffffffffffffffffffff838183161783525050505061121a565b505050565b60008060009054906101000a900473ffffffffffffffffffffffffffffffffffffffff169050816000806101000a81548173ffffffffffffffffffffffffffffffffffffffff021916908373ffffffffffffffffffffffffffffffffffffffff1602179055508173ffffffffffffffffffffffffffffffffffffffff168173ffffffffffffffffffffffffffffffffffffffff167f8be0079c531659141344cd1fd0a4f28419497f9722a3daafe3b4186f6b6457e060405160405180910390a35050565b6000818361120a9190611ac0565b905092915050565b600033905090565b600061127c826040518060400160405280602081526020017f5361666545524332303a206c6f772d6c6576656c2063616c6c206661696c65648152508573ffffffffffffffffffffffffffffffffffffffff166112e29092919063ffffffff16565b905060008151148061129e57508080602001905181019061129d9190611bc4565b5b6112dd576040517f08c379a00000000000000000000000000000000000000000000000000000000081526004016112d490611ecc565b60405180910390fd5b505050565b60606112f184846000856112fa565b90509392505050565b60608247101561133f576040517f08c379a000000000000000000000000000000000000000000000000000000000815260040161133690611f5e565b60405180910390fd5b6000808673ffffffffffffffffffffffffffffffffffffffff1685876040516113689190611fef565b60006040518083038185875af1925050503d80600081146113a5576040519150601f19603f3d011682016040523d82523d6000602084013e6113aa565b606091505b50915091506113bb878383876113c7565b92505050949350505050565b60608315611429576000835103611421576113e18561143c565b611420576040517f08c379a000000000000000000000000000000000000000000000000000000000815260040161141790612052565b60405180910390fd5b5b829050611434565b611433838361145f565b5b949350505050565b6000808273ffffffffffffffffffffffffffffffffffffffff163b119050919050565b6000825111156114725781518083602001fd5b806040517f08c379a00000000000000000000000000000000000000000000000000000000081526004016114a691906120c7565b60405180910390fd5b600080fd5b600073ffffffffffffffffffffffffffffffffffffffff82169050919050565b60006114df826114b4565b9050919050565b6114ef816114d4565b81146114fa57600080fd5b50565b60008135905061150c816114e6565b92915050565b6000819050919050565b61152581611512565b811461153057600080fd5b50565b6000813590506115428161151c565b92915050565b6000806040838503121561155f5761155e6114af565b5b600061156d858286016114fd565b925050602061157e85828601611533565b9150509250929050565b61159181611512565b82525050565b60006020820190506115ac6000830184611588565b92915050565b6000602082840312156115c8576115c76114af565b5b60006115d6848285016114fd565b91505092915050565b60008115159050919050565b6115f4816115df565b82525050565b600060208201905061160f60008301846115eb565b92915050565b6000819050919050565b61162881611615565b82525050565b6000602082019050611643600083018461161f565b92915050565b60006020828403121561165f5761165e6114af565b5b600061166d84828501611533565b91505092915050565b61167f816115df565b811461168a57600080fd5b50565b60008135905061169c81611676565b92915050565b600080604083850312156116b9576116b86114af565b5b60006116c7858286016114fd565b92505060206116d88582860161168d565b9150509250929050565b6000806000606084860312156116fb576116fa6114af565b5b6000611709868287016114fd565b935050602061171a868287016114fd565b925050604061172b86828701611533565b9150509250925092565b6000819050919050565b600061175a611755611750846114b4565b611735565b6114b4565b9050919050565b600061176c8261173f565b9050919050565b600061177e82611761565b9050919050565b61178e81611773565b82525050565b60006020820190506117a96000830184611785565b92915050565b6117b8816114d4565b82525050565b60006020820190506117d360008301846117af565b92915050565b60006060820190506117ee6000830186611588565b6117fb602083018561161f565b6118086040830184611588565b949350505050565b7f4e487b7100000000000000000000000000000000000000000000000000000000600052601160045260246000fd5b600061184a82611615565b915061185583611615565b925082820390508181126000841216828213600085121516171561187c5761187b611810565b5b92915050565b600061188d82611615565b915061189883611615565b92508282026118a681611615565b91507f800000000000000000000000000000000000000000000000000000000000000084146000841216156118de576118dd611810565b5b82820584148315176118f3576118f2611810565b5b5092915050565b7f4e487b7100000000000000000000000000000000000000000000000000000000600052601260045260246000fd5b600061193482611615565b915061193f83611615565b92508261194f5761194e6118fa565b5b600160000383147f80000000000000000000000000000000000000000000000000000000000000008314161561198857611987611810565b5b828205905092915050565b600061199e82611615565b91506119a983611615565b9250828201905082811215600083121683821260008412151617156119d1576119d0611810565b5b92915050565b600082825260208201905092915050565b7f416d6f756e742073686f756c642062652067726561746572207468616e203000600082015250565b6000611a1e601f836119d7565b9150611a29826119e8565b602082019050919050565b60006020820190508181036000830152611a4d81611a11565b9050919050565b7f496e73756666696369656e74207374616b656420616d6f756e74000000000000600082015250565b6000611a8a601a836119d7565b9150611a9582611a54565b602082019050919050565b60006020820190508181036000830152611ab981611a7d565b9050919050565b6000611acb82611512565b9150611ad683611512565b9250828201905080821115611aee57611aed611810565b5b92915050565b7f5374616b65206d7573742062652068656c6420666f72206174206c656173742060008201527f3120646179000000000000000000000000000000000000000000000000000000602082015250565b6000611b506025836119d7565b9150611b5b82611af4565b604082019050919050565b60006020820190508181036000830152611b7f81611b43565b9050919050565b6000604082019050611b9b60008301856117af565b611ba86020830184611588565b9392505050565b600081519050611bbe81611676565b92915050565b600060208284031215611bda57611bd96114af565b5b6000611be884828501611baf565b91505092915050565b6000604082019050611c066000830185611588565b611c136020830184611588565b9392505050565b6000604082019050611c2f60008301856117af565b611c3c60208301846115eb565b9392505050565b600081519050611c528161151c565b92915050565b600060208284031215611c6e57611c6d6114af565b5b6000611c7c84828501611c43565b91505092915050565b7f4e6f7420656e6f7567682062616c616e63652e00000000000000000000000000600082015250565b6000611cbb6013836119d7565b9150611cc682611c85565b602082019050919050565b60006020820190508181036000830152611cea81611cae565b9050919050565b6000606082019050611d0660008301866117af565b611d1360208301856117af565b611d206040830184611588565b949350505050565b7f4f776e61626c653a206e6577206f776e657220697320746865207a65726f206160008201527f6464726573730000000000000000000000000000000000000000000000000000602082015250565b6000611d846026836119d7565b9150611d8f82611d28565b604082019050919050565b60006020820190508181036000830152611db381611d77565b9050919050565b6000611dc582611512565b9150611dd083611512565b9250828203905081811115611de857611de7611810565b5b92915050565b7f4f776e61626c653a2063616c6c6572206973206e6f7420746865206f776e6572600082015250565b6000611e246020836119d7565b9150611e2f82611dee565b602082019050919050565b60006020820190508181036000830152611e5381611e17565b9050919050565b7f5361666545524332303a204552433230206f7065726174696f6e20646964206e60008201527f6f74207375636365656400000000000000000000000000000000000000000000602082015250565b6000611eb6602a836119d7565b9150611ec182611e5a565b604082019050919050565b60006020820190508181036000830152611ee581611ea9565b9050919050565b7f416464726573733a20696e73756666696369656e742062616c616e636520666f60008201527f722063616c6c0000000000000000000000000000000000000000000000000000602082015250565b6000611f486026836119d7565b9150611f5382611eec565b604082019050919050565b60006020820190508181036000830152611f7781611f3b565b9050919050565b600081519050919050565b600081905092915050565b60005b83811015611fb2578082015181840152602081019050611f97565b60008484015250505050565b6000611fc982611f7e565b611fd38185611f89565b9350611fe3818560208601611f94565b80840191505092915050565b6000611ffb8284611fbe565b915081905092915050565b7f416464726573733a2063616c6c20746f206e6f6e2d636f6e7472616374000000600082015250565b600061203c601d836119d7565b915061204782612006565b602082019050919050565b6000602082019050818103600083015261206b8161202f565b9050919050565b600081519050919050565b6000601f19601f8301169050919050565b600061209982612072565b6120a381856119d7565b93506120b3818560208601611f94565b6120bc8161207d565b840191505092915050565b600060208201905081810360008301526120e1818461208e565b90509291505056fea2646970667358221220c4d3ed6e69fcffb633a97884fe437e44d483529d1ca9f8ddc37d5cfeea544f2a64736f6c63430008110033",
  "linkReferences": {},
  "deployedLinkReferences": {}
}